{
  "_format": "hh-sol-artifact-1",
  "contractName": "ActivePool",
  "sourceName": "contracts/ActivePool.sol",
  "abi": [
    {
      "inputs": [],
      "stateMutability": "nonpayable",
      "type": "constructor"
    },
    {
      "anonymous": false,
      "inputs": [
        {
          "indexed": false,
          "internalType": "address",
          "name": "_newActivePoolAddress",
          "type": "address"
        }
      ],
      "name": "ActivePoolAddressChanged",
      "type": "event"
    },
    {
      "anonymous": false,
      "inputs": [
        {
          "indexed": false,
          "internalType": "uint256",
          "name": "_ETH",
          "type": "uint256"
        }
      ],
      "name": "ActivePoolETHBalanceUpdated",
      "type": "event"
    },
    {
      "anonymous": false,
      "inputs": [
        {
          "indexed": false,
          "internalType": "uint256",
          "name": "_LUSDDebt",
          "type": "uint256"
        }
      ],
      "name": "ActivePoolLUSDDebtUpdated",
      "type": "event"
    },
    {
      "anonymous": false,
      "inputs": [
        {
          "indexed": false,
          "internalType": "address",
          "name": "_newBorrowerOperationsAddress",
          "type": "address"
        }
      ],
      "name": "BorrowerOperationsAddressChanged",
      "type": "event"
    },
    {
      "anonymous": false,
      "inputs": [
        {
          "indexed": false,
          "internalType": "address",
          "name": "_newDefaultPoolAddress",
          "type": "address"
        }
      ],
      "name": "DefaultPoolAddressChanged",
      "type": "event"
    },
    {
      "anonymous": false,
      "inputs": [
        {
          "indexed": false,
          "internalType": "uint256",
          "name": "_newBalance",
          "type": "uint256"
        }
      ],
      "name": "ETHBalanceUpdated",
      "type": "event"
    },
    {
      "anonymous": false,
      "inputs": [
        {
          "indexed": false,
          "internalType": "address",
          "name": "_to",
          "type": "address"
        },
        {
          "indexed": false,
          "internalType": "uint256",
          "name": "_amount",
          "type": "uint256"
        }
      ],
      "name": "EtherSent",
      "type": "event"
    },
    {
      "anonymous": false,
      "inputs": [
        {
          "indexed": false,
          "internalType": "uint256",
          "name": "_newBalance",
          "type": "uint256"
        }
      ],
      "name": "LUSDBalanceUpdated",
      "type": "event"
    },
    {
      "anonymous": false,
      "inputs": [
        {
          "indexed": true,
          "internalType": "address",
          "name": "previousOwner",
          "type": "address"
        },
        {
          "indexed": true,
          "internalType": "address",
          "name": "newOwner",
          "type": "address"
        }
      ],
      "name": "OwnershipTransferred",
      "type": "event"
    },
    {
      "anonymous": false,
      "inputs": [
        {
          "indexed": false,
          "internalType": "address",
          "name": "_newStabilityPoolAddress",
          "type": "address"
        }
      ],
      "name": "StabilityPoolAddressChanged",
      "type": "event"
    },
    {
      "anonymous": false,
      "inputs": [
        {
          "indexed": false,
          "internalType": "address",
          "name": "_newTroveManagerAddress",
          "type": "address"
        }
      ],
      "name": "TroveManagerAddressChanged",
      "type": "event"
    },
    {
      "inputs": [],
      "name": "NAME",
      "outputs": [
        {
          "internalType": "string",
          "name": "",
          "type": "string"
        }
      ],
      "stateMutability": "view",
      "type": "function"
    },
    {
      "inputs": [],
      "name": "borrowerOperationsAddress",
      "outputs": [
        {
          "internalType": "address",
          "name": "",
          "type": "address"
        }
      ],
      "stateMutability": "view",
      "type": "function"
    },
    {
      "inputs": [],
      "name": "borrowerRewards",
      "outputs": [
        {
          "internalType": "contract IBorrowerRewards",
          "name": "",
          "type": "address"
        }
      ],
      "stateMutability": "view",
      "type": "function"
    },
    {
      "inputs": [],
      "name": "borrowerRewardsFactor",
      "outputs": [
        {
          "internalType": "uint256",
          "name": "",
          "type": "uint256"
        }
      ],
      "stateMutability": "view",
      "type": "function"
    },
    {
      "inputs": [],
      "name": "checkSTLOSBalance",
      "outputs": [
        {
          "internalType": "uint256",
          "name": "",
          "type": "uint256"
        }
      ],
      "stateMutability": "view",
      "type": "function"
    },
    {
      "inputs": [],
      "name": "checkStakedTLOSToShares",
      "outputs": [
        {
          "internalType": "uint256",
          "name": "",
          "type": "uint256"
        }
      ],
      "stateMutability": "view",
      "type": "function"
    },
    {
      "inputs": [],
      "name": "communityIssuance",
      "outputs": [
        {
          "internalType": "address",
          "name": "",
          "type": "address"
        }
      ],
      "stateMutability": "view",
      "type": "function"
    },
    {
      "inputs": [
        {
          "internalType": "uint256",
          "name": "_amount",
          "type": "uint256"
        }
      ],
      "name": "decreaseLUSDDebt",
      "outputs": [],
      "stateMutability": "nonpayable",
      "type": "function"
    },
    {
      "inputs": [],
      "name": "defaultPoolAddress",
      "outputs": [
        {
          "internalType": "address",
          "name": "",
          "type": "address"
        }
      ],
      "stateMutability": "view",
      "type": "function"
    },
    {
      "inputs": [],
      "name": "devAddress",
      "outputs": [
        {
          "internalType": "address",
          "name": "",
          "type": "address"
        }
      ],
      "stateMutability": "view",
      "type": "function"
    },
    {
      "inputs": [],
      "name": "getETH",
      "outputs": [
        {
          "internalType": "uint256",
          "name": "",
          "type": "uint256"
        }
      ],
      "stateMutability": "view",
      "type": "function"
    },
    {
      "inputs": [],
      "name": "getLUSDDebt",
      "outputs": [
        {
          "internalType": "uint256",
          "name": "",
          "type": "uint256"
        }
      ],
      "stateMutability": "view",
      "type": "function"
    },
    {
      "inputs": [
        {
          "internalType": "uint256",
          "name": "_amount",
          "type": "uint256"
        }
      ],
      "name": "increaseLUSDDebt",
      "outputs": [],
      "stateMutability": "nonpayable",
      "type": "function"
    },
    {
      "inputs": [],
      "name": "isOwner",
      "outputs": [
        {
          "internalType": "bool",
          "name": "",
          "type": "bool"
        }
      ],
      "stateMutability": "view",
      "type": "function"
    },
    {
      "inputs": [],
      "name": "owner",
      "outputs": [
        {
          "internalType": "address",
          "name": "",
          "type": "address"
        }
      ],
      "stateMutability": "view",
      "type": "function"
    },
    {
      "inputs": [],
      "name": "protocolFeeFactor",
      "outputs": [
        {
          "internalType": "uint256",
          "name": "",
          "type": "uint256"
        }
      ],
      "stateMutability": "view",
      "type": "function"
    },
    {
      "inputs": [],
      "name": "renounceOwnership",
      "outputs": [],
      "stateMutability": "nonpayable",
      "type": "function"
    },
    {
      "inputs": [
        {
          "internalType": "address",
          "name": "_account",
          "type": "address"
        },
        {
          "internalType": "uint256",
          "name": "_amount",
          "type": "uint256"
        }
      ],
      "name": "sendETH",
      "outputs": [],
      "stateMutability": "nonpayable",
      "type": "function"
    },
    {
      "inputs": [
        {
          "internalType": "address",
          "name": "_account",
          "type": "address"
        },
        {
          "internalType": "uint256",
          "name": "_amount",
          "type": "uint256"
        }
      ],
      "name": "sendLockedETH",
      "outputs": [],
      "stateMutability": "nonpayable",
      "type": "function"
    },
    {
      "inputs": [
        {
          "internalType": "address",
          "name": "_borrowerOperationsAddress",
          "type": "address"
        },
        {
          "internalType": "address",
          "name": "_troveManagerAddress",
          "type": "address"
        },
        {
          "internalType": "address",
          "name": "_stabilityPoolAddress",
          "type": "address"
        },
        {
          "internalType": "address",
          "name": "_defaultPoolAddress",
          "type": "address"
        },
        {
          "internalType": "address",
          "name": "_communityIssuance",
          "type": "address"
        },
        {
          "internalType": "address",
          "name": "_borrowerRewards",
          "type": "address"
        },
        {
          "internalType": "address",
          "name": "_devAddress",
          "type": "address"
        }
      ],
      "name": "setAddresses",
      "outputs": [],
      "stateMutability": "nonpayable",
      "type": "function"
    },
    {
      "inputs": [
        {
          "internalType": "uint256",
          "name": "_borrowerRewardsFactor",
          "type": "uint256"
        },
        {
          "internalType": "uint256",
          "name": "_stabilityPoolRewardsFactor",
          "type": "uint256"
        },
        {
          "internalType": "uint256",
          "name": "_protocolFeeFactor",
          "type": "uint256"
        }
      ],
      "name": "setRewardsDistribution",
      "outputs": [],
      "stateMutability": "nonpayable",
      "type": "function"
    },
    {
      "inputs": [],
      "name": "stabilityPoolAddress",
      "outputs": [
        {
          "internalType": "address",
          "name": "",
          "type": "address"
        }
      ],
      "stateMutability": "view",
      "type": "function"
    },
    {
      "inputs": [],
      "name": "stabilityPoolRewardsFactor",
      "outputs": [
        {
          "internalType": "uint256",
          "name": "",
          "type": "uint256"
        }
      ],
      "stateMutability": "view",
      "type": "function"
    },
    {
      "inputs": [],
      "name": "stakedTLOS",
      "outputs": [
        {
          "internalType": "contract IStakedTLOS",
          "name": "",
          "type": "address"
        }
      ],
      "stateMutability": "view",
      "type": "function"
    },
    {
      "inputs": [],
      "name": "troveManagerAddress",
      "outputs": [
        {
          "internalType": "address",
          "name": "",
          "type": "address"
        }
      ],
      "stateMutability": "view",
      "type": "function"
    },
    {
      "stateMutability": "payable",
      "type": "receive"
    }
  ],
  "bytecode": "0x608060405234801561001057600080fd5b50600080546001600160a01b0319163390811782556040519091907f8be0079c531659141344cd1fd0a4f28419497f9722a3daafe3b4186f6b6457e0908290a3600c80546001600160a01b03191673a9991e4daa44922d00a78b6d986cdf628d46c4dd1790556115ca806100856000396000f3fe60806040526004361061015a5760003560e01c80638da5cb5b116100c1578063b7f8cf9b1161007a578063b7f8cf9b14610487578063cfb9329a1461049c578063dbd6f420146104c6578063e7a0872b146104db578063e94f0cdd14610514578063eaa8ba7f14610529578063ec9301111461058e57610216565b80638da5cb5b146103805780638f32d59b1461039557806395fb16bb146103be578063a3f4df7e146103d3578063aac1846f1461045d578063ab58989a1461047257610216565b80635a4d28bb116101135780635a4d28bb146102de5780635eb52fca146102f357806364a197f31461030857806365791a9514610341578063715018a6146103565780637b67bc911461036b57610216565b80630b622ab21461021b57806311e3bdde1461024c57806314f6c3be1461027357806319b224c11461028857806338d995a81461029d5780633ad10ef6146102c957610216565b36610216576101676105c4565b600a5461017a903463ffffffff61062416565b600a55600c546040805163052a38e160e51b815290516001600160a01b039092169163a5471c20913491600480830192602092919082900301818588803b1580156101c457600080fd5b505af11580156101d8573d6000803e3d6000fd5b50505050506040513d60208110156101ef57600080fd5b5050600a5460408051918252516000805160206114b08339815191529181900360200190a1005b600080fd5b34801561022757600080fd5b50610230610687565b604080516001600160a01b039092168252519081900360200190f35b34801561025857600080fd5b50610261610696565b60408051918252519081900360200190f35b34801561027f57600080fd5b5061026161069c565b34801561029457600080fd5b506102306106a2565b3480156102a957600080fd5b506102c7600480360360208110156102c057600080fd5b50356106b1565b005b3480156102d557600080fd5b5061023061070e565b3480156102ea57600080fd5b5061023061071d565b3480156102ff57600080fd5b5061026161072c565b34801561031457600080fd5b506102c76004803603604081101561032b57600080fd5b506001600160a01b038135169060200135610732565b34801561034d57600080fd5b506102616108c1565b34801561036257600080fd5b506102c761093d565b34801561037757600080fd5b5061026161098c565b34801561038c57600080fd5b50610230610992565b3480156103a157600080fd5b506103aa6109a1565b604080519115158252519081900360200190f35b3480156103ca57600080fd5b506102306109b2565b3480156103df57600080fd5b506103e86109c1565b6040805160208082528351818301528351919283929083019185019080838360005b8381101561042257818101518382015260200161040a565b50505050905090810190601f16801561044f5780820380516001836020036101000a031916815260200191505b509250505060405180910390f35b34801561046957600080fd5b506102306109e7565b34801561047e57600080fd5b506102616109f6565b34801561049357600080fd5b50610230610a45565b3480156104a857600080fd5b506102c7600480360360208110156104bf57600080fd5b5035610a54565b3480156104d257600080fd5b50610230610a6f565b3480156104e757600080fd5b506102c7600480360360408110156104fe57600080fd5b506001600160a01b038135169060200135610a7e565b34801561052057600080fd5b50610261610b98565b34801561053557600080fd5b506102c7600480360360e081101561054c57600080fd5b506001600160a01b038135811691602081013582169160408201358116916060810135821691608082013581169160a081013582169160c09091013516610b9e565b34801561059a57600080fd5b506102c7600480360360608110156105b157600080fd5b5080359060208101359060400135610d6f565b6001546001600160a01b03163314806105e757506004546001600160a01b031633145b6106225760405162461bcd60e51b81526004018080602001828103825260318152602001806115236031913960400191505060405180910390fd5b565b60008282018381101561067e576040805162461bcd60e51b815260206004820152601b60248201527f536166654d6174683a206164646974696f6e206f766572666c6f770000000000604482015290519081900360640190fd5b90505b92915050565b6003546001600160a01b031681565b60095481565b600a5490565b600d546001600160a01b031681565b6106b9610e39565b600b546106cc908263ffffffff610eac16565b600b81905560408051918252517f0d4c964e4ceac5d740869d39789a7b91888a787b9c33e9365b1a658a21ffb6969181900360200190a161070b610eee565b50565b6006546001600160a01b031681565b6002546001600160a01b031681565b600b5490565b61073a610e39565b600a5461074d908263ffffffff610eac16565b600a55600c54604080516363737ac960e11b81526004810184905290516000926001600160a01b03169163c6e6f592916024808301926020929190829003018186803b15801561079c57600080fd5b505afa1580156107b0573d6000803e3d6000fd5b505050506040513d60208110156107c657600080fd5b5051600c546040805163a9059cbb60e01b81526001600160a01b03878116600483015260248201859052915193945091169163a9059cbb916044808201926020929091908290030181600087803b15801561082057600080fd5b505af1158015610834573d6000803e3d6000fd5b505050506040513d602081101561084a57600080fd5b506108559050610eee565b600a5460408051918252516000805160206114b08339815191529181900360200190a1604080516001600160a01b03851681526020810184905281517f6109e2559dfa766aaec7118351d48a523f0a4157f49c8d68749c8ac41318ad12929181900390910190a1505050565b600c54604080516370a0823160e01b815230600482015290516000926001600160a01b0316916370a08231916024808301926020929190829003018186803b15801561090c57600080fd5b505afa158015610920573d6000803e3d6000fd5b505050506040513d602081101561093657600080fd5b5051905090565b6109456109a1565b610984576040805162461bcd60e51b81526020600482018190526024820152600080516020611575833981519152604482015290519081900360640190fd5b6106226111d4565b60075481565b6000546001600160a01b031690565b6000546001600160a01b0316331490565b6005546001600160a01b031681565b6040518060400160405280600a8152602001691058dd1a5d99541bdbdb60b21b81525081565b6004546001600160a01b031681565b600c54600a54604080516363737ac960e11b81526004810192909252516000926001600160a01b03169163c6e6f592916024808301926020929190829003018186803b15801561090c57600080fd5b6001546001600160a01b031681565b610a5c61121e565b600b546106cc908263ffffffff61062416565b600c546001600160a01b031681565b610a86610e39565b600a54610a99908263ffffffff610eac16565b600a55600c5460408051632d182be560e21b8152600481018490526001600160a01b0385811660248301523060448301529151919092169163b460af949160648083019260209291908290030181600087803b158015610af857600080fd5b505af1158015610b0c573d6000803e3d6000fd5b505050506040513d6020811015610b2257600080fd5b50610b2d9050610eee565b600a5460408051918252516000805160206114b08339815191529181900360200190a1604080516001600160a01b03841681526020810183905281517f6109e2559dfa766aaec7118351d48a523f0a4157f49c8d68749c8ac41318ad12929181900390910190a15050565b60085481565b610ba66109a1565b610be5576040805162461bcd60e51b81526020600482018190526024820152600080516020611575833981519152604482015290519081900360640190fd5b610bee8761127c565b610bf78661127c565b610c008561127c565b610c098461127c565b610c128261127c565b600180546001600160a01b03199081166001600160a01b038a81169182179093556002805483168a8516179055600380548316898516179055600480548316888516179055600580548316878516179055600680548316858516179055600d805490921692851692909217905560408051918252517f3ca631ffcd2a9b5d9ae18543fc82f58eb4ca33af9e6ab01b7a8e95331e6ed985916020908290030190a1604080516001600160a01b038816815290517f143219c9e69b09e07e095fcc889b43d8f46ca892bba65f08dc3a0050869a56789181900360200190a1604080516001600160a01b038716815290517f82966d27eea39b038ee0fa30cd16532bb24f6e65d31cb58fb227aa5766cdcc7f9181900360200190a1604080516001600160a01b038616815290517f5ee0cae2f063ed938bb55046f6a932fb6ae792bf43624806bb90abe68a50be9b9181900360200190a150505050505050565b610d776109a1565b610db6576040805162461bcd60e51b81526020600482018190526024820152600080516020611575833981519152604482015290519081900360640190fd5b610dd681610dca858563ffffffff61062416565b9063ffffffff61062416565b61271014610e2b576040805162461bcd60e51b815260206004820152601b60248201527f496e70757473206d7573742061646420757020746f2031303030300000000000604482015290519081900360640190fd5b600792909255600855600955565b6001546001600160a01b0316331480610e5c57506002546001600160a01b031633145b80610e7157506003546001600160a01b031633145b6106225760405162461bcd60e51b81526004018080602001828103825260538152602001806114d06053913960600191505060405180910390fd5b600061067e83836040518060400160405280601e81526020017f536166654d6174683a207375627472616374696f6e206f766572666c6f7700008152506112d7565b600c54604080516370a0823160e01b815230600482015290516000926001600160a01b0316916370a08231916024808301926020929190829003018186803b158015610f3957600080fd5b505afa158015610f4d573d6000803e3d6000fd5b505050506040513d6020811015610f6357600080fd5b5051600c54600a54604080516363737ac960e11b81526004810192909252519293506000926001600160a01b039092169163c6e6f59291602480820192602092909190829003018186803b158015610fba57600080fd5b505afa158015610fce573d6000803e3d6000fd5b505050506040513d6020811015610fe457600080fd5b50519050808211156111d0576007548183039060009061101c906110108461271063ffffffff61136e16565b9063ffffffff6113b016565b9050600061103b6007546110106127108661136e90919063ffffffff16565b9050600061105a6007546110106127108761136e90919063ffffffff16565b600c546006546040805163a9059cbb60e01b81526001600160a01b03928316600482015260248101859052905193945091169163a9059cbb916044808201926020929091908290030181600087803b1580156110b557600080fd5b505af11580156110c9573d6000803e3d6000fd5b505050506040513d60208110156110df57600080fd5b5050600c546005546040805163a9059cbb60e01b81526001600160a01b039283166004820152602481018690529051919092169163a9059cbb9160448083019260209291908290030181600087803b15801561113a57600080fd5b505af115801561114e573d6000803e3d6000fd5b505050506040513d602081101561116457600080fd5b5050600d5460408051634008626360e01b81526004810186905290516001600160a01b039092169163400862639160248082019260009290919082900301818387803b1580156111b357600080fd5b505af11580156111c7573d6000803e3d6000fd5b50505050505050505b5050565b600080546040516001600160a01b03909116907f8be0079c531659141344cd1fd0a4f28419497f9722a3daafe3b4186f6b6457e0908390a3600080546001600160a01b0319169055565b6001546001600160a01b031633148061124157506002546001600160a01b031633145b6106225760405162461bcd60e51b815260040180806020018281038252604181526020018061146f6041913960600191505060405180910390fd5b6001600160a01b03811661070b576040805162461bcd60e51b815260206004820152601e60248201527f4163636f756e742063616e6e6f74206265207a65726f20616464726573730000604482015290519081900360640190fd5b600081848411156113665760405162461bcd60e51b81526004018080602001828103825283818151815260200191508051906020019080838360005b8381101561132b578181015183820152602001611313565b50505050905090810190601f1680156113585780820380516001836020036101000a031916815260200191505b509250505060405180910390fd5b505050900390565b600061067e83836040518060400160405280601a81526020017f536166654d6174683a206469766973696f6e206279207a65726f000000000000815250611409565b6000826113bf57506000610681565b828202828482816113cc57fe5b041461067e5760405162461bcd60e51b81526004018080602001828103825260218152602001806115546021913960400191505060405180910390fd5b600081836114585760405162461bcd60e51b815260206004820181815283516024840152835190928392604490910191908501908083836000831561132b578181015183820152602001611313565b50600083858161146457fe5b049594505050505056fe416374697665506f6f6c3a2043616c6c6572206973206e65697468657220426f72726f7765724f7065726174696f6e73206e6f722054726f76654d616e61676572ca232b5abb988c540b959ff6c3bfae3e97fff964fd098c508f9613c0a6bf1a80416374697665506f6f6c3a2043616c6c6572206973206e65697468657220426f72726f7765724f7065726174696f6e73206e6f722054726f76654d616e61676572206e6f722053746162696c697479506f6f6c416374697665506f6f6c3a2043616c6c6572206973206e65697468657220424f206e6f722044656661756c7420506f6f6c536166654d6174683a206d756c7469706c69636174696f6e206f766572666c6f774f776e61626c653a2063616c6c6572206973206e6f7420746865206f776e6572a264697066735822122093f63d5c87d047364c30978c770f9281b6fa7616dabf4fe994732676822d4a5564736f6c634300060b0033",
  "linkReferences": {},
  "deployedLinkReferences": {}
}