{
  "_format": "hh-sol-artifact-1",
  "contractName": "ActivePoolTester",
  "sourceName": "contracts/TestContracts/ActivePoolTester.sol",
  "abi": [
    {
      "anonymous": false,
      "inputs": [
        {
          "indexed": false,
          "internalType": "address",
          "name": "_newActivePoolAddress",
          "type": "address"
        }
      ],
      "name": "ActivePoolAddressChanged",
      "type": "event"
    },
    {
      "anonymous": false,
      "inputs": [
        {
          "indexed": false,
          "internalType": "uint256",
          "name": "_ETH",
          "type": "uint256"
        }
      ],
      "name": "ActivePoolETHBalanceUpdated",
      "type": "event"
    },
    {
      "anonymous": false,
      "inputs": [
        {
          "indexed": false,
          "internalType": "uint256",
          "name": "_LUSDDebt",
          "type": "uint256"
        }
      ],
      "name": "ActivePoolLUSDDebtUpdated",
      "type": "event"
    },
    {
      "anonymous": false,
      "inputs": [
        {
          "indexed": false,
          "internalType": "address",
          "name": "_newBorrowerOperationsAddress",
          "type": "address"
        }
      ],
      "name": "BorrowerOperationsAddressChanged",
      "type": "event"
    },
    {
      "anonymous": false,
      "inputs": [
        {
          "indexed": false,
          "internalType": "address",
          "name": "_newDefaultPoolAddress",
          "type": "address"
        }
      ],
      "name": "DefaultPoolAddressChanged",
      "type": "event"
    },
    {
      "anonymous": false,
      "inputs": [
        {
          "indexed": false,
          "internalType": "uint256",
          "name": "_newBalance",
          "type": "uint256"
        }
      ],
      "name": "ETHBalanceUpdated",
      "type": "event"
    },
    {
      "anonymous": false,
      "inputs": [
        {
          "indexed": false,
          "internalType": "address",
          "name": "_to",
          "type": "address"
        },
        {
          "indexed": false,
          "internalType": "uint256",
          "name": "_amount",
          "type": "uint256"
        }
      ],
      "name": "EtherSent",
      "type": "event"
    },
    {
      "anonymous": false,
      "inputs": [
        {
          "indexed": false,
          "internalType": "uint256",
          "name": "_newBalance",
          "type": "uint256"
        }
      ],
      "name": "LUSDBalanceUpdated",
      "type": "event"
    },
    {
      "anonymous": false,
      "inputs": [
        {
          "indexed": true,
          "internalType": "address",
          "name": "previousOwner",
          "type": "address"
        },
        {
          "indexed": true,
          "internalType": "address",
          "name": "newOwner",
          "type": "address"
        }
      ],
      "name": "OwnershipTransferred",
      "type": "event"
    },
    {
      "anonymous": false,
      "inputs": [
        {
          "indexed": false,
          "internalType": "address",
          "name": "_newStabilityPoolAddress",
          "type": "address"
        }
      ],
      "name": "StabilityPoolAddressChanged",
      "type": "event"
    },
    {
      "anonymous": false,
      "inputs": [
        {
          "indexed": false,
          "internalType": "address",
          "name": "_newTroveManagerAddress",
          "type": "address"
        }
      ],
      "name": "TroveManagerAddressChanged",
      "type": "event"
    },
    {
      "inputs": [],
      "name": "NAME",
      "outputs": [
        {
          "internalType": "string",
          "name": "",
          "type": "string"
        }
      ],
      "stateMutability": "view",
      "type": "function"
    },
    {
      "inputs": [],
      "name": "borrowerOperationsAddress",
      "outputs": [
        {
          "internalType": "address",
          "name": "",
          "type": "address"
        }
      ],
      "stateMutability": "view",
      "type": "function"
    },
    {
      "inputs": [],
      "name": "checkSTLOSBalance",
      "outputs": [
        {
          "internalType": "uint256",
          "name": "",
          "type": "uint256"
        }
      ],
      "stateMutability": "view",
      "type": "function"
    },
    {
      "inputs": [],
      "name": "checkStakedTLOSToShares",
      "outputs": [
        {
          "internalType": "uint256",
          "name": "",
          "type": "uint256"
        }
      ],
      "stateMutability": "view",
      "type": "function"
    },
    {
      "inputs": [],
      "name": "communityIssuance",
      "outputs": [
        {
          "internalType": "address",
          "name": "",
          "type": "address"
        }
      ],
      "stateMutability": "view",
      "type": "function"
    },
    {
      "inputs": [
        {
          "internalType": "uint256",
          "name": "_amount",
          "type": "uint256"
        }
      ],
      "name": "decreaseLUSDDebt",
      "outputs": [],
      "stateMutability": "nonpayable",
      "type": "function"
    },
    {
      "inputs": [],
      "name": "defaultPoolAddress",
      "outputs": [
        {
          "internalType": "address",
          "name": "",
          "type": "address"
        }
      ],
      "stateMutability": "view",
      "type": "function"
    },
    {
      "inputs": [],
      "name": "getETH",
      "outputs": [
        {
          "internalType": "uint256",
          "name": "",
          "type": "uint256"
        }
      ],
      "stateMutability": "view",
      "type": "function"
    },
    {
      "inputs": [],
      "name": "getLUSDDebt",
      "outputs": [
        {
          "internalType": "uint256",
          "name": "",
          "type": "uint256"
        }
      ],
      "stateMutability": "view",
      "type": "function"
    },
    {
      "inputs": [
        {
          "internalType": "uint256",
          "name": "_amount",
          "type": "uint256"
        }
      ],
      "name": "increaseLUSDDebt",
      "outputs": [],
      "stateMutability": "nonpayable",
      "type": "function"
    },
    {
      "inputs": [],
      "name": "isOwner",
      "outputs": [
        {
          "internalType": "bool",
          "name": "",
          "type": "bool"
        }
      ],
      "stateMutability": "view",
      "type": "function"
    },
    {
      "inputs": [],
      "name": "owner",
      "outputs": [
        {
          "internalType": "address",
          "name": "",
          "type": "address"
        }
      ],
      "stateMutability": "view",
      "type": "function"
    },
    {
      "inputs": [
        {
          "internalType": "address",
          "name": "_account",
          "type": "address"
        },
        {
          "internalType": "uint256",
          "name": "_amount",
          "type": "uint256"
        }
      ],
      "name": "sendETH",
      "outputs": [],
      "stateMutability": "nonpayable",
      "type": "function"
    },
    {
      "inputs": [
        {
          "internalType": "address",
          "name": "_account",
          "type": "address"
        },
        {
          "internalType": "uint256",
          "name": "_amount",
          "type": "uint256"
        }
      ],
      "name": "sendLockedETH",
      "outputs": [],
      "stateMutability": "nonpayable",
      "type": "function"
    },
    {
      "inputs": [
        {
          "internalType": "address",
          "name": "_borrowerOperationsAddress",
          "type": "address"
        },
        {
          "internalType": "address",
          "name": "_troveManagerAddress",
          "type": "address"
        },
        {
          "internalType": "address",
          "name": "_stabilityPoolAddress",
          "type": "address"
        },
        {
          "internalType": "address",
          "name": "_defaultPoolAddress",
          "type": "address"
        },
        {
          "internalType": "address",
          "name": "_communityIssuance",
          "type": "address"
        }
      ],
      "name": "setAddresses",
      "outputs": [],
      "stateMutability": "nonpayable",
      "type": "function"
    },
    {
      "inputs": [],
      "name": "stabilityPoolAddress",
      "outputs": [
        {
          "internalType": "address",
          "name": "",
          "type": "address"
        }
      ],
      "stateMutability": "view",
      "type": "function"
    },
    {
      "inputs": [],
      "name": "stakedTLOS",
      "outputs": [
        {
          "internalType": "contract IStakedTLOS",
          "name": "",
          "type": "address"
        }
      ],
      "stateMutability": "view",
      "type": "function"
    },
    {
      "inputs": [],
      "name": "troveManagerAddress",
      "outputs": [
        {
          "internalType": "address",
          "name": "",
          "type": "address"
        }
      ],
      "stateMutability": "view",
      "type": "function"
    },
    {
      "inputs": [
        {
          "internalType": "uint256",
          "name": "_amount",
          "type": "uint256"
        }
      ],
      "name": "unprotectedIncreaseLUSDDebt",
      "outputs": [],
      "stateMutability": "nonpayable",
      "type": "function"
    },
    {
      "inputs": [],
      "name": "unprotectedPayable",
      "outputs": [],
      "stateMutability": "payable",
      "type": "function"
    },
    {
      "stateMutability": "payable",
      "type": "receive"
    }
  ],
  "bytecode": "0x608060405234801561001057600080fd5b50600080546001600160a01b0319163390811782556040519091907f8be0079c531659141344cd1fd0a4f28419497f9722a3daafe3b4186f6b6457e0908290a3600880546001600160a01b03191673a9991e4daa44922d00a78b6d986cdf628d46c4dd179055611198806100856000396000f3fe6080604052600436106101235760003560e01c80638f32d59b116100a0578063b7f8cf9b11610064578063b7f8cf9b14610466578063cfb9329a1461047b578063dbd6f420146104a5578063e7a0872b146104ba578063f3af7c3b146104f3576101df565b80638f32d59b1461037457806395fb16bb1461039d578063a3f4df7e146103b2578063aac1846f1461043c578063ab58989a14610451576101df565b80635dd68acd116100e75780635dd68acd146102a75780635eb52fca146102fc57806364a197f31461031157806365791a951461034a5780638da5cb5b1461035f576101df565b80630b622ab2146101e457806314f6c3be1461021557806338d995a81461023c57806344a57242146102685780635a4d28bb14610292576101df565b366101df576101306104fb565b600654610143903463ffffffff61055b16565b6006556008546040805163052a38e160e51b815290516001600160a01b039092169163a5471c20913491600480830192602092919082900301818588803b15801561018d57600080fd5b505af11580156101a1573d6000803e3d6000fd5b50505050506040513d60208110156101b857600080fd5b505060065460408051918252516000805160206110bf8339815191529181900360200190a1005b600080fd5b3480156101f057600080fd5b506101f96105bc565b604080516001600160a01b039092168252519081900360200190f35b34801561022157600080fd5b5061022a6105cb565b60408051918252519081900360200190f35b34801561024857600080fd5b506102666004803603602081101561025f57600080fd5b50356105d1565b005b34801561027457600080fd5b506102666004803603602081101561028b57600080fd5b503561062e565b34801561029e57600080fd5b506101f9610647565b3480156102b357600080fd5b50610266600480360360a08110156102ca57600080fd5b506001600160a01b03813581169160208101358216916040820135811691606081013582169160809091013516610656565b34801561030857600080fd5b5061022a61081d565b34801561031d57600080fd5b506102666004803603604081101561033457600080fd5b506001600160a01b038135169060200135610823565b34801561035657600080fd5b5061022a6109b2565b34801561036b57600080fd5b506101f9610a2e565b34801561038057600080fd5b50610389610a3d565b604080519115158252519081900360200190f35b3480156103a957600080fd5b506101f9610a4e565b3480156103be57600080fd5b506103c7610a5d565b6040805160208082528351818301528351919283929083019185019080838360005b838110156104015781810151838201526020016103e9565b50505050905090810190601f16801561042e5780820380516001836020036101000a031916815260200191505b509250505060405180910390f35b34801561044857600080fd5b506101f9610a83565b34801561045d57600080fd5b5061022a610a92565b34801561047257600080fd5b506101f9610ae1565b34801561048757600080fd5b506102666004803603602081101561049e57600080fd5b5035610af0565b3480156104b157600080fd5b506101f9610b0b565b3480156104c657600080fd5b50610266600480360360408110156104dd57600080fd5b506001600160a01b038135169060200135610b1a565b610266610c34565b6001546001600160a01b031633148061051e57506004546001600160a01b031633145b6105595760405162461bcd60e51b81526004018080602001828103825260318152602001806111326031913960400191505060405180910390fd5b565b6000828201838110156105b5576040805162461bcd60e51b815260206004820152601b60248201527f536166654d6174683a206164646974696f6e206f766572666c6f770000000000604482015290519081900360640190fd5b9392505050565b6003546001600160a01b031681565b60065490565b6105d9610c4c565b6007546105ec908263ffffffff610cbf16565b600781905560408051918252517f0d4c964e4ceac5d740869d39789a7b91888a787b9c33e9365b1a658a21ffb6969181900360200190a161062b610d01565b50565b600754610641908263ffffffff61055b16565b60075550565b6002546001600160a01b031681565b61065e610a3d565b6106af576040805162461bcd60e51b815260206004820181905260248201527f4f776e61626c653a2063616c6c6572206973206e6f7420746865206f776e6572604482015290519081900360640190fd5b6106b885610e8f565b6106c184610e8f565b6106ca83610e8f565b6106d382610e8f565b600180546001600160a01b038088166001600160a01b03199283168117909355600280548883169084161790556003805487831690841617905560048054868316908416179055600580549185169190921617905560408051918252517f3ca631ffcd2a9b5d9ae18543fc82f58eb4ca33af9e6ab01b7a8e95331e6ed9859181900360200190a1604080516001600160a01b038616815290517f143219c9e69b09e07e095fcc889b43d8f46ca892bba65f08dc3a0050869a56789181900360200190a1604080516001600160a01b038516815290517f82966d27eea39b038ee0fa30cd16532bb24f6e65d31cb58fb227aa5766cdcc7f9181900360200190a1604080516001600160a01b038416815290517f5ee0cae2f063ed938bb55046f6a932fb6ae792bf43624806bb90abe68a50be9b9181900360200190a1610816610f3e565b5050505050565b60075490565b61082b610c4c565b60065461083e908263ffffffff610cbf16565b600655600854604080516363737ac960e11b81526004810184905290516000926001600160a01b03169163c6e6f592916024808301926020929190829003018186803b15801561088d57600080fd5b505afa1580156108a1573d6000803e3d6000fd5b505050506040513d60208110156108b757600080fd5b50516008546040805163a9059cbb60e01b81526001600160a01b03878116600483015260248201859052915193945091169163a9059cbb916044808201926020929091908290030181600087803b15801561091157600080fd5b505af1158015610925573d6000803e3d6000fd5b505050506040513d602081101561093b57600080fd5b506109469050610d01565b60065460408051918252516000805160206110bf8339815191529181900360200190a1604080516001600160a01b03851681526020810184905281517f6109e2559dfa766aaec7118351d48a523f0a4157f49c8d68749c8ac41318ad12929181900390910190a1505050565b600854604080516370a0823160e01b815230600482015290516000926001600160a01b0316916370a08231916024808301926020929190829003018186803b1580156109fd57600080fd5b505afa158015610a11573d6000803e3d6000fd5b505050506040513d6020811015610a2757600080fd5b5051905090565b6000546001600160a01b031690565b6000546001600160a01b0316331490565b6005546001600160a01b031681565b6040518060400160405280600a8152602001691058dd1a5d99541bdbdb60b21b81525081565b6004546001600160a01b031681565b600854600654604080516363737ac960e11b81526004810192909252516000926001600160a01b03169163c6e6f592916024808301926020929190829003018186803b1580156109fd57600080fd5b6001546001600160a01b031681565b610af8610f88565b6007546105ec908263ffffffff61055b16565b6008546001600160a01b031681565b610b22610c4c565b600654610b35908263ffffffff610cbf16565b60065560085460408051632d182be560e21b8152600481018490526001600160a01b0385811660248301523060448301529151919092169163b460af949160648083019260209291908290030181600087803b158015610b9457600080fd5b505af1158015610ba8573d6000803e3d6000fd5b505050506040513d6020811015610bbe57600080fd5b50610bc99050610d01565b60065460408051918252516000805160206110bf8339815191529181900360200190a1604080516001600160a01b03841681526020810183905281517f6109e2559dfa766aaec7118351d48a523f0a4157f49c8d68749c8ac41318ad12929181900390910190a15050565b600654610c47903463ffffffff61055b16565b600655565b6001546001600160a01b0316331480610c6f57506002546001600160a01b031633145b80610c8457506003546001600160a01b031633145b6105595760405162461bcd60e51b81526004018080602001828103825260538152602001806110df6053913960600191505060405180910390fd5b60006105b583836040518060400160405280601e81526020017f536166654d6174683a207375627472616374696f6e206f766572666c6f770000815250610fe6565b600854604080516370a0823160e01b815230600482015290516000926001600160a01b0316916370a08231916024808301926020929190829003018186803b158015610d4c57600080fd5b505afa158015610d60573d6000803e3d6000fd5b505050506040513d6020811015610d7657600080fd5b5051600854600654604080516363737ac960e11b81526004810192909252519293506000926001600160a01b039092169163c6e6f59291602480820192602092909190829003018186803b158015610dcd57600080fd5b505afa158015610de1573d6000803e3d6000fd5b505050506040513d6020811015610df757600080fd5b5051905080821115610e8b576008546005546040805163a9059cbb60e01b81526001600160a01b0392831660048201528486036024820181905291519193929092169163a9059cbb9160448083019260209291908290030181600087803b158015610e6157600080fd5b505af1158015610e75573d6000803e3d6000fd5b505050506040513d602081101561081657600080fd5b5050565b6001600160a01b038116610eea576040805162461bcd60e51b815260206004820152601e60248201527f4163636f756e742063616e6e6f74206265207a65726f20616464726573730000604482015290519081900360640190fd5b803b80610e8b576040805162461bcd60e51b815260206004820181905260248201527f4163636f756e7420636f64652073697a652063616e6e6f74206265207a65726f604482015290519081900360640190fd5b600080546040516001600160a01b03909116907f8be0079c531659141344cd1fd0a4f28419497f9722a3daafe3b4186f6b6457e0908390a3600080546001600160a01b0319169055565b6001546001600160a01b0316331480610fab57506002546001600160a01b031633145b6105595760405162461bcd60e51b815260040180806020018281038252604181526020018061107e6041913960600191505060405180910390fd5b600081848411156110755760405162461bcd60e51b81526004018080602001828103825283818151815260200191508051906020019080838360005b8381101561103a578181015183820152602001611022565b50505050905090810190601f1680156110675780820380516001836020036101000a031916815260200191505b509250505060405180910390fd5b50505090039056fe416374697665506f6f6c3a2043616c6c6572206973206e65697468657220426f72726f7765724f7065726174696f6e73206e6f722054726f76654d616e61676572ca232b5abb988c540b959ff6c3bfae3e97fff964fd098c508f9613c0a6bf1a80416374697665506f6f6c3a2043616c6c6572206973206e65697468657220426f72726f7765724f7065726174696f6e73206e6f722054726f76654d616e61676572206e6f722053746162696c697479506f6f6c416374697665506f6f6c3a2043616c6c6572206973206e65697468657220424f206e6f722044656661756c7420506f6f6ca2646970667358221220688b1670749062a45bdb23e1c8c3ae0e25793a5eee47175a61c455f65b46200164736f6c634300060b0033",
  "linkReferences": {},
  "deployedLinkReferences": {}
}