{
  "_format": "hh-sol-artifact-1",
  "contractName": "ActivePoolTester",
  "sourceName": "contracts/TestContracts/ActivePoolTester.sol",
  "abi": [
    {
      "anonymous": false,
      "inputs": [
        {
          "indexed": false,
          "internalType": "address",
          "name": "_newActivePoolAddress",
          "type": "address"
        }
      ],
      "name": "ActivePoolAddressChanged",
      "type": "event"
    },
    {
      "anonymous": false,
      "inputs": [
        {
          "indexed": false,
          "internalType": "uint256",
          "name": "_ETH",
          "type": "uint256"
        }
      ],
      "name": "ActivePoolETHBalanceUpdated",
      "type": "event"
    },
    {
      "anonymous": false,
      "inputs": [
        {
          "indexed": false,
          "internalType": "uint256",
          "name": "_LUSDDebt",
          "type": "uint256"
        }
      ],
      "name": "ActivePoolLUSDDebtUpdated",
      "type": "event"
    },
    {
      "anonymous": false,
      "inputs": [
        {
          "indexed": false,
          "internalType": "address",
          "name": "_newBorrowerOperationsAddress",
          "type": "address"
        }
      ],
      "name": "BorrowerOperationsAddressChanged",
      "type": "event"
    },
    {
      "anonymous": false,
      "inputs": [
        {
          "indexed": false,
          "internalType": "address",
          "name": "_newDefaultPoolAddress",
          "type": "address"
        }
      ],
      "name": "DefaultPoolAddressChanged",
      "type": "event"
    },
    {
      "anonymous": false,
      "inputs": [
        {
          "indexed": false,
          "internalType": "uint256",
          "name": "_newBalance",
          "type": "uint256"
        }
      ],
      "name": "ETHBalanceUpdated",
      "type": "event"
    },
    {
      "anonymous": false,
      "inputs": [
        {
          "indexed": false,
          "internalType": "address",
          "name": "_to",
          "type": "address"
        },
        {
          "indexed": false,
          "internalType": "uint256",
          "name": "_amount",
          "type": "uint256"
        }
      ],
      "name": "EtherSent",
      "type": "event"
    },
    {
      "anonymous": false,
      "inputs": [
        {
          "indexed": false,
          "internalType": "uint256",
          "name": "_newBalance",
          "type": "uint256"
        }
      ],
      "name": "LUSDBalanceUpdated",
      "type": "event"
    },
    {
      "anonymous": false,
      "inputs": [
        {
          "indexed": true,
          "internalType": "address",
          "name": "previousOwner",
          "type": "address"
        },
        {
          "indexed": true,
          "internalType": "address",
          "name": "newOwner",
          "type": "address"
        }
      ],
      "name": "OwnershipTransferred",
      "type": "event"
    },
    {
      "anonymous": false,
      "inputs": [
        {
          "indexed": false,
          "internalType": "address",
          "name": "_newStabilityPoolAddress",
          "type": "address"
        }
      ],
      "name": "StabilityPoolAddressChanged",
      "type": "event"
    },
    {
      "anonymous": false,
      "inputs": [
        {
          "indexed": false,
          "internalType": "address",
          "name": "_newTroveManagerAddress",
          "type": "address"
        }
      ],
      "name": "TroveManagerAddressChanged",
      "type": "event"
    },
    {
      "inputs": [],
      "name": "NAME",
      "outputs": [
        {
          "internalType": "string",
          "name": "",
          "type": "string"
        }
      ],
      "stateMutability": "view",
      "type": "function"
    },
    {
      "inputs": [],
      "name": "borrowerOperationsAddress",
      "outputs": [
        {
          "internalType": "address",
          "name": "",
          "type": "address"
        }
      ],
      "stateMutability": "view",
      "type": "function"
    },
    {
      "inputs": [],
      "name": "borrowerRewards",
      "outputs": [
        {
          "internalType": "contract IBorrowerRewards",
          "name": "",
          "type": "address"
        }
      ],
      "stateMutability": "view",
      "type": "function"
    },
    {
      "inputs": [],
      "name": "borrowerRewardsFactor",
      "outputs": [
        {
          "internalType": "uint256",
          "name": "",
          "type": "uint256"
        }
      ],
      "stateMutability": "view",
      "type": "function"
    },
    {
      "inputs": [],
      "name": "checkSTLOSBalance",
      "outputs": [
        {
          "internalType": "uint256",
          "name": "",
          "type": "uint256"
        }
      ],
      "stateMutability": "view",
      "type": "function"
    },
    {
      "inputs": [],
      "name": "checkStakedTLOSToShares",
      "outputs": [
        {
          "internalType": "uint256",
          "name": "",
          "type": "uint256"
        }
      ],
      "stateMutability": "view",
      "type": "function"
    },
    {
      "inputs": [],
      "name": "communityIssuance",
      "outputs": [
        {
          "internalType": "address",
          "name": "",
          "type": "address"
        }
      ],
      "stateMutability": "view",
      "type": "function"
    },
    {
      "inputs": [
        {
          "internalType": "uint256",
          "name": "_amount",
          "type": "uint256"
        }
      ],
      "name": "decreaseLUSDDebt",
      "outputs": [],
      "stateMutability": "nonpayable",
      "type": "function"
    },
    {
      "inputs": [],
      "name": "defaultPoolAddress",
      "outputs": [
        {
          "internalType": "address",
          "name": "",
          "type": "address"
        }
      ],
      "stateMutability": "view",
      "type": "function"
    },
    {
      "inputs": [],
      "name": "devAddress",
      "outputs": [
        {
          "internalType": "address",
          "name": "",
          "type": "address"
        }
      ],
      "stateMutability": "view",
      "type": "function"
    },
    {
      "inputs": [],
      "name": "getETH",
      "outputs": [
        {
          "internalType": "uint256",
          "name": "",
          "type": "uint256"
        }
      ],
      "stateMutability": "view",
      "type": "function"
    },
    {
      "inputs": [],
      "name": "getLUSDDebt",
      "outputs": [
        {
          "internalType": "uint256",
          "name": "",
          "type": "uint256"
        }
      ],
      "stateMutability": "view",
      "type": "function"
    },
    {
      "inputs": [
        {
          "internalType": "uint256",
          "name": "_amount",
          "type": "uint256"
        }
      ],
      "name": "increaseLUSDDebt",
      "outputs": [],
      "stateMutability": "nonpayable",
      "type": "function"
    },
    {
      "inputs": [],
      "name": "isOwner",
      "outputs": [
        {
          "internalType": "bool",
          "name": "",
          "type": "bool"
        }
      ],
      "stateMutability": "view",
      "type": "function"
    },
    {
      "inputs": [],
      "name": "owner",
      "outputs": [
        {
          "internalType": "address",
          "name": "",
          "type": "address"
        }
      ],
      "stateMutability": "view",
      "type": "function"
    },
    {
      "inputs": [],
      "name": "protocolFeeFactor",
      "outputs": [
        {
          "internalType": "uint256",
          "name": "",
          "type": "uint256"
        }
      ],
      "stateMutability": "view",
      "type": "function"
    },
    {
      "inputs": [],
      "name": "renounceOwnership",
      "outputs": [],
      "stateMutability": "nonpayable",
      "type": "function"
    },
    {
      "inputs": [
        {
          "internalType": "address",
          "name": "_account",
          "type": "address"
        },
        {
          "internalType": "uint256",
          "name": "_amount",
          "type": "uint256"
        }
      ],
      "name": "sendETH",
      "outputs": [],
      "stateMutability": "nonpayable",
      "type": "function"
    },
    {
      "inputs": [
        {
          "internalType": "address",
          "name": "_account",
          "type": "address"
        },
        {
          "internalType": "uint256",
          "name": "_amount",
          "type": "uint256"
        }
      ],
      "name": "sendLockedETH",
      "outputs": [],
      "stateMutability": "nonpayable",
      "type": "function"
    },
    {
      "inputs": [
        {
          "internalType": "address",
          "name": "_borrowerOperationsAddress",
          "type": "address"
        },
        {
          "internalType": "address",
          "name": "_troveManagerAddress",
          "type": "address"
        },
        {
          "internalType": "address",
          "name": "_stabilityPoolAddress",
          "type": "address"
        },
        {
          "internalType": "address",
          "name": "_defaultPoolAddress",
          "type": "address"
        },
        {
          "internalType": "address",
          "name": "_communityIssuance",
          "type": "address"
        },
        {
          "internalType": "address",
          "name": "_borrowerRewards",
          "type": "address"
        },
        {
          "internalType": "address",
          "name": "_devAddress",
          "type": "address"
        }
      ],
      "name": "setAddresses",
      "outputs": [],
      "stateMutability": "nonpayable",
      "type": "function"
    },
    {
      "inputs": [
        {
          "internalType": "uint256",
          "name": "_borrowerRewardsFactor",
          "type": "uint256"
        },
        {
          "internalType": "uint256",
          "name": "_stabilityPoolRewardsFactor",
          "type": "uint256"
        },
        {
          "internalType": "uint256",
          "name": "_protocolFeeFactor",
          "type": "uint256"
        }
      ],
      "name": "setRewardsDistribution",
      "outputs": [],
      "stateMutability": "nonpayable",
      "type": "function"
    },
    {
      "inputs": [],
      "name": "stabilityPoolAddress",
      "outputs": [
        {
          "internalType": "address",
          "name": "",
          "type": "address"
        }
      ],
      "stateMutability": "view",
      "type": "function"
    },
    {
      "inputs": [],
      "name": "stabilityPoolRewardsFactor",
      "outputs": [
        {
          "internalType": "uint256",
          "name": "",
          "type": "uint256"
        }
      ],
      "stateMutability": "view",
      "type": "function"
    },
    {
      "inputs": [],
      "name": "stakedTLOS",
      "outputs": [
        {
          "internalType": "contract IStakedTLOS",
          "name": "",
          "type": "address"
        }
      ],
      "stateMutability": "view",
      "type": "function"
    },
    {
      "inputs": [],
      "name": "troveManagerAddress",
      "outputs": [
        {
          "internalType": "address",
          "name": "",
          "type": "address"
        }
      ],
      "stateMutability": "view",
      "type": "function"
    },
    {
      "inputs": [
        {
          "internalType": "uint256",
          "name": "_amount",
          "type": "uint256"
        }
      ],
      "name": "unprotectedIncreaseLUSDDebt",
      "outputs": [],
      "stateMutability": "nonpayable",
      "type": "function"
    },
    {
      "inputs": [],
      "name": "unprotectedPayable",
      "outputs": [],
      "stateMutability": "payable",
      "type": "function"
    },
    {
      "stateMutability": "payable",
      "type": "receive"
    }
  ],
  "bytecode": "0x608060405234801561001057600080fd5b50600080546001600160a01b0319163390811782556040519091907f8be0079c531659141344cd1fd0a4f28419497f9722a3daafe3b4186f6b6457e0908290a3600c80546001600160a01b03191673a9991e4daa44922d00a78b6d986cdf628d46c4dd179055611643806100856000396000f3fe6080604052600436106101705760003560e01c80638da5cb5b116100cc578063cfb9329a1161007a578063cfb9329a146104dc578063dbd6f42014610506578063e7a0872b1461051b578063e94f0cdd14610554578063eaa8ba7f14610569578063ec930111146105ce578063f3af7c3b146106045761022c565b80638da5cb5b146103c05780638f32d59b146103d557806395fb16bb146103fe578063a3f4df7e14610413578063aac1846f1461049d578063ab58989a146104b2578063b7f8cf9b146104c75761022c565b806344a572421161012957806344a57242146102f45780635a4d28bb1461031e5780635eb52fca1461033357806364a197f31461034857806365791a9514610381578063715018a6146103965780637b67bc91146103ab5761022c565b80630b622ab21461023157806311e3bdde1461026257806314f6c3be1461028957806319b224c11461029e57806338d995a8146102b35780633ad10ef6146102df5761022c565b3661022c5761017d61060c565b600a54610190903463ffffffff61066c16565b600a55600c546040805163052a38e160e51b815290516001600160a01b039092169163a5471c20913491600480830192602092919082900301818588803b1580156101da57600080fd5b505af11580156101ee573d6000803e3d6000fd5b50505050506040513d602081101561020557600080fd5b5050600a5460408051918252516000805160206115298339815191529181900360200190a1005b600080fd5b34801561023d57600080fd5b506102466106cf565b604080516001600160a01b039092168252519081900360200190f35b34801561026e57600080fd5b506102776106de565b60408051918252519081900360200190f35b34801561029557600080fd5b506102776106e4565b3480156102aa57600080fd5b506102466106ea565b3480156102bf57600080fd5b506102dd600480360360208110156102d657600080fd5b50356106f9565b005b3480156102eb57600080fd5b50610246610756565b34801561030057600080fd5b506102dd6004803603602081101561031757600080fd5b5035610765565b34801561032a57600080fd5b5061024661077e565b34801561033f57600080fd5b5061027761078d565b34801561035457600080fd5b506102dd6004803603604081101561036b57600080fd5b506001600160a01b038135169060200135610793565b34801561038d57600080fd5b50610277610922565b3480156103a257600080fd5b506102dd61099e565b3480156103b757600080fd5b506102776109ed565b3480156103cc57600080fd5b506102466109f3565b3480156103e157600080fd5b506103ea610a02565b604080519115158252519081900360200190f35b34801561040a57600080fd5b50610246610a13565b34801561041f57600080fd5b50610428610a22565b6040805160208082528351818301528351919283929083019185019080838360005b8381101561046257818101518382015260200161044a565b50505050905090810190601f16801561048f5780820380516001836020036101000a031916815260200191505b509250505060405180910390f35b3480156104a957600080fd5b50610246610a48565b3480156104be57600080fd5b50610277610a57565b3480156104d357600080fd5b50610246610aa6565b3480156104e857600080fd5b506102dd600480360360208110156104ff57600080fd5b5035610ab5565b34801561051257600080fd5b50610246610ad0565b34801561052757600080fd5b506102dd6004803603604081101561053e57600080fd5b506001600160a01b038135169060200135610adf565b34801561056057600080fd5b50610277610bf9565b34801561057557600080fd5b506102dd600480360360e081101561058c57600080fd5b506001600160a01b038135811691602081013582169160408201358116916060810135821691608082013581169160a081013582169160c09091013516610bff565b3480156105da57600080fd5b506102dd600480360360608110156105f157600080fd5b5080359060208101359060400135610dd0565b6102dd610e9a565b6001546001600160a01b031633148061062f57506004546001600160a01b031633145b61066a5760405162461bcd60e51b815260040180806020018281038252603181526020018061159c6031913960400191505060405180910390fd5b565b6000828201838110156106c6576040805162461bcd60e51b815260206004820152601b60248201527f536166654d6174683a206164646974696f6e206f766572666c6f770000000000604482015290519081900360640190fd5b90505b92915050565b6003546001600160a01b031681565b60095481565b600a5490565b600d546001600160a01b031681565b610701610eb2565b600b54610714908263ffffffff610f2516565b600b81905560408051918252517f0d4c964e4ceac5d740869d39789a7b91888a787b9c33e9365b1a658a21ffb6969181900360200190a1610753610f67565b50565b6006546001600160a01b031681565b600b54610778908263ffffffff61066c16565b600b5550565b6002546001600160a01b031681565b600b5490565b61079b610eb2565b600a546107ae908263ffffffff610f2516565b600a55600c54604080516363737ac960e11b81526004810184905290516000926001600160a01b03169163c6e6f592916024808301926020929190829003018186803b1580156107fd57600080fd5b505afa158015610811573d6000803e3d6000fd5b505050506040513d602081101561082757600080fd5b5051600c546040805163a9059cbb60e01b81526001600160a01b03878116600483015260248201859052915193945091169163a9059cbb916044808201926020929091908290030181600087803b15801561088157600080fd5b505af1158015610895573d6000803e3d6000fd5b505050506040513d60208110156108ab57600080fd5b506108b69050610f67565b600a5460408051918252516000805160206115298339815191529181900360200190a1604080516001600160a01b03851681526020810184905281517f6109e2559dfa766aaec7118351d48a523f0a4157f49c8d68749c8ac41318ad12929181900390910190a1505050565b600c54604080516370a0823160e01b815230600482015290516000926001600160a01b0316916370a08231916024808301926020929190829003018186803b15801561096d57600080fd5b505afa158015610981573d6000803e3d6000fd5b505050506040513d602081101561099757600080fd5b5051905090565b6109a6610a02565b6109e5576040805162461bcd60e51b815260206004820181905260248201526000805160206115ee833981519152604482015290519081900360640190fd5b61066a61124d565b60075481565b6000546001600160a01b031690565b6000546001600160a01b0316331490565b6005546001600160a01b031681565b6040518060400160405280600a8152602001691058dd1a5d99541bdbdb60b21b81525081565b6004546001600160a01b031681565b600c54600a54604080516363737ac960e11b81526004810192909252516000926001600160a01b03169163c6e6f592916024808301926020929190829003018186803b15801561096d57600080fd5b6001546001600160a01b031681565b610abd611297565b600b54610714908263ffffffff61066c16565b600c546001600160a01b031681565b610ae7610eb2565b600a54610afa908263ffffffff610f2516565b600a55600c5460408051632d182be560e21b8152600481018490526001600160a01b0385811660248301523060448301529151919092169163b460af949160648083019260209291908290030181600087803b158015610b5957600080fd5b505af1158015610b6d573d6000803e3d6000fd5b505050506040513d6020811015610b8357600080fd5b50610b8e9050610f67565b600a5460408051918252516000805160206115298339815191529181900360200190a1604080516001600160a01b03841681526020810183905281517f6109e2559dfa766aaec7118351d48a523f0a4157f49c8d68749c8ac41318ad12929181900390910190a15050565b60085481565b610c07610a02565b610c46576040805162461bcd60e51b815260206004820181905260248201526000805160206115ee833981519152604482015290519081900360640190fd5b610c4f876112f5565b610c58866112f5565b610c61856112f5565b610c6a846112f5565b610c73826112f5565b600180546001600160a01b03199081166001600160a01b038a81169182179093556002805483168a8516179055600380548316898516179055600480548316888516179055600580548316878516179055600680548316858516179055600d805490921692851692909217905560408051918252517f3ca631ffcd2a9b5d9ae18543fc82f58eb4ca33af9e6ab01b7a8e95331e6ed985916020908290030190a1604080516001600160a01b038816815290517f143219c9e69b09e07e095fcc889b43d8f46ca892bba65f08dc3a0050869a56789181900360200190a1604080516001600160a01b038716815290517f82966d27eea39b038ee0fa30cd16532bb24f6e65d31cb58fb227aa5766cdcc7f9181900360200190a1604080516001600160a01b038616815290517f5ee0cae2f063ed938bb55046f6a932fb6ae792bf43624806bb90abe68a50be9b9181900360200190a150505050505050565b610dd8610a02565b610e17576040805162461bcd60e51b815260206004820181905260248201526000805160206115ee833981519152604482015290519081900360640190fd5b610e3781610e2b858563ffffffff61066c16565b9063ffffffff61066c16565b61271014610e8c576040805162461bcd60e51b815260206004820152601b60248201527f496e70757473206d7573742061646420757020746f2031303030300000000000604482015290519081900360640190fd5b600792909255600855600955565b600a54610ead903463ffffffff61066c16565b600a55565b6001546001600160a01b0316331480610ed557506002546001600160a01b031633145b80610eea57506003546001600160a01b031633145b61066a5760405162461bcd60e51b81526004018080602001828103825260538152602001806115496053913960600191505060405180910390fd5b60006106c683836040518060400160405280601e81526020017f536166654d6174683a207375627472616374696f6e206f766572666c6f770000815250611350565b600c54604080516370a0823160e01b815230600482015290516000926001600160a01b0316916370a08231916024808301926020929190829003018186803b158015610fb257600080fd5b505afa158015610fc6573d6000803e3d6000fd5b505050506040513d6020811015610fdc57600080fd5b5051600c54600a54604080516363737ac960e11b81526004810192909252519293506000926001600160a01b039092169163c6e6f59291602480820192602092909190829003018186803b15801561103357600080fd5b505afa158015611047573d6000803e3d6000fd5b505050506040513d602081101561105d57600080fd5b50519050808211156112495760075481830390600090611095906110898461271063ffffffff6113e716565b9063ffffffff61142916565b905060006110b4600754611089612710866113e790919063ffffffff16565b905060006110d3600754611089612710876113e790919063ffffffff16565b600c546006546040805163a9059cbb60e01b81526001600160a01b03928316600482015260248101859052905193945091169163a9059cbb916044808201926020929091908290030181600087803b15801561112e57600080fd5b505af1158015611142573d6000803e3d6000fd5b505050506040513d602081101561115857600080fd5b5050600c546005546040805163a9059cbb60e01b81526001600160a01b039283166004820152602481018690529051919092169163a9059cbb9160448083019260209291908290030181600087803b1580156111b357600080fd5b505af11580156111c7573d6000803e3d6000fd5b505050506040513d60208110156111dd57600080fd5b5050600d5460408051634008626360e01b81526004810186905290516001600160a01b039092169163400862639160248082019260009290919082900301818387803b15801561122c57600080fd5b505af1158015611240573d6000803e3d6000fd5b50505050505050505b5050565b600080546040516001600160a01b03909116907f8be0079c531659141344cd1fd0a4f28419497f9722a3daafe3b4186f6b6457e0908390a3600080546001600160a01b0319169055565b6001546001600160a01b03163314806112ba57506002546001600160a01b031633145b61066a5760405162461bcd60e51b81526004018080602001828103825260418152602001806114e86041913960600191505060405180910390fd5b6001600160a01b038116610753576040805162461bcd60e51b815260206004820152601e60248201527f4163636f756e742063616e6e6f74206265207a65726f20616464726573730000604482015290519081900360640190fd5b600081848411156113df5760405162461bcd60e51b81526004018080602001828103825283818151815260200191508051906020019080838360005b838110156113a457818101518382015260200161138c565b50505050905090810190601f1680156113d15780820380516001836020036101000a031916815260200191505b509250505060405180910390fd5b505050900390565b60006106c683836040518060400160405280601a81526020017f536166654d6174683a206469766973696f6e206279207a65726f000000000000815250611482565b600082611438575060006106c9565b8282028284828161144557fe5b04146106c65760405162461bcd60e51b81526004018080602001828103825260218152602001806115cd6021913960400191505060405180910390fd5b600081836114d15760405162461bcd60e51b81526020600482018181528351602484015283519092839260449091019190850190808383600083156113a457818101518382015260200161138c565b5060008385816114dd57fe5b049594505050505056fe416374697665506f6f6c3a2043616c6c6572206973206e65697468657220426f72726f7765724f7065726174696f6e73206e6f722054726f76654d616e61676572ca232b5abb988c540b959ff6c3bfae3e97fff964fd098c508f9613c0a6bf1a80416374697665506f6f6c3a2043616c6c6572206973206e65697468657220426f72726f7765724f7065726174696f6e73206e6f722054726f76654d616e61676572206e6f722053746162696c697479506f6f6c416374697665506f6f6c3a2043616c6c6572206973206e65697468657220424f206e6f722044656661756c7420506f6f6c536166654d6174683a206d756c7469706c69636174696f6e206f766572666c6f774f776e61626c653a2063616c6c6572206973206e6f7420746865206f776e6572a26469706673582212200a7ee26364003e24b293077a374df6f0b85ac61d02f46e2d952eb8bf7e104cdc64736f6c634300060b0033",
  "linkReferences": {},
  "deployedLinkReferences": {}
}