{
  "_format": "hh-sol-artifact-1",
  "contractName": "ActivePool",
  "sourceName": "contracts/ActivePool.sol",
  "abi": [
    {
      "inputs": [],
      "stateMutability": "nonpayable",
      "type": "constructor"
    },
    {
      "anonymous": false,
      "inputs": [
        {
          "indexed": false,
          "internalType": "address",
          "name": "_newActivePoolAddress",
          "type": "address"
        }
      ],
      "name": "ActivePoolAddressChanged",
      "type": "event"
    },
    {
      "anonymous": false,
      "inputs": [
        {
          "indexed": false,
          "internalType": "uint256",
          "name": "_ETH",
          "type": "uint256"
        }
      ],
      "name": "ActivePoolETHBalanceUpdated",
      "type": "event"
    },
    {
      "anonymous": false,
      "inputs": [
        {
          "indexed": false,
          "internalType": "uint256",
          "name": "_LUSDDebt",
          "type": "uint256"
        }
      ],
      "name": "ActivePoolLUSDDebtUpdated",
      "type": "event"
    },
    {
      "anonymous": false,
      "inputs": [
        {
          "indexed": false,
          "internalType": "address",
          "name": "_newBorrowerOperationsAddress",
          "type": "address"
        }
      ],
      "name": "BorrowerOperationsAddressChanged",
      "type": "event"
    },
    {
      "anonymous": false,
      "inputs": [
        {
          "indexed": false,
          "internalType": "address",
          "name": "_newDefaultPoolAddress",
          "type": "address"
        }
      ],
      "name": "DefaultPoolAddressChanged",
      "type": "event"
    },
    {
      "anonymous": false,
      "inputs": [
        {
          "indexed": false,
          "internalType": "uint256",
          "name": "_newBalance",
          "type": "uint256"
        }
      ],
      "name": "ETHBalanceUpdated",
      "type": "event"
    },
    {
      "anonymous": false,
      "inputs": [
        {
          "indexed": false,
          "internalType": "address",
          "name": "_to",
          "type": "address"
        },
        {
          "indexed": false,
          "internalType": "uint256",
          "name": "_amount",
          "type": "uint256"
        }
      ],
      "name": "EtherSent",
      "type": "event"
    },
    {
      "anonymous": false,
      "inputs": [
        {
          "indexed": false,
          "internalType": "uint256",
          "name": "_newBalance",
          "type": "uint256"
        }
      ],
      "name": "LUSDBalanceUpdated",
      "type": "event"
    },
    {
      "anonymous": false,
      "inputs": [
        {
          "indexed": true,
          "internalType": "address",
          "name": "previousOwner",
          "type": "address"
        },
        {
          "indexed": true,
          "internalType": "address",
          "name": "newOwner",
          "type": "address"
        }
      ],
      "name": "OwnershipTransferred",
      "type": "event"
    },
    {
      "anonymous": false,
      "inputs": [
        {
          "indexed": false,
          "internalType": "address",
          "name": "_newStabilityPoolAddress",
          "type": "address"
        }
      ],
      "name": "StabilityPoolAddressChanged",
      "type": "event"
    },
    {
      "anonymous": false,
      "inputs": [
        {
          "indexed": false,
          "internalType": "address",
          "name": "_newTroveManagerAddress",
          "type": "address"
        }
      ],
      "name": "TroveManagerAddressChanged",
      "type": "event"
    },
    {
      "inputs": [],
      "name": "NAME",
      "outputs": [
        {
          "internalType": "string",
          "name": "",
          "type": "string"
        }
      ],
      "stateMutability": "view",
      "type": "function"
    },
    {
      "inputs": [
        {
          "internalType": "uint256",
          "name": "amount",
          "type": "uint256"
        }
      ],
      "name": "TransferCI",
      "outputs": [],
      "stateMutability": "nonpayable",
      "type": "function"
    },
    {
      "inputs": [],
      "name": "borrowerOperationsAddress",
      "outputs": [
        {
          "internalType": "address",
          "name": "",
          "type": "address"
        }
      ],
      "stateMutability": "view",
      "type": "function"
    },
    {
      "inputs": [],
      "name": "checkSTLOSBalance",
      "outputs": [
        {
          "internalType": "uint256",
          "name": "",
          "type": "uint256"
        }
      ],
      "stateMutability": "view",
      "type": "function"
    },
    {
      "inputs": [],
      "name": "checkStakedTLOSToShares",
      "outputs": [
        {
          "internalType": "uint256",
          "name": "",
          "type": "uint256"
        }
      ],
      "stateMutability": "view",
      "type": "function"
    },
    {
      "inputs": [],
      "name": "communityIssuance",
      "outputs": [
        {
          "internalType": "address",
          "name": "",
          "type": "address"
        }
      ],
      "stateMutability": "view",
      "type": "function"
    },
    {
      "inputs": [
        {
          "internalType": "uint256",
          "name": "_amount",
          "type": "uint256"
        }
      ],
      "name": "decreaseLUSDDebt",
      "outputs": [],
      "stateMutability": "nonpayable",
      "type": "function"
    },
    {
      "inputs": [],
      "name": "defaultPoolAddress",
      "outputs": [
        {
          "internalType": "address",
          "name": "",
          "type": "address"
        }
      ],
      "stateMutability": "view",
      "type": "function"
    },
    {
      "inputs": [],
      "name": "getETH",
      "outputs": [
        {
          "internalType": "uint256",
          "name": "",
          "type": "uint256"
        }
      ],
      "stateMutability": "view",
      "type": "function"
    },
    {
      "inputs": [],
      "name": "getLUSDDebt",
      "outputs": [
        {
          "internalType": "uint256",
          "name": "",
          "type": "uint256"
        }
      ],
      "stateMutability": "view",
      "type": "function"
    },
    {
      "inputs": [
        {
          "internalType": "uint256",
          "name": "_amount",
          "type": "uint256"
        }
      ],
      "name": "increaseLUSDDebt",
      "outputs": [],
      "stateMutability": "nonpayable",
      "type": "function"
    },
    {
      "inputs": [],
      "name": "isOwner",
      "outputs": [
        {
          "internalType": "bool",
          "name": "",
          "type": "bool"
        }
      ],
      "stateMutability": "view",
      "type": "function"
    },
    {
      "inputs": [],
      "name": "owner",
      "outputs": [
        {
          "internalType": "address",
          "name": "",
          "type": "address"
        }
      ],
      "stateMutability": "view",
      "type": "function"
    },
    {
      "inputs": [
        {
          "internalType": "address",
          "name": "_account",
          "type": "address"
        },
        {
          "internalType": "uint256",
          "name": "_amount",
          "type": "uint256"
        }
      ],
      "name": "sendETH",
      "outputs": [],
      "stateMutability": "nonpayable",
      "type": "function"
    },
    {
      "inputs": [
        {
          "internalType": "address",
          "name": "_account",
          "type": "address"
        },
        {
          "internalType": "uint256",
          "name": "_amount",
          "type": "uint256"
        }
      ],
      "name": "sendLockedETH",
      "outputs": [],
      "stateMutability": "nonpayable",
      "type": "function"
    },
    {
      "inputs": [
        {
          "internalType": "address",
          "name": "_borrowerOperationsAddress",
          "type": "address"
        },
        {
          "internalType": "address",
          "name": "_troveManagerAddress",
          "type": "address"
        },
        {
          "internalType": "address",
          "name": "_stabilityPoolAddress",
          "type": "address"
        },
        {
          "internalType": "address",
          "name": "_defaultPoolAddress",
          "type": "address"
        },
        {
          "internalType": "address",
          "name": "_communityIssuance",
          "type": "address"
        }
      ],
      "name": "setAddresses",
      "outputs": [],
      "stateMutability": "nonpayable",
      "type": "function"
    },
    {
      "inputs": [],
      "name": "stabilityPoolAddress",
      "outputs": [
        {
          "internalType": "address",
          "name": "",
          "type": "address"
        }
      ],
      "stateMutability": "view",
      "type": "function"
    },
    {
      "inputs": [],
      "name": "stakedTLOS",
      "outputs": [
        {
          "internalType": "contract IStakedTLOS",
          "name": "",
          "type": "address"
        }
      ],
      "stateMutability": "view",
      "type": "function"
    },
    {
      "inputs": [],
      "name": "troveManagerAddress",
      "outputs": [
        {
          "internalType": "address",
          "name": "",
          "type": "address"
        }
      ],
      "stateMutability": "view",
      "type": "function"
    },
    {
      "stateMutability": "payable",
      "type": "receive"
    }
  ],
  "bytecode": "0x608060405234801561001057600080fd5b50600080546001600160a01b0319163390811782556040519091907f8be0079c531659141344cd1fd0a4f28419497f9722a3daafe3b4186f6b6457e0908290a3600880546001600160a01b031916735a9b40a59109a848b82a0ff153910bb595082e091790556111c8806100856000396000f3fe6080604052600436106101085760003560e01c80638f32d59b116100a0578063b7f8cf9b11610064578063b7f8cf9b14610421578063c3a1f69f14610436578063cfb9329a14610460578063dbd6f4201461048a578063e7a0872b1461049f576101c4565b80638f32d59b1461032f57806395fb16bb14610358578063a3f4df7e1461036d578063aac1846f146103f7578063ab58989a1461040c576101c4565b80630b622ab2146101c957806314f6c3be146101fa57806338d995a8146102215780635a4d28bb1461024d5780635dd68acd146102625780635eb52fca146102b757806364a197f3146102cc57806365791a95146103055780638da5cb5b1461031a576101c4565b366101c4576101156104d8565b600654610128903463ffffffff61053816565b6006556008546040805163052a38e160e51b815290516001600160a01b039092169163a5471c20913491600480830192602092919082900301818588803b15801561017257600080fd5b505af1158015610186573d6000803e3d6000fd5b50505050506040513d602081101561019d57600080fd5b505060065460408051918252516000805160206110ef8339815191529181900360200190a1005b600080fd5b3480156101d557600080fd5b506101de610599565b604080516001600160a01b039092168252519081900360200190f35b34801561020657600080fd5b5061020f6105a8565b60408051918252519081900360200190f35b34801561022d57600080fd5b5061024b6004803603602081101561024457600080fd5b50356105ae565b005b34801561025957600080fd5b506101de61060b565b34801561026e57600080fd5b5061024b600480360360a081101561028557600080fd5b506001600160a01b0381358116916020810135821691604082013581169160608101358216916080909101351661061a565b3480156102c357600080fd5b5061020f6107e1565b3480156102d857600080fd5b5061024b600480360360408110156102ef57600080fd5b506001600160a01b0381351690602001356107e7565b34801561031157600080fd5b5061020f610976565b34801561032657600080fd5b506101de6109f2565b34801561033b57600080fd5b50610344610a01565b604080519115158252519081900360200190f35b34801561036457600080fd5b506101de610a12565b34801561037957600080fd5b50610382610a21565b6040805160208082528351818301528351919283929083019185019080838360005b838110156103bc5781810151838201526020016103a4565b50505050905090810190601f1680156103e95780820380516001836020036101000a031916815260200191505b509250505060405180910390f35b34801561040357600080fd5b506101de610a47565b34801561041857600080fd5b5061020f610a56565b34801561042d57600080fd5b506101de610aa5565b34801561044257600080fd5b5061024b6004803603602081101561045957600080fd5b5035610ab4565b34801561046c57600080fd5b5061024b6004803603602081101561048357600080fd5b5035610b3c565b34801561049657600080fd5b506101de610b57565b3480156104ab57600080fd5b5061024b600480360360408110156104c257600080fd5b506001600160a01b038135169060200135610b66565b6001546001600160a01b03163314806104fb57506004546001600160a01b031633145b6105365760405162461bcd60e51b81526004018080602001828103825260318152602001806111626031913960400191505060405180910390fd5b565b600082820183811015610592576040805162461bcd60e51b815260206004820152601b60248201527f536166654d6174683a206164646974696f6e206f766572666c6f770000000000604482015290519081900360640190fd5b9392505050565b6003546001600160a01b031681565b60065490565b6105b6610c80565b6007546105c9908263ffffffff610cf316565b600781905560408051918252517f0d4c964e4ceac5d740869d39789a7b91888a787b9c33e9365b1a658a21ffb6969181900360200190a1610608610d35565b50565b6002546001600160a01b031681565b610622610a01565b610673576040805162461bcd60e51b815260206004820181905260248201527f4f776e61626c653a2063616c6c6572206973206e6f7420746865206f776e6572604482015290519081900360640190fd5b61067c85610ebb565b61068584610ebb565b61068e83610ebb565b61069782610ebb565b600180546001600160a01b038088166001600160a01b03199283168117909355600280548883169084161790556003805487831690841617905560048054868316908416179055600580549185169190921617905560408051918252517f3ca631ffcd2a9b5d9ae18543fc82f58eb4ca33af9e6ab01b7a8e95331e6ed9859181900360200190a1604080516001600160a01b038616815290517f143219c9e69b09e07e095fcc889b43d8f46ca892bba65f08dc3a0050869a56789181900360200190a1604080516001600160a01b038516815290517f82966d27eea39b038ee0fa30cd16532bb24f6e65d31cb58fb227aa5766cdcc7f9181900360200190a1604080516001600160a01b038416815290517f5ee0cae2f063ed938bb55046f6a932fb6ae792bf43624806bb90abe68a50be9b9181900360200190a16107da610f6e565b5050505050565b60075490565b6107ef610c80565b600654610802908263ffffffff610cf316565b600655600854604080516363737ac960e11b81526004810184905290516000926001600160a01b03169163c6e6f592916024808301926020929190829003018186803b15801561085157600080fd5b505afa158015610865573d6000803e3d6000fd5b505050506040513d602081101561087b57600080fd5b50516008546040805163a9059cbb60e01b81526001600160a01b03878116600483015260248201859052915193945091169163a9059cbb916044808201926020929091908290030181600087803b1580156108d557600080fd5b505af11580156108e9573d6000803e3d6000fd5b505050506040513d60208110156108ff57600080fd5b5061090a9050610d35565b60065460408051918252516000805160206110ef8339815191529181900360200190a1604080516001600160a01b03851681526020810184905281517f6109e2559dfa766aaec7118351d48a523f0a4157f49c8d68749c8ac41318ad12929181900390910190a1505050565b600854604080516370a0823160e01b815230600482015290516000926001600160a01b0316916370a08231916024808301926020929190829003018186803b1580156109c157600080fd5b505afa1580156109d5573d6000803e3d6000fd5b505050506040513d60208110156109eb57600080fd5b5051905090565b6000546001600160a01b031690565b6000546001600160a01b0316331490565b6005546001600160a01b031681565b6040518060400160405280600a8152602001691058dd1a5d99541bdbdb60b21b81525081565b6004546001600160a01b031681565b600854600654604080516363737ac960e11b81526004810192909252516000926001600160a01b03169163c6e6f592916024808301926020929190829003018186803b1580156109c157600080fd5b6001546001600160a01b031681565b6008546005546040805163a9059cbb60e01b81526001600160a01b039283166004820152602481018590529051919092169163a9059cbb9160448083019260209291908290030181600087803b158015610b0d57600080fd5b505af1158015610b21573d6000803e3d6000fd5b505050506040513d6020811015610b3757600080fd5b505050565b610b44610fb8565b6007546105c9908263ffffffff61053816565b6008546001600160a01b031681565b610b6e610c80565b600654610b81908263ffffffff610cf316565b60065560085460408051632d182be560e21b8152600481018490526001600160a01b0385811660248301523060448301529151919092169163b460af949160648083019260209291908290030181600087803b158015610be057600080fd5b505af1158015610bf4573d6000803e3d6000fd5b505050506040513d6020811015610c0a57600080fd5b50610c159050610d35565b60065460408051918252516000805160206110ef8339815191529181900360200190a1604080516001600160a01b03841681526020810183905281517f6109e2559dfa766aaec7118351d48a523f0a4157f49c8d68749c8ac41318ad12929181900390910190a15050565b6001546001600160a01b0316331480610ca357506002546001600160a01b031633145b80610cb857506003546001600160a01b031633145b6105365760405162461bcd60e51b815260040180806020018281038252605381526020018061110f6053913960600191505060405180910390fd5b600061059283836040518060400160405280601e81526020017f536166654d6174683a207375627472616374696f6e206f766572666c6f770000815250611016565b600854604080516370a0823160e01b815230600482015290516000926001600160a01b0316916370a08231916024808301926020929190829003018186803b158015610d8057600080fd5b505afa158015610d94573d6000803e3d6000fd5b505050506040513d6020811015610daa57600080fd5b5051600854600654604080516363737ac960e11b81526004810192909252519293506000926001600160a01b039092169163c6e6f59291602480820192602092909190829003018186803b158015610e0157600080fd5b505afa158015610e15573d6000803e3d6000fd5b505050506040513d6020811015610e2b57600080fd5b505190508082038015610b37576008546005546040805163a9059cbb60e01b81526001600160a01b039283166004820152602481018590529051919092169163a9059cbb9160448083019260209291908290030181600087803b158015610e9157600080fd5b505af1158015610ea5573d6000803e3d6000fd5b505050506040513d60208110156107da57600080fd5b6001600160a01b038116610f16576040805162461bcd60e51b815260206004820152601e60248201527f4163636f756e742063616e6e6f74206265207a65726f20616464726573730000604482015290519081900360640190fd5b803b80610f6a576040805162461bcd60e51b815260206004820181905260248201527f4163636f756e7420636f64652073697a652063616e6e6f74206265207a65726f604482015290519081900360640190fd5b5050565b600080546040516001600160a01b03909116907f8be0079c531659141344cd1fd0a4f28419497f9722a3daafe3b4186f6b6457e0908390a3600080546001600160a01b0319169055565b6001546001600160a01b0316331480610fdb57506002546001600160a01b031633145b6105365760405162461bcd60e51b81526004018080602001828103825260418152602001806110ae6041913960600191505060405180910390fd5b600081848411156110a55760405162461bcd60e51b81526004018080602001828103825283818151815260200191508051906020019080838360005b8381101561106a578181015183820152602001611052565b50505050905090810190601f1680156110975780820380516001836020036101000a031916815260200191505b509250505060405180910390fd5b50505090039056fe416374697665506f6f6c3a2043616c6c6572206973206e65697468657220426f72726f7765724f7065726174696f6e73206e6f722054726f76654d616e61676572ca232b5abb988c540b959ff6c3bfae3e97fff964fd098c508f9613c0a6bf1a80416374697665506f6f6c3a2043616c6c6572206973206e65697468657220426f72726f7765724f7065726174696f6e73206e6f722054726f76654d616e61676572206e6f722053746162696c697479506f6f6c416374697665506f6f6c3a2043616c6c6572206973206e65697468657220424f206e6f722044656661756c7420506f6f6ca26469706673582212207fe1aa0bbac2af2a9b22a28da88c843376036012427c44869c334b92521d33ff64736f6c634300060b0033",
  "linkReferences": {},
  "deployedLinkReferences": {}
}