{
  "_format": "hh-sol-artifact-1",
  "contractName": "ActivePool",
  "sourceName": "contracts/ActivePool.sol",
  "abi": [
    {
      "inputs": [],
      "stateMutability": "nonpayable",
      "type": "constructor"
    },
    {
      "anonymous": false,
      "inputs": [
        {
          "indexed": false,
          "internalType": "address",
          "name": "_newActivePoolAddress",
          "type": "address"
        }
      ],
      "name": "ActivePoolAddressChanged",
      "type": "event"
    },
    {
      "anonymous": false,
      "inputs": [
        {
          "indexed": false,
          "internalType": "uint256",
          "name": "_ETH",
          "type": "uint256"
        }
      ],
      "name": "ActivePoolETHBalanceUpdated",
      "type": "event"
    },
    {
      "anonymous": false,
      "inputs": [
        {
          "indexed": false,
          "internalType": "uint256",
          "name": "_LUSDDebt",
          "type": "uint256"
        }
      ],
      "name": "ActivePoolLUSDDebtUpdated",
      "type": "event"
    },
    {
      "anonymous": false,
      "inputs": [
        {
          "indexed": false,
          "internalType": "address",
          "name": "_newBorrowerOperationsAddress",
          "type": "address"
        }
      ],
      "name": "BorrowerOperationsAddressChanged",
      "type": "event"
    },
    {
      "anonymous": false,
      "inputs": [
        {
          "indexed": false,
          "internalType": "address",
          "name": "_newDefaultPoolAddress",
          "type": "address"
        }
      ],
      "name": "DefaultPoolAddressChanged",
      "type": "event"
    },
    {
      "anonymous": false,
      "inputs": [
        {
          "indexed": false,
          "internalType": "uint256",
          "name": "_newBalance",
          "type": "uint256"
        }
      ],
      "name": "ETHBalanceUpdated",
      "type": "event"
    },
    {
      "anonymous": false,
      "inputs": [
        {
          "indexed": false,
          "internalType": "address",
          "name": "_to",
          "type": "address"
        },
        {
          "indexed": false,
          "internalType": "uint256",
          "name": "_amount",
          "type": "uint256"
        }
      ],
      "name": "EtherSent",
      "type": "event"
    },
    {
      "anonymous": false,
      "inputs": [
        {
          "indexed": false,
          "internalType": "uint256",
          "name": "_newBalance",
          "type": "uint256"
        }
      ],
      "name": "LUSDBalanceUpdated",
      "type": "event"
    },
    {
      "anonymous": false,
      "inputs": [
        {
          "indexed": true,
          "internalType": "address",
          "name": "previousOwner",
          "type": "address"
        },
        {
          "indexed": true,
          "internalType": "address",
          "name": "newOwner",
          "type": "address"
        }
      ],
      "name": "OwnershipTransferred",
      "type": "event"
    },
    {
      "anonymous": false,
      "inputs": [
        {
          "indexed": false,
          "internalType": "address",
          "name": "_newStabilityPoolAddress",
          "type": "address"
        }
      ],
      "name": "StabilityPoolAddressChanged",
      "type": "event"
    },
    {
      "anonymous": false,
      "inputs": [
        {
          "indexed": false,
          "internalType": "address",
          "name": "_newTroveManagerAddress",
          "type": "address"
        }
      ],
      "name": "TroveManagerAddressChanged",
      "type": "event"
    },
    {
      "inputs": [],
      "name": "NAME",
      "outputs": [
        {
          "internalType": "string",
          "name": "",
          "type": "string"
        }
      ],
      "stateMutability": "view",
      "type": "function"
    },
    {
      "inputs": [],
      "name": "borrowerOperationsAddress",
      "outputs": [
        {
          "internalType": "address",
          "name": "",
          "type": "address"
        }
      ],
      "stateMutability": "view",
      "type": "function"
    },
    {
      "inputs": [],
      "name": "checkSTLOSBalance",
      "outputs": [
        {
          "internalType": "uint256",
          "name": "",
          "type": "uint256"
        }
      ],
      "stateMutability": "view",
      "type": "function"
    },
    {
      "inputs": [],
      "name": "checkStakedTLOSToShares",
      "outputs": [
        {
          "internalType": "uint256",
          "name": "",
          "type": "uint256"
        }
      ],
      "stateMutability": "view",
      "type": "function"
    },
    {
      "inputs": [],
      "name": "communityIssuance",
      "outputs": [
        {
          "internalType": "address",
          "name": "",
          "type": "address"
        }
      ],
      "stateMutability": "view",
      "type": "function"
    },
    {
      "inputs": [
        {
          "internalType": "uint256",
          "name": "_amount",
          "type": "uint256"
        }
      ],
      "name": "decreaseLUSDDebt",
      "outputs": [],
      "stateMutability": "nonpayable",
      "type": "function"
    },
    {
      "inputs": [],
      "name": "defaultPoolAddress",
      "outputs": [
        {
          "internalType": "address",
          "name": "",
          "type": "address"
        }
      ],
      "stateMutability": "view",
      "type": "function"
    },
    {
      "inputs": [],
      "name": "getETH",
      "outputs": [
        {
          "internalType": "uint256",
          "name": "",
          "type": "uint256"
        }
      ],
      "stateMutability": "view",
      "type": "function"
    },
    {
      "inputs": [],
      "name": "getLUSDDebt",
      "outputs": [
        {
          "internalType": "uint256",
          "name": "",
          "type": "uint256"
        }
      ],
      "stateMutability": "view",
      "type": "function"
    },
    {
      "inputs": [
        {
          "internalType": "uint256",
          "name": "_amount",
          "type": "uint256"
        }
      ],
      "name": "increaseLUSDDebt",
      "outputs": [],
      "stateMutability": "nonpayable",
      "type": "function"
    },
    {
      "inputs": [],
      "name": "isOwner",
      "outputs": [
        {
          "internalType": "bool",
          "name": "",
          "type": "bool"
        }
      ],
      "stateMutability": "view",
      "type": "function"
    },
    {
      "inputs": [],
      "name": "owner",
      "outputs": [
        {
          "internalType": "address",
          "name": "",
          "type": "address"
        }
      ],
      "stateMutability": "view",
      "type": "function"
    },
    {
      "inputs": [
        {
          "internalType": "address",
          "name": "_account",
          "type": "address"
        },
        {
          "internalType": "uint256",
          "name": "_amount",
          "type": "uint256"
        }
      ],
      "name": "sendETH",
      "outputs": [],
      "stateMutability": "nonpayable",
      "type": "function"
    },
    {
      "inputs": [
        {
          "internalType": "address",
          "name": "_account",
          "type": "address"
        },
        {
          "internalType": "uint256",
          "name": "_amount",
          "type": "uint256"
        }
      ],
      "name": "sendLockedETH",
      "outputs": [],
      "stateMutability": "nonpayable",
      "type": "function"
    },
    {
      "inputs": [
        {
          "internalType": "address",
          "name": "_borrowerOperationsAddress",
          "type": "address"
        },
        {
          "internalType": "address",
          "name": "_troveManagerAddress",
          "type": "address"
        },
        {
          "internalType": "address",
          "name": "_stabilityPoolAddress",
          "type": "address"
        },
        {
          "internalType": "address",
          "name": "_defaultPoolAddress",
          "type": "address"
        },
        {
          "internalType": "address",
          "name": "_communityIssuance",
          "type": "address"
        }
      ],
      "name": "setAddresses",
      "outputs": [],
      "stateMutability": "nonpayable",
      "type": "function"
    },
    {
      "inputs": [],
      "name": "stabilityPoolAddress",
      "outputs": [
        {
          "internalType": "address",
          "name": "",
          "type": "address"
        }
      ],
      "stateMutability": "view",
      "type": "function"
    },
    {
      "inputs": [],
      "name": "stakedTLOS",
      "outputs": [
        {
          "internalType": "contract IStakedTLOS",
          "name": "",
          "type": "address"
        }
      ],
      "stateMutability": "view",
      "type": "function"
    },
    {
      "inputs": [],
      "name": "troveManagerAddress",
      "outputs": [
        {
          "internalType": "address",
          "name": "",
          "type": "address"
        }
      ],
      "stateMutability": "view",
      "type": "function"
    },
    {
      "stateMutability": "payable",
      "type": "receive"
    }
  ],
  "bytecode": "0x608060405234801561001057600080fd5b50600080546001600160a01b0319163390811782556040519091907f8be0079c531659141344cd1fd0a4f28419497f9722a3daafe3b4186f6b6457e0908290a3600880546001600160a01b03191673a9991e4daa44922d00a78b6d986cdf628d46c4dd1790556110ff806100856000396000f3fe6080604052600436106100ed5760003560e01c80638f32d59b116100855780638f32d59b1461031457806395fb16bb1461033d578063a3f4df7e14610352578063aac1846f146103dc578063ab58989a146103f1578063b7f8cf9b14610406578063cfb9329a1461041b578063dbd6f42014610445578063e7a0872b1461045a576101a9565b80630b622ab2146101ae57806314f6c3be146101df57806338d995a8146102065780635a4d28bb146102325780635dd68acd146102475780635eb52fca1461029c57806364a197f3146102b157806365791a95146102ea5780638da5cb5b146102ff576101a9565b366101a9576100fa610493565b60065461010d903463ffffffff6104f316565b6006556008546040805163052a38e160e51b815290516001600160a01b039092169163a5471c20913491600480830192602092919082900301818588803b15801561015757600080fd5b505af115801561016b573d6000803e3d6000fd5b50505050506040513d602081101561018257600080fd5b505060065460408051918252516000805160206110268339815191529181900360200190a1005b600080fd5b3480156101ba57600080fd5b506101c3610554565b604080516001600160a01b039092168252519081900360200190f35b3480156101eb57600080fd5b506101f4610563565b60408051918252519081900360200190f35b34801561021257600080fd5b506102306004803603602081101561022957600080fd5b5035610569565b005b34801561023e57600080fd5b506101c36105c6565b34801561025357600080fd5b50610230600480360360a081101561026a57600080fd5b506001600160a01b038135811691602081013582169160408201358116916060810135821691608090910135166105d5565b3480156102a857600080fd5b506101f461079c565b3480156102bd57600080fd5b50610230600480360360408110156102d457600080fd5b506001600160a01b0381351690602001356107a2565b3480156102f657600080fd5b506101f4610931565b34801561030b57600080fd5b506101c36109ad565b34801561032057600080fd5b506103296109bc565b604080519115158252519081900360200190f35b34801561034957600080fd5b506101c36109cd565b34801561035e57600080fd5b506103676109dc565b6040805160208082528351818301528351919283929083019185019080838360005b838110156103a1578181015183820152602001610389565b50505050905090810190601f1680156103ce5780820380516001836020036101000a031916815260200191505b509250505060405180910390f35b3480156103e857600080fd5b506101c3610a02565b3480156103fd57600080fd5b506101f4610a11565b34801561041257600080fd5b506101c3610a60565b34801561042757600080fd5b506102306004803603602081101561043e57600080fd5b5035610a6f565b34801561045157600080fd5b506101c3610a8a565b34801561046657600080fd5b506102306004803603604081101561047d57600080fd5b506001600160a01b038135169060200135610a99565b6001546001600160a01b03163314806104b657506004546001600160a01b031633145b6104f15760405162461bcd60e51b81526004018080602001828103825260318152602001806110996031913960400191505060405180910390fd5b565b60008282018381101561054d576040805162461bcd60e51b815260206004820152601b60248201527f536166654d6174683a206164646974696f6e206f766572666c6f770000000000604482015290519081900360640190fd5b9392505050565b6003546001600160a01b031681565b60065490565b610571610bb3565b600754610584908263ffffffff610c2616565b600781905560408051918252517f0d4c964e4ceac5d740869d39789a7b91888a787b9c33e9365b1a658a21ffb6969181900360200190a16105c3610c68565b50565b6002546001600160a01b031681565b6105dd6109bc565b61062e576040805162461bcd60e51b815260206004820181905260248201527f4f776e61626c653a2063616c6c6572206973206e6f7420746865206f776e6572604482015290519081900360640190fd5b61063785610df6565b61064084610df6565b61064983610df6565b61065282610df6565b600180546001600160a01b038088166001600160a01b03199283168117909355600280548883169084161790556003805487831690841617905560048054868316908416179055600580549185169190921617905560408051918252517f3ca631ffcd2a9b5d9ae18543fc82f58eb4ca33af9e6ab01b7a8e95331e6ed9859181900360200190a1604080516001600160a01b038616815290517f143219c9e69b09e07e095fcc889b43d8f46ca892bba65f08dc3a0050869a56789181900360200190a1604080516001600160a01b038516815290517f82966d27eea39b038ee0fa30cd16532bb24f6e65d31cb58fb227aa5766cdcc7f9181900360200190a1604080516001600160a01b038416815290517f5ee0cae2f063ed938bb55046f6a932fb6ae792bf43624806bb90abe68a50be9b9181900360200190a1610795610ea5565b5050505050565b60075490565b6107aa610bb3565b6006546107bd908263ffffffff610c2616565b600655600854604080516363737ac960e11b81526004810184905290516000926001600160a01b03169163c6e6f592916024808301926020929190829003018186803b15801561080c57600080fd5b505afa158015610820573d6000803e3d6000fd5b505050506040513d602081101561083657600080fd5b50516008546040805163a9059cbb60e01b81526001600160a01b03878116600483015260248201859052915193945091169163a9059cbb916044808201926020929091908290030181600087803b15801561089057600080fd5b505af11580156108a4573d6000803e3d6000fd5b505050506040513d60208110156108ba57600080fd5b506108c59050610c68565b60065460408051918252516000805160206110268339815191529181900360200190a1604080516001600160a01b03851681526020810184905281517f6109e2559dfa766aaec7118351d48a523f0a4157f49c8d68749c8ac41318ad12929181900390910190a1505050565b600854604080516370a0823160e01b815230600482015290516000926001600160a01b0316916370a08231916024808301926020929190829003018186803b15801561097c57600080fd5b505afa158015610990573d6000803e3d6000fd5b505050506040513d60208110156109a657600080fd5b5051905090565b6000546001600160a01b031690565b6000546001600160a01b0316331490565b6005546001600160a01b031681565b6040518060400160405280600a8152602001691058dd1a5d99541bdbdb60b21b81525081565b6004546001600160a01b031681565b600854600654604080516363737ac960e11b81526004810192909252516000926001600160a01b03169163c6e6f592916024808301926020929190829003018186803b15801561097c57600080fd5b6001546001600160a01b031681565b610a77610eef565b600754610584908263ffffffff6104f316565b6008546001600160a01b031681565b610aa1610bb3565b600654610ab4908263ffffffff610c2616565b60065560085460408051632d182be560e21b8152600481018490526001600160a01b0385811660248301523060448301529151919092169163b460af949160648083019260209291908290030181600087803b158015610b1357600080fd5b505af1158015610b27573d6000803e3d6000fd5b505050506040513d6020811015610b3d57600080fd5b50610b489050610c68565b60065460408051918252516000805160206110268339815191529181900360200190a1604080516001600160a01b03841681526020810183905281517f6109e2559dfa766aaec7118351d48a523f0a4157f49c8d68749c8ac41318ad12929181900390910190a15050565b6001546001600160a01b0316331480610bd657506002546001600160a01b031633145b80610beb57506003546001600160a01b031633145b6104f15760405162461bcd60e51b81526004018080602001828103825260538152602001806110466053913960600191505060405180910390fd5b600061054d83836040518060400160405280601e81526020017f536166654d6174683a207375627472616374696f6e206f766572666c6f770000815250610f4d565b600854604080516370a0823160e01b815230600482015290516000926001600160a01b0316916370a08231916024808301926020929190829003018186803b158015610cb357600080fd5b505afa158015610cc7573d6000803e3d6000fd5b505050506040513d6020811015610cdd57600080fd5b5051600854600654604080516363737ac960e11b81526004810192909252519293506000926001600160a01b039092169163c6e6f59291602480820192602092909190829003018186803b158015610d3457600080fd5b505afa158015610d48573d6000803e3d6000fd5b505050506040513d6020811015610d5e57600080fd5b5051905080821115610df2576008546005546040805163a9059cbb60e01b81526001600160a01b0392831660048201528486036024820181905291519193929092169163a9059cbb9160448083019260209291908290030181600087803b158015610dc857600080fd5b505af1158015610ddc573d6000803e3d6000fd5b505050506040513d602081101561079557600080fd5b5050565b6001600160a01b038116610e51576040805162461bcd60e51b815260206004820152601e60248201527f4163636f756e742063616e6e6f74206265207a65726f20616464726573730000604482015290519081900360640190fd5b803b80610df2576040805162461bcd60e51b815260206004820181905260248201527f4163636f756e7420636f64652073697a652063616e6e6f74206265207a65726f604482015290519081900360640190fd5b600080546040516001600160a01b03909116907f8be0079c531659141344cd1fd0a4f28419497f9722a3daafe3b4186f6b6457e0908390a3600080546001600160a01b0319169055565b6001546001600160a01b0316331480610f1257506002546001600160a01b031633145b6104f15760405162461bcd60e51b8152600401808060200182810382526041815260200180610fe56041913960600191505060405180910390fd5b60008184841115610fdc5760405162461bcd60e51b81526004018080602001828103825283818151815260200191508051906020019080838360005b83811015610fa1578181015183820152602001610f89565b50505050905090810190601f168015610fce5780820380516001836020036101000a031916815260200191505b509250505060405180910390fd5b50505090039056fe416374697665506f6f6c3a2043616c6c6572206973206e65697468657220426f72726f7765724f7065726174696f6e73206e6f722054726f76654d616e61676572ca232b5abb988c540b959ff6c3bfae3e97fff964fd098c508f9613c0a6bf1a80416374697665506f6f6c3a2043616c6c6572206973206e65697468657220426f72726f7765724f7065726174696f6e73206e6f722054726f76654d616e61676572206e6f722053746162696c697479506f6f6c416374697665506f6f6c3a2043616c6c6572206973206e65697468657220424f206e6f722044656661756c7420506f6f6ca264697066735822122084d864def016030c2bc5f9b41cbbb72d26ec85500798688f0b1a0f7b90cb569764736f6c634300060b0033",
  "linkReferences": {},
  "deployedLinkReferences": {}
}