{
  "_format": "hh-sol-artifact-1",
  "contractName": "BorrowerRewards",
  "sourceName": "contracts/LQTY/BorrowerRewards.sol",
  "abi": [
    {
      "anonymous": false,
      "inputs": [
        {
          "indexed": false,
          "internalType": "address",
          "name": "_activePoolAddress",
          "type": "address"
        }
      ],
      "name": "ActivePoolAddressSet",
      "type": "event"
    },
    {
      "anonymous": false,
      "inputs": [
        {
          "indexed": false,
          "internalType": "address",
          "name": "_BATTokenAddress",
          "type": "address"
        }
      ],
      "name": "BATTokenAddressSet",
      "type": "event"
    },
    {
      "anonymous": false,
      "inputs": [
        {
          "indexed": false,
          "internalType": "address",
          "name": "_borrowerOperationsAddress",
          "type": "address"
        }
      ],
      "name": "BorrowerOperationsAddressSet",
      "type": "event"
    },
    {
      "anonymous": false,
      "inputs": [
        {
          "indexed": false,
          "internalType": "uint256",
          "name": "_F_STLOS",
          "type": "uint256"
        }
      ],
      "name": "F_STLOSUpdated",
      "type": "event"
    },
    {
      "anonymous": false,
      "inputs": [
        {
          "indexed": true,
          "internalType": "address",
          "name": "previousOwner",
          "type": "address"
        },
        {
          "indexed": true,
          "internalType": "address",
          "name": "newOwner",
          "type": "address"
        }
      ],
      "name": "OwnershipTransferred",
      "type": "event"
    },
    {
      "anonymous": false,
      "inputs": [
        {
          "indexed": false,
          "internalType": "address",
          "name": "_stlosTokenAddress",
          "type": "address"
        }
      ],
      "name": "STLOSTokenAddressSet",
      "type": "event"
    },
    {
      "anonymous": false,
      "inputs": [
        {
          "indexed": true,
          "internalType": "address",
          "name": "staker",
          "type": "address"
        },
        {
          "indexed": false,
          "internalType": "uint256",
          "name": "newStake",
          "type": "uint256"
        }
      ],
      "name": "StakeChanged",
      "type": "event"
    },
    {
      "anonymous": false,
      "inputs": [
        {
          "indexed": false,
          "internalType": "address",
          "name": "_staker",
          "type": "address"
        },
        {
          "indexed": false,
          "internalType": "uint256",
          "name": "_F_STLOS",
          "type": "uint256"
        }
      ],
      "name": "StakerSnapshotsUpdated",
      "type": "event"
    },
    {
      "anonymous": false,
      "inputs": [
        {
          "indexed": true,
          "internalType": "address",
          "name": "staker",
          "type": "address"
        },
        {
          "indexed": false,
          "internalType": "uint256",
          "name": "STLOSGain",
          "type": "uint256"
        }
      ],
      "name": "StakingGainsWithdrawn",
      "type": "event"
    },
    {
      "anonymous": false,
      "inputs": [
        {
          "indexed": false,
          "internalType": "address",
          "name": "_tlosTokenAddress",
          "type": "address"
        }
      ],
      "name": "TLOSTokenAddressSet",
      "type": "event"
    },
    {
      "anonymous": false,
      "inputs": [
        {
          "indexed": false,
          "internalType": "uint256",
          "name": "_totalTroveDeposits",
          "type": "uint256"
        }
      ],
      "name": "TotalBATStakedUpdated",
      "type": "event"
    },
    {
      "anonymous": false,
      "inputs": [
        {
          "indexed": false,
          "internalType": "uint256",
          "name": "_totalTLOSStaked",
          "type": "uint256"
        }
      ],
      "name": "TotalTLOSStakedUpdated",
      "type": "event"
    },
    {
      "anonymous": false,
      "inputs": [
        {
          "indexed": false,
          "internalType": "address",
          "name": "_troveManager",
          "type": "address"
        }
      ],
      "name": "TroveManagerAddressSet",
      "type": "event"
    },
    {
      "inputs": [],
      "name": "BATToken",
      "outputs": [
        {
          "internalType": "contract IBATToken",
          "name": "",
          "type": "address"
        }
      ],
      "stateMutability": "view",
      "type": "function"
    },
    {
      "inputs": [],
      "name": "DECIMAL_PRECISION",
      "outputs": [
        {
          "internalType": "uint256",
          "name": "",
          "type": "uint256"
        }
      ],
      "stateMutability": "view",
      "type": "function"
    },
    {
      "inputs": [],
      "name": "F_STLOS",
      "outputs": [
        {
          "internalType": "uint256",
          "name": "",
          "type": "uint256"
        }
      ],
      "stateMutability": "view",
      "type": "function"
    },
    {
      "inputs": [],
      "name": "NAME",
      "outputs": [
        {
          "internalType": "string",
          "name": "",
          "type": "string"
        }
      ],
      "stateMutability": "view",
      "type": "function"
    },
    {
      "inputs": [],
      "name": "activePoolAddress",
      "outputs": [
        {
          "internalType": "address",
          "name": "",
          "type": "address"
        }
      ],
      "stateMutability": "view",
      "type": "function"
    },
    {
      "inputs": [],
      "name": "borrowerOperationsAddress",
      "outputs": [
        {
          "internalType": "address",
          "name": "",
          "type": "address"
        }
      ],
      "stateMutability": "view",
      "type": "function"
    },
    {
      "inputs": [
        {
          "internalType": "address",
          "name": "_user",
          "type": "address"
        }
      ],
      "name": "getPendingSTLOSGain",
      "outputs": [
        {
          "internalType": "uint256",
          "name": "",
          "type": "uint256"
        }
      ],
      "stateMutability": "view",
      "type": "function"
    },
    {
      "inputs": [
        {
          "internalType": "uint256",
          "name": "_STLOSFee",
          "type": "uint256"
        }
      ],
      "name": "increaseF_STLOS",
      "outputs": [],
      "stateMutability": "nonpayable",
      "type": "function"
    },
    {
      "inputs": [],
      "name": "isOwner",
      "outputs": [
        {
          "internalType": "bool",
          "name": "",
          "type": "bool"
        }
      ],
      "stateMutability": "view",
      "type": "function"
    },
    {
      "inputs": [],
      "name": "owner",
      "outputs": [
        {
          "internalType": "address",
          "name": "",
          "type": "address"
        }
      ],
      "stateMutability": "view",
      "type": "function"
    },
    {
      "inputs": [
        {
          "internalType": "address",
          "name": "_BATTokenAddress",
          "type": "address"
        },
        {
          "internalType": "address",
          "name": "_stlosTokenAddress",
          "type": "address"
        },
        {
          "internalType": "address",
          "name": "_troveManagerAddress",
          "type": "address"
        },
        {
          "internalType": "address",
          "name": "_borrowerOperationsAddress",
          "type": "address"
        },
        {
          "internalType": "address",
          "name": "_activePoolAddress",
          "type": "address"
        }
      ],
      "name": "setAddresses",
      "outputs": [],
      "stateMutability": "nonpayable",
      "type": "function"
    },
    {
      "inputs": [
        {
          "internalType": "address",
          "name": "",
          "type": "address"
        }
      ],
      "name": "snapshots",
      "outputs": [
        {
          "internalType": "uint256",
          "name": "F_STLOS_Snapshot",
          "type": "uint256"
        }
      ],
      "stateMutability": "view",
      "type": "function"
    },
    {
      "inputs": [
        {
          "internalType": "uint256",
          "name": "_BATamount",
          "type": "uint256"
        },
        {
          "internalType": "address",
          "name": "_user",
          "type": "address"
        }
      ],
      "name": "stake",
      "outputs": [],
      "stateMutability": "nonpayable",
      "type": "function"
    },
    {
      "inputs": [
        {
          "internalType": "address",
          "name": "",
          "type": "address"
        }
      ],
      "name": "stakes",
      "outputs": [
        {
          "internalType": "uint256",
          "name": "",
          "type": "uint256"
        }
      ],
      "stateMutability": "view",
      "type": "function"
    },
    {
      "inputs": [],
      "name": "stlosToken",
      "outputs": [
        {
          "internalType": "contract ISTLOSToken",
          "name": "",
          "type": "address"
        }
      ],
      "stateMutability": "view",
      "type": "function"
    },
    {
      "inputs": [],
      "name": "totalTroveDeposits",
      "outputs": [
        {
          "internalType": "uint256",
          "name": "",
          "type": "uint256"
        }
      ],
      "stateMutability": "view",
      "type": "function"
    },
    {
      "inputs": [],
      "name": "troveManager",
      "outputs": [
        {
          "internalType": "contract ITroveManager",
          "name": "",
          "type": "address"
        }
      ],
      "stateMutability": "view",
      "type": "function"
    },
    {
      "inputs": [],
      "name": "troveManagerAddress",
      "outputs": [
        {
          "internalType": "address",
          "name": "",
          "type": "address"
        }
      ],
      "stateMutability": "view",
      "type": "function"
    },
    {
      "inputs": [
        {
          "internalType": "uint256",
          "name": "_BATamount",
          "type": "uint256"
        },
        {
          "internalType": "address",
          "name": "_user",
          "type": "address"
        }
      ],
      "name": "unstake",
      "outputs": [],
      "stateMutability": "nonpayable",
      "type": "function"
    },
    {
      "stateMutability": "payable",
      "type": "receive"
    }
  ],
  "bytecode": "0x608060405234801561001057600080fd5b50600080546001600160a01b0319163390811782556040519091907f8be0079c531659141344cd1fd0a4f28419497f9722a3daafe3b4186f6b6457e0908290a36110ee8061005f6000396000f3fe6080604052600436106101085760003560e01c80638381e182116100a0578063b08bc72211610064578063b08bc722146103d2578063b7f8cf9b146103e7578063b8e9acef146103fc578063cd1737a514610411578063d788e9021461044457610117565b80638381e182146102bc5780638da5cb5b146102f55780638f32d59b1461030a578063a20baee614610333578063a3f4df7e1461034857610117565b806316934fc41461011c57806331cd72841461016157806334b3081f146101925780633d83908a146101c557806340086263146101da5780635a4d28bb146102045780635dd68acd14610219578063691974561461026e5780637acb77571461028357610117565b3661011757610115610459565b005b600080fd5b34801561012857600080fd5b5061014f6004803603602081101561013f57600080fd5b50356001600160a01b03166104a4565b60408051918252519081900360200190f35b34801561016d57600080fd5b506101766104b6565b604080516001600160a01b039092168252519081900360200190f35b34801561019e57600080fd5b5061014f600480360360208110156101b557600080fd5b50356001600160a01b03166104c5565b3480156101d157600080fd5b506101766104d7565b3480156101e657600080fd5b50610115600480360360208110156101fd57600080fd5b50356104e6565b34801561021057600080fd5b50610176610575565b34801561022557600080fd5b50610115600480360360a081101561023c57600080fd5b506001600160a01b03813581169160208101358216916040820135811691606081013582169160809091013516610584565b34801561027a57600080fd5b5061014f61071c565b34801561028f57600080fd5b50610115600480360360408110156102a657600080fd5b50803590602001356001600160a01b0316610722565b3480156102c857600080fd5b50610115600480360360408110156102df57600080fd5b50803590602001356001600160a01b03166108e7565b34801561030157600080fd5b50610176610b3b565b34801561031657600080fd5b5061031f610b4a565b604080519115158252519081900360200190f35b34801561033f57600080fd5b5061014f610b5b565b34801561035457600080fd5b5061035d610b67565b6040805160208082528351818301528351919283929083019185019080838360005b8381101561039757818101518382015260200161037f565b50505050905090810190601f1680156103c45780820380516001836020036101000a031916815260200191505b509250505060405180910390f35b3480156103de57600080fd5b50610176610b92565b3480156103f357600080fd5b50610176610ba1565b34801561040857600080fd5b50610176610bb0565b34801561041d57600080fd5b5061014f6004803603602081101561043457600080fd5b50356001600160a01b0316610bbf565b34801561045057600080fd5b5061014f610bd0565b600a546001600160a01b031633146104a25760405162461bcd60e51b81526004018080602001828103825260298152602001806110176029913960400191505060405180910390fd5b565b60016020526000908152604090205481565b6006546001600160a01b031681565b60046020526000908152604090205481565b6007546001600160a01b031681565b6104ee610459565b60025460009015610527576002546105249061051884670de0b6b3a764000063ffffffff610bd616565b9063ffffffff610c3616565b90505b60035461053a908263ffffffff610c7816565b600381905560408051918252517fda71c50d2abaf3c7ab3a9fd2ca26cd965875dd5fd849b93ff0b4e0abbe38e2e39181900360200190a15050565b6008546001600160a01b031681565b61058c610b4a565b6105dd576040805162461bcd60e51b815260206004820181905260248201527f4f776e61626c653a2063616c6c6572206973206e6f7420746865206f776e6572604482015290519081900360640190fd5b6105e685610cd2565b6105ef84610cd2565b6105f883610cd2565b61060182610cd2565b61060a81610cd2565b600580546001600160a01b038088166001600160a01b0319928316179092556006805487841690831617905560088054868416908316811790915560098054868516908416179055600a80549385169390921692909217905560408051918252517f41097dcc1f7cbd663d822443d7972f05b04f71918b30fe9fc59dd6e42e2280609181900360200190a1604080516001600160a01b038416815290517f5962f8af633c4df1ab230096f773a514ee5adf7785c621ecdcdb764cb7f6e3919181900360200190a1604080516001600160a01b038316815290517f8f6a6e7d20a3233e0a79883272259ffbd7a243734e397bc2b4642c79d7fa8a6d9181900360200190a1610715610d30565b5050505050565b60025481565b61072b82610d7a565b6001600160a01b0381166000908152600160205260408120549081156107575761075483610db9565b90505b61076083610e26565b6000610772838663ffffffff610c7816565b6001600160a01b03851660009081526001602052604090208190556002549091506107a3908663ffffffff610c7816565b600281905560408051918252517f0a765c89e0fa6ac0a8f8406cbaa647d5ef80df5c628d462f44c94f539b90ece59181900360200190a16040805182815290516001600160a01b038616917f39df0e5286a3ef2f42a0bf52f32cfe2c58e5b0405f47fe512f2c2439e4cfe204919081900360200190a26040805183815290516001600160a01b038616917f54bbd22fee44fa42b5c289abe61f4e8711337e6f5611960d73d896fdb9917d3a919081900360200190a28215610715576006546040805163a9059cbb60e01b81526001600160a01b038781166004830152602482018690529151919092169163a9059cbb9160448083019260209291908290030181600087803b1580156108b457600080fd5b505af11580156108c8573d6000803e3d6000fd5b505050506040513d60208110156108de57600080fd5b50505050505050565b6001600160a01b03811660009081526001602052604090205461090981610e83565b600061091483610db9565b905061091f83610e26565b8315610a745760006109318584610ec2565b90506000610945848363ffffffff610ed816565b6001600160a01b0386166000908152600160205260409020819055600254909150610976908363ffffffff610ed816565b600281905560408051918252517f0a765c89e0fa6ac0a8f8406cbaa647d5ef80df5c628d462f44c94f539b90ece59181900360200190a16005546009546040805163a9059cbb60e01b81526001600160a01b039283166004820152602481018690529051919092169163a9059cbb9160448083019260209291908290030181600087803b158015610a0657600080fd5b505af1158015610a1a573d6000803e3d6000fd5b505050506040513d6020811015610a3057600080fd5b50506040805182815290516001600160a01b038716917f39df0e5286a3ef2f42a0bf52f32cfe2c58e5b0405f47fe512f2c2439e4cfe204919081900360200190a250505b6040805182815290516001600160a01b038516917f54bbd22fee44fa42b5c289abe61f4e8711337e6f5611960d73d896fdb9917d3a919081900360200190a26006546040805163a9059cbb60e01b81526001600160a01b038681166004830152602482018590529151919092169163a9059cbb9160448083019260209291908290030181600087803b158015610b0957600080fd5b505af1158015610b1d573d6000803e3d6000fd5b505050506040513d6020811015610b3357600080fd5b505050505050565b6000546001600160a01b031690565b6000546001600160a01b0316331490565b670de0b6b3a764000081565b6040518060400160405280600f81526020016e426f72726f7765725265776172647360881b81525081565b600a546001600160a01b031681565b6009546001600160a01b031681565b6005546001600160a01b031681565b6000610bca82610db9565b92915050565b60035481565b600082610be557506000610bca565b82820282848281610bf257fe5b0414610c2f5760405162461bcd60e51b81526004018080602001828103825260218152602001806110686021913960400191505060405180910390fd5b9392505050565b6000610c2f83836040518060400160405280601a81526020017f536166654d6174683a206469766973696f6e206279207a65726f000000000000815250610f1a565b600082820183811015610c2f576040805162461bcd60e51b815260206004820152601b60248201527f536166654d6174683a206164646974696f6e206f766572666c6f770000000000604482015290519081900360640190fd5b6001600160a01b038116610d2d576040805162461bcd60e51b815260206004820152601e60248201527f4163636f756e742063616e6e6f74206265207a65726f20616464726573730000604482015290519081900360640190fd5b50565b600080546040516001600160a01b03909116907f8be0079c531659141344cd1fd0a4f28419497f9722a3daafe3b4186f6b6457e0908390a3600080546001600160a01b0319169055565b60008111610d2d5760405162461bcd60e51b81526004018080602001828103825260288152602001806110406028913960400191505060405180910390fd5b6001600160a01b0381166000908152600460205260408120546003548290610e1e90670de0b6b3a76400009061051890610df9908663ffffffff610ed816565b6001600160a01b0388166000908152600160205260409020549063ffffffff610bd616565b949350505050565b6003546001600160a01b038216600081815260046020908152604091829020849055815192835282019290925281517f160e1f3577ec6bcb982526afc5cc19ec2c46ae2b021b1fc519cd5dded222cc3f929181900390910190a150565b60008111610d2d5760405162461bcd60e51b81526004018080602001828103825260308152602001806110896030913960400191505060405180910390fd5b6000818310610ed15781610c2f565b5090919050565b6000610c2f83836040518060400160405280601e81526020017f536166654d6174683a207375627472616374696f6e206f766572666c6f770000815250610fbc565b60008183610fa65760405162461bcd60e51b81526004018080602001828103825283818151815260200191508051906020019080838360005b83811015610f6b578181015183820152602001610f53565b50505050905090810190601f168015610f985780820380516001836020036101000a031916815260200191505b509250505060405180910390fd5b506000838581610fb257fe5b0495945050505050565b6000818484111561100e5760405162461bcd60e51b8152602060048201818152835160248401528351909283926044909101919085019080838360008315610f6b578181015183820152602001610f53565b50505090039056fe426f72726f776572526577617264733a2063616c6c6572206973206e6f7420416374697665506f6f6c426f72726f776572526577617264733a20416d6f756e74206d757374206265206e6f6e2d7a65726f536166654d6174683a206d756c7469706c69636174696f6e206f766572666c6f77426f72726f776572526577617264733a2055736572206d75737420686176652061206e6f6e2d7a65726f207374616b65a26469706673582212204e1959a79f99cc7072ce4f7627753839951a59e75a70671dfd2863569f6233f364736f6c634300060b0033",
  "linkReferences": {},
  "deployedLinkReferences": {}
}