{
  "_format": "hh-sol-artifact-1",
  "contractName": "BorrowerOperationsTester",
  "sourceName": "contracts/TestContracts/BorrowerOperationsTester.sol",
  "abi": [
    {
      "anonymous": false,
      "inputs": [
        {
          "indexed": false,
          "internalType": "address",
          "name": "_activePoolAddress",
          "type": "address"
        }
      ],
      "name": "ActivePoolAddressChanged",
      "type": "event"
    },
    {
      "anonymous": false,
      "inputs": [
        {
          "indexed": false,
          "internalType": "address",
          "name": "_collSurplusPoolAddress",
          "type": "address"
        }
      ],
      "name": "CollSurplusPoolAddressChanged",
      "type": "event"
    },
    {
      "anonymous": false,
      "inputs": [
        {
          "indexed": false,
          "internalType": "address",
          "name": "_defaultPoolAddress",
          "type": "address"
        }
      ],
      "name": "DefaultPoolAddressChanged",
      "type": "event"
    },
    {
      "anonymous": false,
      "inputs": [
        {
          "indexed": false,
          "internalType": "address",
          "name": "_gasPoolAddress",
          "type": "address"
        }
      ],
      "name": "GasPoolAddressChanged",
      "type": "event"
    },
    {
      "anonymous": false,
      "inputs": [
        {
          "indexed": false,
          "internalType": "address",
          "name": "_lqtyStakingAddress",
          "type": "address"
        }
      ],
      "name": "LQTYStakingAddressChanged",
      "type": "event"
    },
    {
      "anonymous": false,
      "inputs": [
        {
          "indexed": true,
          "internalType": "address",
          "name": "_borrower",
          "type": "address"
        },
        {
          "indexed": false,
          "internalType": "uint256",
          "name": "_LUSDFee",
          "type": "uint256"
        }
      ],
      "name": "LUSDBorrowingFeePaid",
      "type": "event"
    },
    {
      "anonymous": false,
      "inputs": [
        {
          "indexed": false,
          "internalType": "address",
          "name": "_lusdTokenAddress",
          "type": "address"
        }
      ],
      "name": "LUSDTokenAddressChanged",
      "type": "event"
    },
    {
      "anonymous": false,
      "inputs": [
        {
          "indexed": true,
          "internalType": "address",
          "name": "previousOwner",
          "type": "address"
        },
        {
          "indexed": true,
          "internalType": "address",
          "name": "newOwner",
          "type": "address"
        }
      ],
      "name": "OwnershipTransferred",
      "type": "event"
    },
    {
      "anonymous": false,
      "inputs": [
        {
          "indexed": false,
          "internalType": "address",
          "name": "_newPriceFeedAddress",
          "type": "address"
        }
      ],
      "name": "PriceFeedAddressChanged",
      "type": "event"
    },
    {
      "anonymous": false,
      "inputs": [
        {
          "indexed": false,
          "internalType": "address",
          "name": "_sortedTrovesAddress",
          "type": "address"
        }
      ],
      "name": "SortedTrovesAddressChanged",
      "type": "event"
    },
    {
      "anonymous": false,
      "inputs": [
        {
          "indexed": false,
          "internalType": "address",
          "name": "_stabilityPoolAddress",
          "type": "address"
        }
      ],
      "name": "StabilityPoolAddressChanged",
      "type": "event"
    },
    {
      "anonymous": false,
      "inputs": [
        {
          "indexed": true,
          "internalType": "address",
          "name": "_borrower",
          "type": "address"
        },
        {
          "indexed": false,
          "internalType": "uint256",
          "name": "arrayIndex",
          "type": "uint256"
        }
      ],
      "name": "TroveCreated",
      "type": "event"
    },
    {
      "anonymous": false,
      "inputs": [
        {
          "indexed": false,
          "internalType": "address",
          "name": "_newTroveManagerAddress",
          "type": "address"
        }
      ],
      "name": "TroveManagerAddressChanged",
      "type": "event"
    },
    {
      "anonymous": false,
      "inputs": [
        {
          "indexed": true,
          "internalType": "address",
          "name": "_borrower",
          "type": "address"
        },
        {
          "indexed": false,
          "internalType": "uint256",
          "name": "_debt",
          "type": "uint256"
        },
        {
          "indexed": false,
          "internalType": "uint256",
          "name": "_coll",
          "type": "uint256"
        },
        {
          "indexed": false,
          "internalType": "uint256",
          "name": "stake",
          "type": "uint256"
        },
        {
          "indexed": false,
          "internalType": "enum BorrowerOperations.BorrowerOperation",
          "name": "operation",
          "type": "uint8"
        }
      ],
      "name": "TroveUpdated",
      "type": "event"
    },
    {
      "inputs": [],
      "name": "BORROWING_FEE_FLOOR",
      "outputs": [
        {
          "internalType": "uint256",
          "name": "",
          "type": "uint256"
        }
      ],
      "stateMutability": "view",
      "type": "function"
    },
    {
      "inputs": [],
      "name": "CCR",
      "outputs": [
        {
          "internalType": "uint256",
          "name": "",
          "type": "uint256"
        }
      ],
      "stateMutability": "view",
      "type": "function"
    },
    {
      "inputs": [],
      "name": "DECIMAL_PRECISION",
      "outputs": [
        {
          "internalType": "uint256",
          "name": "",
          "type": "uint256"
        }
      ],
      "stateMutability": "view",
      "type": "function"
    },
    {
      "inputs": [],
      "name": "LUSD_GAS_COMPENSATION",
      "outputs": [
        {
          "internalType": "uint256",
          "name": "",
          "type": "uint256"
        }
      ],
      "stateMutability": "view",
      "type": "function"
    },
    {
      "inputs": [],
      "name": "MCR",
      "outputs": [
        {
          "internalType": "uint256",
          "name": "",
          "type": "uint256"
        }
      ],
      "stateMutability": "view",
      "type": "function"
    },
    {
      "inputs": [],
      "name": "MIN_NET_DEBT",
      "outputs": [
        {
          "internalType": "uint256",
          "name": "",
          "type": "uint256"
        }
      ],
      "stateMutability": "view",
      "type": "function"
    },
    {
      "inputs": [],
      "name": "NAME",
      "outputs": [
        {
          "internalType": "string",
          "name": "",
          "type": "string"
        }
      ],
      "stateMutability": "view",
      "type": "function"
    },
    {
      "inputs": [],
      "name": "PERCENT_DIVISOR",
      "outputs": [
        {
          "internalType": "uint256",
          "name": "",
          "type": "uint256"
        }
      ],
      "stateMutability": "view",
      "type": "function"
    },
    {
      "inputs": [],
      "name": "_100pct",
      "outputs": [
        {
          "internalType": "uint256",
          "name": "",
          "type": "uint256"
        }
      ],
      "stateMutability": "view",
      "type": "function"
    },
    {
      "inputs": [],
      "name": "activePool",
      "outputs": [
        {
          "internalType": "contract IActivePool",
          "name": "",
          "type": "address"
        }
      ],
      "stateMutability": "view",
      "type": "function"
    },
    {
      "inputs": [
        {
          "internalType": "address",
          "name": "_upperHint",
          "type": "address"
        },
        {
          "internalType": "address",
          "name": "_lowerHint",
          "type": "address"
        }
      ],
      "name": "addColl",
      "outputs": [],
      "stateMutability": "payable",
      "type": "function"
    },
    {
      "inputs": [
        {
          "internalType": "uint256",
          "name": "_maxFeePercentage",
          "type": "uint256"
        },
        {
          "internalType": "uint256",
          "name": "_collWithdrawal",
          "type": "uint256"
        },
        {
          "internalType": "uint256",
          "name": "_LUSDChange",
          "type": "uint256"
        },
        {
          "internalType": "bool",
          "name": "_isDebtIncrease",
          "type": "bool"
        },
        {
          "internalType": "address",
          "name": "_upperHint",
          "type": "address"
        },
        {
          "internalType": "address",
          "name": "_lowerHint",
          "type": "address"
        }
      ],
      "name": "adjustTrove",
      "outputs": [],
      "stateMutability": "payable",
      "type": "function"
    },
    {
      "inputs": [],
      "name": "borrowerAccountingToken",
      "outputs": [
        {
          "internalType": "contract IBorrowerAccountingToken",
          "name": "",
          "type": "address"
        }
      ],
      "stateMutability": "view",
      "type": "function"
    },
    {
      "inputs": [],
      "name": "borrowerRewards",
      "outputs": [
        {
          "internalType": "contract IBorrowerRewards",
          "name": "",
          "type": "address"
        }
      ],
      "stateMutability": "view",
      "type": "function"
    },
    {
      "inputs": [
        {
          "internalType": "address",
          "name": "_borrower",
          "type": "address"
        },
        {
          "internalType": "uint256",
          "name": "_collWithdrawal",
          "type": "uint256"
        },
        {
          "internalType": "uint256",
          "name": "_debtChange",
          "type": "uint256"
        },
        {
          "internalType": "bool",
          "name": "_isDebtIncrease",
          "type": "bool"
        },
        {
          "internalType": "address",
          "name": "_upperHint",
          "type": "address"
        },
        {
          "internalType": "address",
          "name": "_lowerHint",
          "type": "address"
        }
      ],
      "name": "callInternalAdjustLoan",
      "outputs": [],
      "stateMutability": "nonpayable",
      "type": "function"
    },
    {
      "inputs": [],
      "name": "claimCollateral",
      "outputs": [],
      "stateMutability": "nonpayable",
      "type": "function"
    },
    {
      "inputs": [],
      "name": "closeTrove",
      "outputs": [],
      "stateMutability": "nonpayable",
      "type": "function"
    },
    {
      "inputs": [],
      "name": "defaultPool",
      "outputs": [
        {
          "internalType": "contract IDefaultPool",
          "name": "",
          "type": "address"
        }
      ],
      "stateMutability": "view",
      "type": "function"
    },
    {
      "inputs": [
        {
          "internalType": "uint256",
          "name": "_debt",
          "type": "uint256"
        }
      ],
      "name": "getCompositeDebt",
      "outputs": [
        {
          "internalType": "uint256",
          "name": "",
          "type": "uint256"
        }
      ],
      "stateMutability": "pure",
      "type": "function"
    },
    {
      "inputs": [],
      "name": "getEntireSystemColl",
      "outputs": [
        {
          "internalType": "uint256",
          "name": "entireSystemColl",
          "type": "uint256"
        }
      ],
      "stateMutability": "view",
      "type": "function"
    },
    {
      "inputs": [],
      "name": "getEntireSystemDebt",
      "outputs": [
        {
          "internalType": "uint256",
          "name": "entireSystemDebt",
          "type": "uint256"
        }
      ],
      "stateMutability": "view",
      "type": "function"
    },
    {
      "inputs": [
        {
          "internalType": "uint256",
          "name": "_coll",
          "type": "uint256"
        },
        {
          "internalType": "uint256",
          "name": "_debt",
          "type": "uint256"
        },
        {
          "internalType": "uint256",
          "name": "_collChange",
          "type": "uint256"
        },
        {
          "internalType": "bool",
          "name": "isCollIncrease",
          "type": "bool"
        },
        {
          "internalType": "uint256",
          "name": "_debtChange",
          "type": "uint256"
        },
        {
          "internalType": "bool",
          "name": "isDebtIncrease",
          "type": "bool"
        },
        {
          "internalType": "uint256",
          "name": "_price",
          "type": "uint256"
        }
      ],
      "name": "getNewICRFromTroveChange",
      "outputs": [
        {
          "internalType": "uint256",
          "name": "",
          "type": "uint256"
        }
      ],
      "stateMutability": "pure",
      "type": "function"
    },
    {
      "inputs": [
        {
          "internalType": "uint256",
          "name": "_collChange",
          "type": "uint256"
        },
        {
          "internalType": "bool",
          "name": "isCollIncrease",
          "type": "bool"
        },
        {
          "internalType": "uint256",
          "name": "_debtChange",
          "type": "uint256"
        },
        {
          "internalType": "bool",
          "name": "isDebtIncrease",
          "type": "bool"
        },
        {
          "internalType": "uint256",
          "name": "_price",
          "type": "uint256"
        }
      ],
      "name": "getNewTCRFromTroveChange",
      "outputs": [
        {
          "internalType": "uint256",
          "name": "",
          "type": "uint256"
        }
      ],
      "stateMutability": "view",
      "type": "function"
    },
    {
      "inputs": [
        {
          "internalType": "uint256",
          "name": "_coll",
          "type": "uint256"
        },
        {
          "internalType": "uint256",
          "name": "_price",
          "type": "uint256"
        }
      ],
      "name": "getUSDValue",
      "outputs": [
        {
          "internalType": "uint256",
          "name": "",
          "type": "uint256"
        }
      ],
      "stateMutability": "pure",
      "type": "function"
    },
    {
      "inputs": [],
      "name": "isOwner",
      "outputs": [
        {
          "internalType": "bool",
          "name": "",
          "type": "bool"
        }
      ],
      "stateMutability": "view",
      "type": "function"
    },
    {
      "inputs": [],
      "name": "lqtyStaking",
      "outputs": [
        {
          "internalType": "contract ILQTYStaking",
          "name": "",
          "type": "address"
        }
      ],
      "stateMutability": "view",
      "type": "function"
    },
    {
      "inputs": [],
      "name": "lqtyStakingAddress",
      "outputs": [
        {
          "internalType": "address",
          "name": "",
          "type": "address"
        }
      ],
      "stateMutability": "view",
      "type": "function"
    },
    {
      "inputs": [],
      "name": "lusdToken",
      "outputs": [
        {
          "internalType": "contract ILUSDToken",
          "name": "",
          "type": "address"
        }
      ],
      "stateMutability": "view",
      "type": "function"
    },
    {
      "inputs": [
        {
          "internalType": "address",
          "name": "_borrower",
          "type": "address"
        },
        {
          "internalType": "address",
          "name": "_upperHint",
          "type": "address"
        },
        {
          "internalType": "address",
          "name": "_lowerHint",
          "type": "address"
        }
      ],
      "name": "moveETHGainToTrove",
      "outputs": [],
      "stateMutability": "payable",
      "type": "function"
    },
    {
      "inputs": [
        {
          "internalType": "uint256",
          "name": "_maxFeePercentage",
          "type": "uint256"
        },
        {
          "internalType": "uint256",
          "name": "_LUSDAmount",
          "type": "uint256"
        },
        {
          "internalType": "address",
          "name": "_upperHint",
          "type": "address"
        },
        {
          "internalType": "address",
          "name": "_lowerHint",
          "type": "address"
        }
      ],
      "name": "openTrove",
      "outputs": [],
      "stateMutability": "payable",
      "type": "function"
    },
    {
      "inputs": [],
      "name": "owner",
      "outputs": [
        {
          "internalType": "address",
          "name": "",
          "type": "address"
        }
      ],
      "stateMutability": "view",
      "type": "function"
    },
    {
      "inputs": [],
      "name": "priceFeed",
      "outputs": [
        {
          "internalType": "contract IPriceFeed",
          "name": "",
          "type": "address"
        }
      ],
      "stateMutability": "view",
      "type": "function"
    },
    {
      "inputs": [
        {
          "internalType": "uint256",
          "name": "_LUSDAmount",
          "type": "uint256"
        },
        {
          "internalType": "address",
          "name": "_upperHint",
          "type": "address"
        },
        {
          "internalType": "address",
          "name": "_lowerHint",
          "type": "address"
        }
      ],
      "name": "repayLUSD",
      "outputs": [],
      "stateMutability": "nonpayable",
      "type": "function"
    },
    {
      "inputs": [
        {
          "internalType": "address",
          "name": "_troveManagerAddress",
          "type": "address"
        },
        {
          "internalType": "address",
          "name": "_activePoolAddress",
          "type": "address"
        },
        {
          "internalType": "address",
          "name": "_defaultPoolAddress",
          "type": "address"
        },
        {
          "internalType": "address",
          "name": "_stabilityPoolAddress",
          "type": "address"
        },
        {
          "internalType": "address",
          "name": "_gasPoolAddress",
          "type": "address"
        },
        {
          "internalType": "address",
          "name": "_collSurplusPoolAddress",
          "type": "address"
        },
        {
          "internalType": "address",
          "name": "_priceFeedAddress",
          "type": "address"
        },
        {
          "internalType": "address",
          "name": "_sortedTrovesAddress",
          "type": "address"
        },
        {
          "internalType": "address",
          "name": "_lusdTokenAddress",
          "type": "address"
        },
        {
          "internalType": "address",
          "name": "_lqtyStakingAddress",
          "type": "address"
        },
        {
          "internalType": "address",
          "name": "_borrowerAccountingToken",
          "type": "address"
        },
        {
          "internalType": "address",
          "name": "_borrowerRewards",
          "type": "address"
        }
      ],
      "name": "setAddresses",
      "outputs": [],
      "stateMutability": "nonpayable",
      "type": "function"
    },
    {
      "inputs": [],
      "name": "sortedTroves",
      "outputs": [
        {
          "internalType": "contract ISortedTroves",
          "name": "",
          "type": "address"
        }
      ],
      "stateMutability": "view",
      "type": "function"
    },
    {
      "inputs": [],
      "name": "troveManager",
      "outputs": [
        {
          "internalType": "contract ITroveManager",
          "name": "",
          "type": "address"
        }
      ],
      "stateMutability": "view",
      "type": "function"
    },
    {
      "inputs": [
        {
          "internalType": "uint256",
          "name": "_collWithdrawal",
          "type": "uint256"
        },
        {
          "internalType": "address",
          "name": "_upperHint",
          "type": "address"
        },
        {
          "internalType": "address",
          "name": "_lowerHint",
          "type": "address"
        }
      ],
      "name": "withdrawColl",
      "outputs": [],
      "stateMutability": "nonpayable",
      "type": "function"
    },
    {
      "inputs": [
        {
          "internalType": "uint256",
          "name": "_maxFeePercentage",
          "type": "uint256"
        },
        {
          "internalType": "uint256",
          "name": "_LUSDAmount",
          "type": "uint256"
        },
        {
          "internalType": "address",
          "name": "_upperHint",
          "type": "address"
        },
        {
          "internalType": "address",
          "name": "_lowerHint",
          "type": "address"
        }
      ],
      "name": "withdrawLUSD",
      "outputs": [],
      "stateMutability": "nonpayable",
      "type": "function"
    },
    {
      "stateMutability": "payable",
      "type": "receive"
    }
  ],
  "bytecode": "0x608060405234801561001057600080fd5b50600380546001600160a01b031916339081179091556040516000907f8be0079c531659141344cd1fd0a4f28419497f9722a3daafe3b4186f6b6457e0908290a3613c99806100606000396000f3fe6080604052600436106102095760003560e01c8063741bef1a116101135780638da5cb5b116100ab578063ae9187541161006f578063ae91875414610791578063b83f91a2146107a6578063c6a6cf20146107bb578063ea9638bf14610803578063f92d34331461083b57610210565b80638da5cb5b146106b45780638f32d59b146106c9578063a20baee6146104fc578063a3a64017146106f2578063a3f4df7e1461070757610210565b8063741bef1a146105a1578063761ab22c146105b6578063794e5724146105cb578063795d26c3146105e05780637f7dde4a146105f557806380e76bfe1461060a578063860665b31461061f57806387eb305d14610659578063887105d31461069f57610210565b80634870dd9a116101a157806368647db11161016557806368647db1146104895780636f0b0c1c146104b75780636f30d212146104cc57806372fe25aa146104fc578063734f622d1461051157610210565b80634870dd9a146103a25780634ff81443146103b757806351584ca4146103e15780635530273c146104335780635733d58f1461047457610210565b806304491fa7146102155780630e704d50146102585780631184e5f81461026d57806319b224c1146102b45780631bf43555146102e55780632cdcd7221461030c5780632e86bbd8146103635780633cc74225146103785780633d83908a1461038d57610210565b3661021057005b600080fd5b34801561022157600080fd5b506102566004803603606081101561023857600080fd5b508035906001600160a01b0360208201358116916040013516610850565b005b34801561026457600080fd5b50610256610867565b34801561027957600080fd5b506102566004803603608081101561029057600080fd5b508035906020810135906001600160a01b0360408201358116916060013516610d2f565b3480156102c057600080fd5b506102c9610d46565b604080516001600160a01b039092168252519081900360200190f35b3480156102f157600080fd5b506102fa610d55565b60408051918252519081900360200190f35b34801561031857600080fd5b50610256600480360360c081101561032f57600080fd5b506001600160a01b0381358116916020810135916040820135916060810135151591608082013581169160a0013516610d62565b34801561036f57600080fd5b506102fa610d7a565b34801561038457600080fd5b506102c9610d86565b34801561039957600080fd5b506102c9610d95565b3480156103ae57600080fd5b506102fa610da4565b3480156103c357600080fd5b506102fa600480360360208110156103da57600080fd5b5035610da9565b3480156103ed57600080fd5b506102fa600480360360e081101561040457600080fd5b50803590602081013590604081013590606081013515159060808101359060a081013515159060c00135610dba565b34801561043f57600080fd5b506102566004803603606081101561045657600080fd5b508035906001600160a01b0360208201358116916040013516610dd7565b34801561048057600080fd5b506102fa610de8565b6102566004803603604081101561049f57600080fd5b506001600160a01b0381358116916020013516610df4565b3480156104c357600080fd5b50610256610e0a565b3480156104d857600080fd5b506102fa600480360360408110156104ef57600080fd5b5080359060200135610e6a565b34801561050857600080fd5b506102fa610e7d565b34801561051d57600080fd5b50610256600480360361018081101561053557600080fd5b506001600160a01b038135811691602081013582169160408201358116916060810135821691608082013581169160a081013582169160c082013581169160e0810135821691610100820135811691610120810135821691610140820135811691610160013516610e89565b3480156105ad57600080fd5b506102c961126a565b3480156105c257600080fd5b506102c9611279565b3480156105d757600080fd5b506102fa611288565b3480156105ec57600080fd5b506102fa611294565b34801561060157600080fd5b506102c9611395565b34801561061657600080fd5b506102c96113a4565b6102566004803603608081101561063557600080fd5b508035906020810135906001600160a01b03604082013581169160600135166113b3565b34801561066557600080fd5b506102fa600480360360a081101561067c57600080fd5b508035906020810135151590604081013590606081013515159060800135611abb565b3480156106ab57600080fd5b506102fa611ad4565b3480156106c057600080fd5b506102c9611b90565b3480156106d557600080fd5b506106de611b9f565b604080519115158252519081900360200190f35b3480156106fe57600080fd5b506102c9611bb0565b34801561071357600080fd5b5061071c611bbf565b6040805160208082528351818301528351919283929083019185019080838360005b8381101561075657818101518382015260200161073e565b50505050905090810190601f1680156107835780820380516001836020036101000a031916815260200191505b509250505060405180910390f35b34801561079d57600080fd5b506102c9611bed565b3480156107b257600080fd5b506102c9611bfc565b610256600480360360c08110156107d157600080fd5b5080359060208101359060408101359060608101351515906001600160a01b03608082013581169160a0013516611c0b565b6102566004803603606081101561081957600080fd5b506001600160a01b038135811691602081013582169160409091013516611c1a565b34801561084757600080fd5b506102fa611c34565b61086233600085600086866000611c3f565b505050565b600454600054600a546001600160a01b0392831692918216911661088b833361223c565b60025460408051630fdb11cf60e01b815290516000926001600160a01b031691630fdb11cf91600480830192602092919082900301818787803b1580156108d157600080fd5b505af11580156108e5573d6000803e3d6000fd5b505050506040513d60208110156108fb57600080fd5b5051905061090881612301565b60408051630b07655760e01b815233600482015290516001600160a01b03861691630b07655791602480830192600092919082900301818387803b15801561094f57600080fd5b505af1158015610963573d6000803e3d6000fd5b5050604080516309019aaf60e31b81523360048201529051600093506001600160a01b038816925063480cd57891602480820192602092909190829003018186803b1580156109b157600080fd5b505afa1580156109c5573d6000803e3d6000fd5b505050506040513d60208110156109db57600080fd5b50516040805163d66a255360e01b815233600482015290519192506000916001600160a01b0388169163d66a2553916024808301926020929190829003018186803b158015610a2957600080fd5b505afa158015610a3d573d6000803e3d6000fd5b505050506040513d6020811015610a5357600080fd5b50519050610a798433610a7484678ac7230489e8000063ffffffff61234916565b61238b565b6000610a8a8360008460008861244b565b9050610a95816124d6565b60408051631fc5750960e31b815233600482015290516001600160a01b0389169163fe2ba84891602480830192600092919082900301818387803b158015610adc57600080fd5b505af1158015610af0573d6000803e3d6000fd5b5050604080516365e89c5760e11b815233600482015290516001600160a01b038b16935063cbd138ae9250602480830192600092919082900301818387803b158015610b3b57600080fd5b505af1158015610b4f573d6000803e3d6000fd5b50505050336001600160a01b0316600080516020613a358339815191526000806000600160405180858152602001848152602001838152602001826002811115610b9557fe5b60ff16815260200194505050505060405180910390a2610bce868633610bc986678ac7230489e8000063ffffffff61234916565b61251d565b600654610bf090879087906001600160a01b0316678ac7230489e8000061251d565b600c54604080516341c0f0c160e11b81526004810186905233602482015290516001600160a01b0390921691638381e1829160448082019260009290919082900301818387803b158015610c4357600080fd5b505af1158015610c57573d6000803e3d6000fd5b5050600b5460408051630852cd8d60e31b81526004810188905290516001600160a01b0390921693506342966c68925060248082019260009290919082900301818387803b158015610ca857600080fd5b505af1158015610cbc573d6000803e3d6000fd5b50506040805163e7a0872b60e01b81523360048201526024810187905290516001600160a01b038a16935063e7a0872b9250604480830192600092919082900301818387803b158015610d0e57600080fd5b505af1158015610d22573d6000803e3d6000fd5b5050505050505050505050565b610d4033600085600186868a611c3f565b50505050565b600c546001600160a01b031681565b6804e1003b28d928000081565b610d728686868686866000611c3f565b505050505050565b678ac7230489e8000081565b6001546001600160a01b031681565b6004546001600160a01b031681565b60c881565b6000610db4826125f9565b92915050565b6000610dcb88888888888888612613565b98975050505050505050565b610862338460008086866000611c3f565b6714d1120d7b16000081565b610e0633600080600086866000611c3f565b5050565b6007546040805163b32beb5b60e01b815233600482015290516001600160a01b039092169163b32beb5b9160248082019260009290919082900301818387803b158015610e5657600080fd5b505af1158015610d40573d6000803e3d6000fd5b6000610e768383612646565b9392505050565b670de0b6b3a764000081565b610e91611b9f565b610ee2576040805162461bcd60e51b815260206004820181905260248201527f4f776e61626c653a2063616c6c6572206973206e6f7420746865206f776e6572604482015290519081900360640190fd5b610eeb8c612679565b610ef48b612679565b610efd8a612679565b610f0689612679565b610f0f88612679565b610f1887612679565b610f2186612679565b610f2a85612679565b610f3384612679565b610f3c83612679565b610f4582612679565b610f4e81612679565b600480546001600160a01b03199081166001600160a01b038f81169182179093556000805483168f85161790556001805483168e85161790556005805483168d85161790556006805483168c85161790556007805483168b85161790556002805483168a8516179055600d80548316898516179055600a805483168885161790556009805483168785169081179091556008805484169091179055600b80548316868516179055600c805490921692841692909217905560408051918252517f143219c9e69b09e07e095fcc889b43d8f46ca892bba65f08dc3a0050869a5678916020908290030190a1604080516001600160a01b038d16815290517f78f058b189175430c48dc02699e3a0031ea4ff781536dc2fab847de4babdd8829181900360200190a1604080516001600160a01b038c16815290517f5ee0cae2f063ed938bb55046f6a932fb6ae792bf43624806bb90abe68a50be9b9181900360200190a1604080516001600160a01b038b16815290517f82966d27eea39b038ee0fa30cd16532bb24f6e65d31cb58fb227aa5766cdcc7f9181900360200190a1604080516001600160a01b038a16815290517fcfb07d791fcafc032b35837b50eb84b74df518cf4cc287e8084f47630fa70fa09181900360200190a1604080516001600160a01b038916815290517fe67f36a6e961157d6eff83b91f3af5a62131ceb6f04954ef74f51c1c05e7f88d9181900360200190a1604080516001600160a01b038816815290517f8c537274438aa850a330284665d81a85dd38267d09e4050d416bfc94142db2649181900360200190a1604080516001600160a01b038716815290517f65f4cf077bc01e4742eb5ad98326f6e95b63548ea24b17f8d5e823111fe788009181900360200190a1604080516001600160a01b038616815290517f227eec0ec317af6ab1a9587ffa1c84332522eb4c583a908f89babc05f8f339bd9181900360200190a1604080516001600160a01b038516815290517f756ebc192164c295bba134b5aacd72cc7aff8098a670d1f0a5f6b3a0b4ce67079181900360200190a161125c6126d4565b505050505050505050505050565b6002546001600160a01b031681565b6009546001600160a01b031681565b670f43fc2c04ee000081565b6000805460408051632f5a97e560e11b8152905183926001600160a01b031691635eb52fca916004808301926020929190829003018186803b1580156112d957600080fd5b505afa1580156112ed573d6000803e3d6000fd5b505050506040513d602081101561130357600080fd5b505160015460408051632f5a97e560e11b815290519293506000926001600160a01b0390921691635eb52fca91600480820192602092909190829003018186803b15801561135057600080fd5b505afa158015611364573d6000803e3d6000fd5b505050506040513d602081101561137a57600080fd5b5051905061138e828263ffffffff61271e16565b9250505090565b6000546001600160a01b031681565b600b546001600160a01b031681565b6113bb613787565b50604080516060810182526004546001600160a01b03908116825260005481166020830152600a5416918101919091526113f36137a7565b600260009054906101000a90046001600160a01b03166001600160a01b0316630fdb11cf6040518163ffffffff1660e01b8152600401602060405180830381600087803b15801561144357600080fd5b505af1158015611457573d6000803e3d6000fd5b505050506040513d602081101561146d57600080fd5b505180825260009061147e90612778565b905061148a8782612795565b82516114969033612841565b60408201869052806114d7576114b683600001518460400151888a61291d565b6020830181905260408301516114d19163ffffffff61271e16565b60408301525b6114e48260400151612acd565b6114f182604001516125f9565b606083018190526114fe57fe5b6115113483606001518460000151612b15565b60808301526060820151611526903490612b47565b60a083015280156115435761153e8260800151612b7c565b611576565b6115508260800151612bc3565b600061156934600185606001516001876000015161244b565b9050611574816124d6565b505b825160408051635d6b480f60e01b81523360048201526001602482015290516001600160a01b0390921691635d6b480f9160448082019260009290919082900301818387803b1580156115c857600080fd5b505af11580156115dc573d6000803e3d6000fd5b50508451604080516372423c1760e01b815233600482015234602482015290516001600160a01b0390921693506372423c1792506044808201926020929091908290030181600087803b15801561163257600080fd5b505af1158015611646573d6000803e3d6000fd5b505050506040513d602081101561165c57600080fd5b50508251606083015160408051639976cf4560e01b81523360048201526024810192909252516001600160a01b0390921691639976cf45916044808201926020929091908290030181600087803b1580156116b657600080fd5b505af11580156116ca573d6000803e3d6000fd5b505050506040513d60208110156116e057600080fd5b50508251604080516382fe3eb960e01b815233600482015290516001600160a01b03909216916382fe3eb99160248082019260009290919082900301818387803b15801561172d57600080fd5b505af1158015611741573d6000803e3d6000fd5b5050845160408051630c7940bd60e11b815233600482015290516001600160a01b0390921693506318f2817a92506024808201926020929091908290030181600087803b15801561179157600080fd5b505af11580156117a5573d6000803e3d6000fd5b505050506040513d60208110156117bb57600080fd5b505160c0830152600d5460a0830151604080516346f7cf8760e01b815233600482015260248101929092526001600160a01b038881166044840152878116606484015290519216916346f7cf879160848082019260009290919082900301818387803b15801561182a57600080fd5b505af115801561183e573d6000803e3d6000fd5b50508451604080516315d549f160e01b815233600482015290516001600160a01b0390921693506315d549f192506024808201926020929091908290030181600087803b15801561188e57600080fd5b505af11580156118a2573d6000803e3d6000fd5b505050506040513d60208110156118b857600080fd5b505160e08301819052604080519182525133917f59cfd0cd754bc5748b6770e94a4ffa5f678d885cb899dcfadc5734edb97c67ab919081900360200190a2611904836020015134612c0a565b61191d8360200151846040015133898660400151612c9a565b602083015160408401516006546119489291906001600160a01b0316678ac7230489e8000080612c9a565b600b54604080516340c10f1960e01b815230600482015234602482015290516001600160a01b03909216916340c10f199160448082019260009290919082900301818387803b15801561199a57600080fd5b505af11580156119ae573d6000803e3d6000fd5b5050600c5460408051637acb775760e01b815234600482015233602482015290516001600160a01b039092169350637acb7757925060448082019260009290919082900301818387803b158015611a0457600080fd5b505af1158015611a18573d6000803e3d6000fd5b50505050336001600160a01b0316600080516020613a358339815191528360600151348560c00151600060405180858152602001848152602001838152602001826002811115611a6457fe5b60ff16815260200194505050505060405180910390a2602080830151604080519182525133927fa55c5f48fd29482ad55f4b59bf070cd1ac1a7132a31f7a136ebe8877ae37e1ff928290030190a250505050505050565b6000611aca868686868661244b565b9695505050505050565b6000805460408051630a7b61df60e11b8152905183926001600160a01b0316916314f6c3be916004808301926020929190829003018186803b158015611b1957600080fd5b505afa158015611b2d573d6000803e3d6000fd5b505050506040513d6020811015611b4357600080fd5b505160015460408051630a7b61df60e11b815290519293506000926001600160a01b03909216916314f6c3be91600480820192602092909190829003018186803b15801561135057600080fd5b6003546001600160a01b031690565b6003546001600160a01b0316331490565b6008546001600160a01b031681565b60405180604001604052806012815260200171426f72726f7765724f7065726174696f6e7360701b81525081565b600d546001600160a01b031681565b600a546001600160a01b031681565b610d723386868686868c611c3f565b611c22612d77565b61086283600080600086866000611c3f565b6611c37937e0800081565b611c47613787565b50604080516060810182526004546001600160a01b03908116825260005481166020830152600a541691810191909152611c7f6137ec565b600260009054906101000a90046001600160a01b03166001600160a01b0316630fdb11cf6040518163ffffffff1660e01b8152600401602060405180830381600087803b158015611ccf57600080fd5b505af1158015611ce3573d6000803e3d6000fd5b505050506040513d6020811015611cf957600080fd5b5051808252600090611d0a90612778565b90508615611d2557611d1c8482612795565b611d2588612dc2565b611d2e89612e01565b611d388989612e47565b8251611d44908b61223c565b336001600160a01b038b161480611d7a57506005546001600160a01b031633148015611d705750600034115b8015611d7a575087155b611d8057fe5b82600001516001600160a01b0316630b0765578b6040518263ffffffff1660e01b815260040180826001600160a01b03166001600160a01b03168152602001915050600060405180830381600087803b158015611ddc57600080fd5b505af1158015611df0573d6000803e3d6000fd5b50505050611dfe348a612e99565b15156060840152602083015260408201889052868015611e1c575080155b15611e5757611e35836000015184604001518a8761291d565b61012083018190526040830151611e519163ffffffff61271e16565b60408301525b82600001516001600160a01b031663d66a25538b6040518263ffffffff1660e01b815260040180826001600160a01b03166001600160a01b0316815260200191505060206040518083038186803b158015611eb157600080fd5b505afa158015611ec5573d6000803e3d6000fd5b505050506040513d6020811015611edb57600080fd5b505160808301528251604080516309019aaf60e31b81526001600160a01b038d811660048301529151919092169163480cd578916024808301926020929190829003018186803b158015611f2e57600080fd5b505afa158015611f42573d6000803e3d6000fd5b505050506040513d6020811015611f5857600080fd5b505160a0830181905260808301518351611f73929190612b15565b8260c0018181525050611fa38260a0015183608001518460200151856060015186604001518c8860000151612613565b60e083015260a0820151891115611fb657fe5b611fc2818a8985612eb8565b86158015611fd05750600088115b1561202357611ffe611ff98360400151611fed8560800151612f2c565b9063ffffffff61234916565b612acd565b61201082608001518360400151612f46565b61202383604001518b846040015161238b565b61204183600001518b8460200151856060015186604001518c612f9c565b610140840152610160830152825160408051630c7940bd60e11b81526001600160a01b038d81166004830152915191909216916318f2817a9160248083019260209291908290030181600087803b15801561209b57600080fd5b505af11580156120af573d6000803e3d6000fd5b505050506040513d60208110156120c557600080fd5b505161018083015260a082015160808301516020840151606085015160408601516000946120f9949093909290918d6131fc565b600d546040805163015f109360e51b81526001600160a01b038f81166004830152602482018590528b811660448301528a811660648301529151939450911691632be212609160848082019260009290919082900301818387803b15801561216057600080fd5b505af1158015612174573d6000803e3d6000fd5b505050508a6001600160a01b0316600080516020613a358339815191528461014001518561016001518661018001516002604051808581526020018481526020018381526020018260028111156121c757fe5b60ff16815260200194505050505060405180910390a2610120830151604080519182525133917fa55c5f48fd29482ad55f4b59bf070cd1ac1a7132a31f7a136ebe8877ae37e1ff919081900360200190a2610d228460200151856040015133866020015187606001518e8e8a6040015161322d565b6000826001600160a01b03166321e37801836040518263ffffffff1660e01b815260040180826001600160a01b03166001600160a01b0316815260200191505060206040518083038186803b15801561229457600080fd5b505afa1580156122a8573d6000803e3d6000fd5b505050506040513d60208110156122be57600080fd5b50519050600181146108625760405162461bcd60e51b815260040180806020018281038252602e815260200180613a07602e913960400191505060405180910390fd5b61230a81612778565b156123465760405162461bcd60e51b81526004018080602001828103825260398152602001806138b56039913960400191505060405180910390fd5b50565b6000610e7683836040518060400160405280601e81526020017f536166654d6174683a207375627472616374696f6e206f766572666c6f770000815250613480565b80836001600160a01b03166370a08231846040518263ffffffff1660e01b815260040180826001600160a01b03166001600160a01b0316815260200191505060206040518083038186803b1580156123e257600080fd5b505afa1580156123f6573d6000803e3d6000fd5b505050506040513d602081101561240c57600080fd5b505110156108625760405162461bcd60e51b815260040180806020018281038252603d815260200180613a93603d913960400191505060405180910390fd5b600080612456611ad4565b90506000612462611294565b90508661247e57612479828963ffffffff61234916565b61248e565b61248e828963ffffffff61271e16565b9150846124aa576124a5818763ffffffff61234916565b6124ba565b6124ba818763ffffffff61271e16565b905060006124c9838387612b15565b9998505050505050505050565b6714d1120d7b1600008110156123465760405162461bcd60e51b81526004018080602001828103825260498152602001806139be6049913960600191505060405180910390fd5b836001600160a01b03166338d995a8826040518263ffffffff1660e01b815260040180828152602001915050600060405180830381600087803b15801561256357600080fd5b505af1158015612577573d6000803e3d6000fd5b50505050826001600160a01b0316639dc29fac83836040518363ffffffff1660e01b815260040180836001600160a01b03166001600160a01b0316815260200182815260200192505050600060405180830381600087803b1580156125db57600080fd5b505af11580156125ef573d6000803e3d6000fd5b5050505050505050565b6000610db482678ac7230489e8000063ffffffff61271e16565b60008060006126268a8a8a8a8a8a613517565b915091506000612637838387612b15565b9b9a5050505050505050505050565b600080612671670de0b6b3a7640000612665858763ffffffff61357216565b9063ffffffff6135cb16565b949350505050565b6001600160a01b038116612346576040805162461bcd60e51b815260206004820152601e60248201527f4163636f756e742063616e6e6f74206265207a65726f20616464726573730000604482015290519081900360640190fd5b6003546040516000916001600160a01b0316907f8be0079c531659141344cd1fd0a4f28419497f9722a3daafe3b4186f6b6457e0908390a3600380546001600160a01b0319169055565b600082820183811015610e76576040805162461bcd60e51b815260206004820152601b60248201527f536166654d6174683a206164646974696f6e206f766572666c6f770000000000604482015290519081900360640190fd5b6000806127848361360d565b6714d1120d7b160000119392505050565b80156127e757670de0b6b3a76400008211156127e25760405162461bcd60e51b81526004018080602001828103825260328152602001806139256032913960400191505060405180910390fd5b610e06565b6611c37937e0800082108015906128065750670de0b6b3a76400008211155b610e065760405162461bcd60e51b8152600401808060200182810382526030815260200180613bbf6030913960400191505060405180910390fd5b6000826001600160a01b03166321e37801836040518263ffffffff1660e01b815260040180826001600160a01b03166001600160a01b0316815260200191505060206040518083038186803b15801561289957600080fd5b505afa1580156128ad573d6000803e3d6000fd5b505050506040513d60208110156128c357600080fd5b505190506001811415610862576040805162461bcd60e51b815260206004820152601c60248201527f426f72726f7765724f70733a2054726f76652069732061637469766500000000604482015290519081900360640190fd5b6000846001600160a01b0316635dba4c4a6040518163ffffffff1660e01b8152600401600060405180830381600087803b15801561295a57600080fd5b505af115801561296e573d6000803e3d6000fd5b505050506000856001600160a01b031663631203b0856040518263ffffffff1660e01b81526004018082815260200191505060206040518083038186803b1580156129b857600080fd5b505afa1580156129cc573d6000803e3d6000fd5b505050506040513d60208110156129e257600080fd5b505190506129f1818585613631565b60085460408051634677ffb360e01b81526004810184905290516001600160a01b0390921691634677ffb39160248082019260009290919082900301818387803b158015612a3e57600080fd5b505af1158015612a52573d6000803e3d6000fd5b5050600954604080516340c10f1960e01b81526001600160a01b03928316600482015260248101869052905191891693506340c10f19925060448082019260009290919082900301818387803b158015612aab57600080fd5b505af1158015612abf573d6000803e3d6000fd5b509298975050505050505050565b6804e1003b28d92800008110156123465760405162461bcd60e51b815260040180806020018281038252603a815260200180613b19603a913960400191505060405180910390fd5b60008215612b3c576000612b3384612665878663ffffffff61357216565b9150610e769050565b506000199392505050565b60008115612b7357612b6c826126658568056bc75e2d6310000063ffffffff61357216565b9050610db4565b50600019610db4565b6714d1120d7b1600008110156123465760405162461bcd60e51b81526004018080602001828103825260378152602001806138ee6037913960400191505060405180910390fd5b670f43fc2c04ee00008110156123465760405162461bcd60e51b8152600401808060200182810382526049815260200180613ad06049913960600191505060405180910390fd5b6040516000906001600160a01b0384169083908381818185875af1925050503d8060008114612c55576040519150601f19603f3d011682016040523d82523d6000602084013e612c5a565b606091505b50509050806108625760405162461bcd60e51b815260040180806020018281038252602e815260200180613857602e913960400191505060405180910390fd5b846001600160a01b031663cfb9329a826040518263ffffffff1660e01b815260040180828152602001915050600060405180830381600087803b158015612ce057600080fd5b505af1158015612cf4573d6000803e3d6000fd5b50505050836001600160a01b03166340c10f1984846040518363ffffffff1660e01b815260040180836001600160a01b03166001600160a01b0316815260200182815260200192505050600060405180830381600087803b158015612d5857600080fd5b505af1158015612d6c573d6000803e3d6000fd5b505050505050505050565b6005546001600160a01b03163314612dc05760405162461bcd60e51b8152600401808060200182810382526029815260200180613b966029913960400191505060405180910390fd5b565b600081116123465760405162461bcd60e51b8152600401808060200182810382526037815260200180613bef6037913960400191505060405180910390fd5b341580612e0c575080155b6123465760405162461bcd60e51b81526004018080602001828103825260308152602001806138856030913960400191505060405180910390fd5b34151580612e5457508115155b80612e5e57508015155b610e065760405162461bcd60e51b81526004018080602001828103825260468152602001806139576046913960600191505060405180910390fd5b6000808315612ead57508290506001612eb1565b8291505b9250929050565b8315612ef157612ec7836136a6565b8115612eec57612eda8160e00151612b7c565b612eec8160e001518260c001516136e3565b610d40565b612efe8160e00151612bc3565b612f1b81602001518260600151836040015185856000015161244b565b6101008201819052610d40906124d6565b6000610db482678ac7230489e8000063ffffffff61234916565b612f5e82678ac7230489e8000063ffffffff61234916565b811115610e065760405162461bcd60e51b8152600401808060200182810382526043815260200180613b536043913960600191505060405180910390fd5b60008060008561303757886001600160a01b031663d3d6f84389896040518363ffffffff1660e01b815260040180836001600160a01b03166001600160a01b0316815260200182815260200192505050602060405180830381600087803b15801561300657600080fd5b505af115801561301a573d6000803e3d6000fd5b505050506040513d602081101561303057600080fd5b50516130c4565b886001600160a01b03166372423c1789896040518363ffffffff1660e01b815260040180836001600160a01b03166001600160a01b0316815260200182815260200192505050602060405180830381600087803b15801561309757600080fd5b505af11580156130ab573d6000803e3d6000fd5b505050506040513d60208110156130c157600080fd5b50515b905060008461315e57896001600160a01b03166312610e928a886040518363ffffffff1660e01b815260040180836001600160a01b03166001600160a01b0316815260200182815260200192505050602060405180830381600087803b15801561312d57600080fd5b505af1158015613141573d6000803e3d6000fd5b505050506040513d602081101561315757600080fd5b50516131eb565b896001600160a01b0316639976cf458a886040518363ffffffff1660e01b815260040180836001600160a01b03166001600160a01b0316815260200182815260200192505050602060405180830381600087803b1580156131be57600080fd5b505af11580156131d2573d6000803e3d6000fd5b505050506040513d60208110156131e857600080fd5b50515b919a91995090975050505050505050565b600080600061320f898989898989613517565b91509150600061321f8383612b47565b9a9950505050505050505050565b8115613245576132408888888685612c9a565b613251565b6132518888888661251d565b831561333c576132618886612c0a565b600b54604080516340c10f1960e01b81523060048201526024810188905290516001600160a01b03909216916340c10f199160448082019260009290919082900301818387803b1580156132b457600080fd5b505af11580156132c8573d6000803e3d6000fd5b5050600c5460408051637acb775760e01b8152600481018a905233602482015290516001600160a01b039092169350637acb7757925060448082019260009290919082900301818387803b15801561331f57600080fd5b505af1158015613333573d6000803e3d6000fd5b505050506125ef565b600c54604080516341c0f0c160e11b81526004810188905233602482015290516001600160a01b0390921691638381e1829160448082019260009290919082900301818387803b15801561338f57600080fd5b505af11580156133a3573d6000803e3d6000fd5b5050600b5460408051630852cd8d60e31b8152600481018a905290516001600160a01b0390921693506342966c68925060248082019260009290919082900301818387803b1580156133f457600080fd5b505af1158015613408573d6000803e3d6000fd5b50505050876001600160a01b031663e7a0872b87876040518363ffffffff1660e01b815260040180836001600160a01b03166001600160a01b0316815260200182815260200192505050600060405180830381600087803b15801561346c57600080fd5b505af115801561125c573d6000803e3d6000fd5b6000818484111561350f5760405162461bcd60e51b81526004018080602001828103825283818151815260200191508051906020019080838360005b838110156134d45781810151838201526020016134bc565b50505050905090810190601f1680156135015780820380516001836020036101000a031916815260200191505b509250505060405180910390fd5b505050900390565b600080878786613536576135318a8963ffffffff61234916565b613546565b6135468a8963ffffffff61271e16565b9150846135625761355d898763ffffffff61234916565b6131eb565b6131eb898763ffffffff61271e16565b60008261358157506000610db4565b8282028284828161358e57fe5b0414610e765760405162461bcd60e51b815260040180806020018281038252602181526020018061399d6021913960400191505060405180910390fd5b6000610e7683836040518060400160405280601a81526020017f536166654d6174683a206469766973696f6e206279207a65726f000000000000815250613722565b600080613618611ad4565b90506000613624611294565b9050612671828286612b15565b600061364f8361266586670de0b6b3a764000063ffffffff61357216565b905081811115610d40576040805162461bcd60e51b815260206004820152601d60248201527f4665652065786365656465642070726f7669646564206d6178696d756d000000604482015290519081900360640190fd5b80156123465760405162461bcd60e51b815260040180806020018281038252603e815260200180613a55603e913960400191505060405180910390fd5b80821015610e065760405162461bcd60e51b815260040180806020018281038252603e815260200180613c26603e913960400191505060405180910390fd5b600081836137715760405162461bcd60e51b81526020600482018181528351602484015283519092839260449091019190850190808383600083156134d45781810151838201526020016134bc565b50600083858161377d57fe5b0495945050505050565b604080516060810182526000808252602082018190529181019190915290565b60405180610100016040528060008152602001600081526020016000815260200160008152602001600081526020016000815260200160008152602001600081525090565b604051806101a00160405280600081526020016000815260200160008152602001600015158152602001600081526020016000815260200160008152602001600081526020016000815260200160008152602001600081526020016000815260200160008152509056fe426f72726f7765724f70733a2053656e64696e6720544c4f5320746f20416374697665506f6f6c206661696c6564426f72726f7765724f7065726174696f6e733a2043616e6e6f7420776974686472617720616e642061646420636f6c6c426f72726f7765724f70733a204f7065726174696f6e206e6f74207065726d697474656420647572696e67205265636f76657279204d6f6465426f72726f7765724f70733a204f7065726174696f6e206d757374206c656176652074726f7665207769746820494352203e3d204343524d6178206665652070657263656e74616765206d757374206c657373207468616e206f7220657175616c20746f2031303025426f72726f7765724f70733a205468657265206d75737420626520656974686572206120636f6c6c61746572616c206368616e6765206f7220612064656274206368616e6765536166654d6174683a206d756c7469706c69636174696f6e206f766572666c6f77426f72726f7765724f70733a20416e206f7065726174696f6e207468617420776f756c6420726573756c7420696e20544352203c20434352206973206e6f74207065726d6974746564426f72726f7765724f70733a2054726f766520646f6573206e6f74206578697374206f7220697320636c6f736564c3770d654ed33aeea6bf11ac8ef05d02a6a04ed4686dd2f624d853bbec43cc8b426f72726f7765724f70733a20436f6c6c61746572616c207769746864726177616c206e6f74207065726d6974746564205265636f76657279204d6f6465426f72726f7765724f70733a2043616c6c657220646f65736e74206861766520656e6f756768204c55534420746f206d616b652072657061796d656e74426f72726f7765724f70733a20416e206f7065726174696f6e207468617420776f756c6420726573756c7420696e20494352203c204d4352206973206e6f74207065726d6974746564426f72726f7765724f70733a2054726f76652773206e65742064656274206d7573742062652067726561746572207468616e206d696e696d756d426f72726f7765724f70733a20416d6f756e7420726570616964206d757374206e6f74206265206c6172676572207468616e207468652054726f766527732064656274426f72726f7765724f70733a2043616c6c6572206973206e6f742053746162696c69747920506f6f6c4d6178206665652070657263656e74616765206d757374206265206265747765656e20302e352520616e642031303025426f72726f7765724f70733a204465627420696e637265617365207265717569726573206e6f6e2d7a65726f20646562744368616e6765426f72726f7765724f70733a2043616e6e6f7420646563726561736520796f75722054726f766527732049435220696e205265636f76657279204d6f6465a264697066735822122028bc1405ff252b2f4a31db22338dd121157258ec7d487be5ec617428e619d2a264736f6c634300060b0033",
  "linkReferences": {},
  "deployedLinkReferences": {}
}