{
  "_format": "hh-sol-artifact-1",
  "contractName": "BorrowerOperations",
  "sourceName": "contracts/BorrowerOperations.sol",
  "abi": [
    {
      "anonymous": false,
      "inputs": [
        {
          "indexed": false,
          "internalType": "address",
          "name": "_activePoolAddress",
          "type": "address"
        }
      ],
      "name": "ActivePoolAddressChanged",
      "type": "event"
    },
    {
      "anonymous": false,
      "inputs": [
        {
          "indexed": false,
          "internalType": "address",
          "name": "_collSurplusPoolAddress",
          "type": "address"
        }
      ],
      "name": "CollSurplusPoolAddressChanged",
      "type": "event"
    },
    {
      "anonymous": false,
      "inputs": [
        {
          "indexed": false,
          "internalType": "address",
          "name": "_defaultPoolAddress",
          "type": "address"
        }
      ],
      "name": "DefaultPoolAddressChanged",
      "type": "event"
    },
    {
      "anonymous": false,
      "inputs": [
        {
          "indexed": false,
          "internalType": "address",
          "name": "_gasPoolAddress",
          "type": "address"
        }
      ],
      "name": "GasPoolAddressChanged",
      "type": "event"
    },
    {
      "anonymous": false,
      "inputs": [
        {
          "indexed": false,
          "internalType": "address",
          "name": "_lqtyStakingAddress",
          "type": "address"
        }
      ],
      "name": "LQTYStakingAddressChanged",
      "type": "event"
    },
    {
      "anonymous": false,
      "inputs": [
        {
          "indexed": true,
          "internalType": "address",
          "name": "_borrower",
          "type": "address"
        },
        {
          "indexed": false,
          "internalType": "uint256",
          "name": "_LUSDFee",
          "type": "uint256"
        }
      ],
      "name": "LUSDBorrowingFeePaid",
      "type": "event"
    },
    {
      "anonymous": false,
      "inputs": [
        {
          "indexed": false,
          "internalType": "address",
          "name": "_lusdTokenAddress",
          "type": "address"
        }
      ],
      "name": "LUSDTokenAddressChanged",
      "type": "event"
    },
    {
      "anonymous": false,
      "inputs": [
        {
          "indexed": true,
          "internalType": "address",
          "name": "previousOwner",
          "type": "address"
        },
        {
          "indexed": true,
          "internalType": "address",
          "name": "newOwner",
          "type": "address"
        }
      ],
      "name": "OwnershipTransferred",
      "type": "event"
    },
    {
      "anonymous": false,
      "inputs": [
        {
          "indexed": false,
          "internalType": "address",
          "name": "_newPriceFeedAddress",
          "type": "address"
        }
      ],
      "name": "PriceFeedAddressChanged",
      "type": "event"
    },
    {
      "anonymous": false,
      "inputs": [
        {
          "indexed": false,
          "internalType": "address",
          "name": "_sortedTrovesAddress",
          "type": "address"
        }
      ],
      "name": "SortedTrovesAddressChanged",
      "type": "event"
    },
    {
      "anonymous": false,
      "inputs": [
        {
          "indexed": false,
          "internalType": "address",
          "name": "_stabilityPoolAddress",
          "type": "address"
        }
      ],
      "name": "StabilityPoolAddressChanged",
      "type": "event"
    },
    {
      "anonymous": false,
      "inputs": [
        {
          "indexed": true,
          "internalType": "address",
          "name": "_borrower",
          "type": "address"
        },
        {
          "indexed": false,
          "internalType": "uint256",
          "name": "arrayIndex",
          "type": "uint256"
        }
      ],
      "name": "TroveCreated",
      "type": "event"
    },
    {
      "anonymous": false,
      "inputs": [
        {
          "indexed": false,
          "internalType": "address",
          "name": "_newTroveManagerAddress",
          "type": "address"
        }
      ],
      "name": "TroveManagerAddressChanged",
      "type": "event"
    },
    {
      "anonymous": false,
      "inputs": [
        {
          "indexed": true,
          "internalType": "address",
          "name": "_borrower",
          "type": "address"
        },
        {
          "indexed": false,
          "internalType": "uint256",
          "name": "_debt",
          "type": "uint256"
        },
        {
          "indexed": false,
          "internalType": "uint256",
          "name": "_coll",
          "type": "uint256"
        },
        {
          "indexed": false,
          "internalType": "uint256",
          "name": "stake",
          "type": "uint256"
        },
        {
          "indexed": false,
          "internalType": "enum BorrowerOperations.BorrowerOperation",
          "name": "operation",
          "type": "uint8"
        }
      ],
      "name": "TroveUpdated",
      "type": "event"
    },
    {
      "inputs": [],
      "name": "BORROWING_FEE_FLOOR",
      "outputs": [
        {
          "internalType": "uint256",
          "name": "",
          "type": "uint256"
        }
      ],
      "stateMutability": "view",
      "type": "function"
    },
    {
      "inputs": [],
      "name": "CCR",
      "outputs": [
        {
          "internalType": "uint256",
          "name": "",
          "type": "uint256"
        }
      ],
      "stateMutability": "view",
      "type": "function"
    },
    {
      "inputs": [],
      "name": "DECIMAL_PRECISION",
      "outputs": [
        {
          "internalType": "uint256",
          "name": "",
          "type": "uint256"
        }
      ],
      "stateMutability": "view",
      "type": "function"
    },
    {
      "inputs": [],
      "name": "LUSD_GAS_COMPENSATION",
      "outputs": [
        {
          "internalType": "uint256",
          "name": "",
          "type": "uint256"
        }
      ],
      "stateMutability": "view",
      "type": "function"
    },
    {
      "inputs": [],
      "name": "MCR",
      "outputs": [
        {
          "internalType": "uint256",
          "name": "",
          "type": "uint256"
        }
      ],
      "stateMutability": "view",
      "type": "function"
    },
    {
      "inputs": [],
      "name": "MIN_NET_DEBT",
      "outputs": [
        {
          "internalType": "uint256",
          "name": "",
          "type": "uint256"
        }
      ],
      "stateMutability": "view",
      "type": "function"
    },
    {
      "inputs": [],
      "name": "NAME",
      "outputs": [
        {
          "internalType": "string",
          "name": "",
          "type": "string"
        }
      ],
      "stateMutability": "view",
      "type": "function"
    },
    {
      "inputs": [],
      "name": "PERCENT_DIVISOR",
      "outputs": [
        {
          "internalType": "uint256",
          "name": "",
          "type": "uint256"
        }
      ],
      "stateMutability": "view",
      "type": "function"
    },
    {
      "inputs": [],
      "name": "_100pct",
      "outputs": [
        {
          "internalType": "uint256",
          "name": "",
          "type": "uint256"
        }
      ],
      "stateMutability": "view",
      "type": "function"
    },
    {
      "inputs": [],
      "name": "activePool",
      "outputs": [
        {
          "internalType": "contract IActivePool",
          "name": "",
          "type": "address"
        }
      ],
      "stateMutability": "view",
      "type": "function"
    },
    {
      "inputs": [
        {
          "internalType": "address",
          "name": "_upperHint",
          "type": "address"
        },
        {
          "internalType": "address",
          "name": "_lowerHint",
          "type": "address"
        }
      ],
      "name": "addColl",
      "outputs": [],
      "stateMutability": "payable",
      "type": "function"
    },
    {
      "inputs": [
        {
          "internalType": "uint256",
          "name": "_maxFeePercentage",
          "type": "uint256"
        },
        {
          "internalType": "uint256",
          "name": "_collWithdrawal",
          "type": "uint256"
        },
        {
          "internalType": "uint256",
          "name": "_LUSDChange",
          "type": "uint256"
        },
        {
          "internalType": "bool",
          "name": "_isDebtIncrease",
          "type": "bool"
        },
        {
          "internalType": "address",
          "name": "_upperHint",
          "type": "address"
        },
        {
          "internalType": "address",
          "name": "_lowerHint",
          "type": "address"
        }
      ],
      "name": "adjustTrove",
      "outputs": [],
      "stateMutability": "payable",
      "type": "function"
    },
    {
      "inputs": [],
      "name": "borrowerAccountingToken",
      "outputs": [
        {
          "internalType": "contract IBorrowerAccountingToken",
          "name": "",
          "type": "address"
        }
      ],
      "stateMutability": "view",
      "type": "function"
    },
    {
      "inputs": [],
      "name": "borrowerRewards",
      "outputs": [
        {
          "internalType": "contract IBorrowerRewards",
          "name": "",
          "type": "address"
        }
      ],
      "stateMutability": "view",
      "type": "function"
    },
    {
      "inputs": [],
      "name": "claimCollateral",
      "outputs": [],
      "stateMutability": "nonpayable",
      "type": "function"
    },
    {
      "inputs": [],
      "name": "closeTrove",
      "outputs": [],
      "stateMutability": "nonpayable",
      "type": "function"
    },
    {
      "inputs": [],
      "name": "defaultPool",
      "outputs": [
        {
          "internalType": "contract IDefaultPool",
          "name": "",
          "type": "address"
        }
      ],
      "stateMutability": "view",
      "type": "function"
    },
    {
      "inputs": [
        {
          "internalType": "uint256",
          "name": "_debt",
          "type": "uint256"
        }
      ],
      "name": "getCompositeDebt",
      "outputs": [
        {
          "internalType": "uint256",
          "name": "",
          "type": "uint256"
        }
      ],
      "stateMutability": "pure",
      "type": "function"
    },
    {
      "inputs": [],
      "name": "getEntireSystemColl",
      "outputs": [
        {
          "internalType": "uint256",
          "name": "entireSystemColl",
          "type": "uint256"
        }
      ],
      "stateMutability": "view",
      "type": "function"
    },
    {
      "inputs": [],
      "name": "getEntireSystemDebt",
      "outputs": [
        {
          "internalType": "uint256",
          "name": "entireSystemDebt",
          "type": "uint256"
        }
      ],
      "stateMutability": "view",
      "type": "function"
    },
    {
      "inputs": [],
      "name": "isOwner",
      "outputs": [
        {
          "internalType": "bool",
          "name": "",
          "type": "bool"
        }
      ],
      "stateMutability": "view",
      "type": "function"
    },
    {
      "inputs": [],
      "name": "lqtyStaking",
      "outputs": [
        {
          "internalType": "contract ILQTYStaking",
          "name": "",
          "type": "address"
        }
      ],
      "stateMutability": "view",
      "type": "function"
    },
    {
      "inputs": [],
      "name": "lqtyStakingAddress",
      "outputs": [
        {
          "internalType": "address",
          "name": "",
          "type": "address"
        }
      ],
      "stateMutability": "view",
      "type": "function"
    },
    {
      "inputs": [],
      "name": "lusdToken",
      "outputs": [
        {
          "internalType": "contract ILUSDToken",
          "name": "",
          "type": "address"
        }
      ],
      "stateMutability": "view",
      "type": "function"
    },
    {
      "inputs": [
        {
          "internalType": "address",
          "name": "_borrower",
          "type": "address"
        },
        {
          "internalType": "address",
          "name": "_upperHint",
          "type": "address"
        },
        {
          "internalType": "address",
          "name": "_lowerHint",
          "type": "address"
        }
      ],
      "name": "moveETHGainToTrove",
      "outputs": [],
      "stateMutability": "payable",
      "type": "function"
    },
    {
      "inputs": [
        {
          "internalType": "uint256",
          "name": "_maxFeePercentage",
          "type": "uint256"
        },
        {
          "internalType": "uint256",
          "name": "_LUSDAmount",
          "type": "uint256"
        },
        {
          "internalType": "address",
          "name": "_upperHint",
          "type": "address"
        },
        {
          "internalType": "address",
          "name": "_lowerHint",
          "type": "address"
        }
      ],
      "name": "openTrove",
      "outputs": [],
      "stateMutability": "payable",
      "type": "function"
    },
    {
      "inputs": [],
      "name": "owner",
      "outputs": [
        {
          "internalType": "address",
          "name": "",
          "type": "address"
        }
      ],
      "stateMutability": "view",
      "type": "function"
    },
    {
      "inputs": [],
      "name": "priceFeed",
      "outputs": [
        {
          "internalType": "contract IPriceFeed",
          "name": "",
          "type": "address"
        }
      ],
      "stateMutability": "view",
      "type": "function"
    },
    {
      "inputs": [
        {
          "internalType": "uint256",
          "name": "_LUSDAmount",
          "type": "uint256"
        },
        {
          "internalType": "address",
          "name": "_upperHint",
          "type": "address"
        },
        {
          "internalType": "address",
          "name": "_lowerHint",
          "type": "address"
        }
      ],
      "name": "repayLUSD",
      "outputs": [],
      "stateMutability": "nonpayable",
      "type": "function"
    },
    {
      "inputs": [
        {
          "internalType": "address",
          "name": "_troveManagerAddress",
          "type": "address"
        },
        {
          "internalType": "address",
          "name": "_activePoolAddress",
          "type": "address"
        },
        {
          "internalType": "address",
          "name": "_defaultPoolAddress",
          "type": "address"
        },
        {
          "internalType": "address",
          "name": "_stabilityPoolAddress",
          "type": "address"
        },
        {
          "internalType": "address",
          "name": "_gasPoolAddress",
          "type": "address"
        },
        {
          "internalType": "address",
          "name": "_collSurplusPoolAddress",
          "type": "address"
        },
        {
          "internalType": "address",
          "name": "_priceFeedAddress",
          "type": "address"
        },
        {
          "internalType": "address",
          "name": "_sortedTrovesAddress",
          "type": "address"
        },
        {
          "internalType": "address",
          "name": "_lusdTokenAddress",
          "type": "address"
        },
        {
          "internalType": "address",
          "name": "_lqtyStakingAddress",
          "type": "address"
        },
        {
          "internalType": "address",
          "name": "_borrowerAccountingToken",
          "type": "address"
        },
        {
          "internalType": "address",
          "name": "_borrowerRewards",
          "type": "address"
        }
      ],
      "name": "setAddresses",
      "outputs": [],
      "stateMutability": "nonpayable",
      "type": "function"
    },
    {
      "inputs": [],
      "name": "sortedTroves",
      "outputs": [
        {
          "internalType": "contract ISortedTroves",
          "name": "",
          "type": "address"
        }
      ],
      "stateMutability": "view",
      "type": "function"
    },
    {
      "inputs": [],
      "name": "troveManager",
      "outputs": [
        {
          "internalType": "contract ITroveManager",
          "name": "",
          "type": "address"
        }
      ],
      "stateMutability": "view",
      "type": "function"
    },
    {
      "inputs": [
        {
          "internalType": "uint256",
          "name": "_collWithdrawal",
          "type": "uint256"
        },
        {
          "internalType": "address",
          "name": "_upperHint",
          "type": "address"
        },
        {
          "internalType": "address",
          "name": "_lowerHint",
          "type": "address"
        }
      ],
      "name": "withdrawColl",
      "outputs": [],
      "stateMutability": "nonpayable",
      "type": "function"
    },
    {
      "inputs": [
        {
          "internalType": "uint256",
          "name": "_maxFeePercentage",
          "type": "uint256"
        },
        {
          "internalType": "uint256",
          "name": "_LUSDAmount",
          "type": "uint256"
        },
        {
          "internalType": "address",
          "name": "_upperHint",
          "type": "address"
        },
        {
          "internalType": "address",
          "name": "_lowerHint",
          "type": "address"
        }
      ],
      "name": "withdrawLUSD",
      "outputs": [],
      "stateMutability": "nonpayable",
      "type": "function"
    }
  ],
  "bytecode": "0x608060405234801561001057600080fd5b50600380546001600160a01b031916339081179091556040516000907f8be0079c531659141344cd1fd0a4f28419497f9722a3daafe3b4186f6b6457e0908290a3613ab2806100606000396000f3fe6080604052600436106101b95760003560e01c8063761ab22c116100ed5780638f32d59b116100905780638f32d59b14610553578063a20baee6146103cc578063a3a640171461057c578063a3f4df7e14610591578063ae9187541461061b578063b83f91a214610630578063c6a6cf2014610645578063ea9638bf1461068d578063f92d3433146106c5576101b9565b8063761ab22c14610486578063794e57241461049b578063795d26c3146104b05780637f7dde4a146104c557806380e76bfe146104da578063860665b3146104ef578063887105d3146105295780638da5cb5b1461053e576101b9565b80634870dd9a116101605780634870dd9a146102f45780634ff81443146103095780635530273c146103335780635733d58f1461037457806368647db1146103895780636f0b0c1c146103b757806372fe25aa146103cc578063734f622d146103e1578063741bef1a14610471576101b9565b806304491fa7146101be5780630e704d50146102015780631184e5f81461021657806319b224c11461025d5780631bf435551461028e5780632e86bbd8146102b55780633cc74225146102ca5780633d83908a146102df575b600080fd5b3480156101ca57600080fd5b506101ff600480360360608110156101e157600080fd5b508035906001600160a01b03602082013581169160400135166106da565b005b34801561020d57600080fd5b506101ff6106f1565b34801561022257600080fd5b506101ff6004803603608081101561023957600080fd5b508035906020810135906001600160a01b0360408201358116916060013516610bb9565b34801561026957600080fd5b50610272610bd0565b604080516001600160a01b039092168252519081900360200190f35b34801561029a57600080fd5b506102a3610bdf565b60408051918252519081900360200190f35b3480156102c157600080fd5b506102a3610bec565b3480156102d657600080fd5b50610272610bf8565b3480156102eb57600080fd5b50610272610c07565b34801561030057600080fd5b506102a3610c16565b34801561031557600080fd5b506102a36004803603602081101561032c57600080fd5b5035610c1b565b34801561033f57600080fd5b506101ff6004803603606081101561035657600080fd5b508035906001600160a01b0360208201358116916040013516610c2c565b34801561038057600080fd5b506102a3610c3d565b6101ff6004803603604081101561039f57600080fd5b506001600160a01b0381358116916020013516610c49565b3480156103c357600080fd5b506101ff610c5f565b3480156103d857600080fd5b506102a3610cbf565b3480156103ed57600080fd5b506101ff600480360361018081101561040557600080fd5b506001600160a01b038135811691602081013582169160408201358116916060810135821691608082013581169160a081013582169160c082013581169160e0810135821691610100820135811691610120810135821691610140820135811691610160013516610ccb565b34801561047d57600080fd5b506102726110ac565b34801561049257600080fd5b506102726110bb565b3480156104a757600080fd5b506102a36110ca565b3480156104bc57600080fd5b506102a36110d6565b3480156104d157600080fd5b506102726111d7565b3480156104e657600080fd5b506102726111e6565b6101ff6004803603608081101561050557600080fd5b508035906020810135906001600160a01b03604082013581169160600135166111f5565b34801561053557600080fd5b506102a36118fd565b34801561054a57600080fd5b506102726119b9565b34801561055f57600080fd5b506105686119c8565b604080519115158252519081900360200190f35b34801561058857600080fd5b506102726119d9565b34801561059d57600080fd5b506105a66119e8565b6040805160208082528351818301528351919283929083019185019080838360005b838110156105e05781810151838201526020016105c8565b50505050905090810190601f16801561060d5780820380516001836020036101000a031916815260200191505b509250505060405180910390f35b34801561062757600080fd5b50610272611a16565b34801561063c57600080fd5b50610272611a25565b6101ff600480360360c081101561065b57600080fd5b5080359060208101359060408101359060608101351515906001600160a01b03608082013581169160a0013516611a34565b6101ff600480360360608110156106a357600080fd5b506001600160a01b038135811691602081013582169160409091013516611a4b565b3480156106d157600080fd5b506102a3611a65565b6106ec33600085600086866000611a70565b505050565b600454600054600a546001600160a01b03928316929182169116610715833361206d565b60025460408051630fdb11cf60e01b815290516000926001600160a01b031691630fdb11cf91600480830192602092919082900301818787803b15801561075b57600080fd5b505af115801561076f573d6000803e3d6000fd5b505050506040513d602081101561078557600080fd5b5051905061079281612132565b60408051630b07655760e01b815233600482015290516001600160a01b03861691630b07655791602480830192600092919082900301818387803b1580156107d957600080fd5b505af11580156107ed573d6000803e3d6000fd5b5050604080516309019aaf60e31b81523360048201529051600093506001600160a01b038816925063480cd57891602480820192602092909190829003018186803b15801561083b57600080fd5b505afa15801561084f573d6000803e3d6000fd5b505050506040513d602081101561086557600080fd5b50516040805163d66a255360e01b815233600482015290519192506000916001600160a01b0388169163d66a2553916024808301926020929190829003018186803b1580156108b357600080fd5b505afa1580156108c7573d6000803e3d6000fd5b505050506040513d60208110156108dd57600080fd5b5051905061090384336108fe84678ac7230489e8000063ffffffff61217a16565b6121c3565b600061091483600084600088612283565b905061091f8161230e565b60408051631fc5750960e31b815233600482015290516001600160a01b0389169163fe2ba84891602480830192600092919082900301818387803b15801561096657600080fd5b505af115801561097a573d6000803e3d6000fd5b5050604080516365e89c5760e11b815233600482015290516001600160a01b038b16935063cbd138ae9250602480830192600092919082900301818387803b1580156109c557600080fd5b505af11580156109d9573d6000803e3d6000fd5b50505050336001600160a01b031660008051602061384e8339815191526000806000600160405180858152602001848152602001838152602001826002811115610a1f57fe5b60ff16815260200194505050505060405180910390a2610a58868633610a5386678ac7230489e8000063ffffffff61217a16565b612355565b600654610a7a90879087906001600160a01b0316678ac7230489e80000612355565b600c54604080516341c0f0c160e11b81526004810186905233602482015290516001600160a01b0390921691638381e1829160448082019260009290919082900301818387803b158015610acd57600080fd5b505af1158015610ae1573d6000803e3d6000fd5b5050600b5460408051630852cd8d60e31b81526004810188905290516001600160a01b0390921693506342966c68925060248082019260009290919082900301818387803b158015610b3257600080fd5b505af1158015610b46573d6000803e3d6000fd5b50506040805163e7a0872b60e01b81523360048201526024810187905290516001600160a01b038a16935063e7a0872b9250604480830192600092919082900301818387803b158015610b9857600080fd5b505af1158015610bac573d6000803e3d6000fd5b5050505050505050505050565b610bca33600085600186868a611a70565b50505050565b600c546001600160a01b031681565b6804e1003b28d928000081565b678ac7230489e8000081565b6001546001600160a01b031681565b6004546001600160a01b031681565b60c881565b6000610c2682612431565b92915050565b6106ec338460008086866000611a70565b6714d1120d7b16000081565b610c5b33600080600086866000611a70565b5050565b6007546040805163b32beb5b60e01b815233600482015290516001600160a01b039092169163b32beb5b9160248082019260009290919082900301818387803b158015610cab57600080fd5b505af1158015610bca573d6000803e3d6000fd5b670de0b6b3a764000081565b610cd36119c8565b610d24576040805162461bcd60e51b815260206004820181905260248201527f4f776e61626c653a2063616c6c6572206973206e6f7420746865206f776e6572604482015290519081900360640190fd5b610d2d8c61244b565b610d368b61244b565b610d3f8a61244b565b610d488961244b565b610d518861244b565b610d5a8761244b565b610d638661244b565b610d6c8561244b565b610d758461244b565b610d7e8361244b565b610d878261244b565b610d908161244b565b600480546001600160a01b03199081166001600160a01b038f81169182179093556000805483168f85161790556001805483168e85161790556005805483168d85161790556006805483168c85161790556007805483168b85161790556002805483168a8516179055600d80548316898516179055600a805483168885161790556009805483168785169081179091556008805484169091179055600b80548316868516179055600c805490921692841692909217905560408051918252517f143219c9e69b09e07e095fcc889b43d8f46ca892bba65f08dc3a0050869a5678916020908290030190a1604080516001600160a01b038d16815290517f78f058b189175430c48dc02699e3a0031ea4ff781536dc2fab847de4babdd8829181900360200190a1604080516001600160a01b038c16815290517f5ee0cae2f063ed938bb55046f6a932fb6ae792bf43624806bb90abe68a50be9b9181900360200190a1604080516001600160a01b038b16815290517f82966d27eea39b038ee0fa30cd16532bb24f6e65d31cb58fb227aa5766cdcc7f9181900360200190a1604080516001600160a01b038a16815290517fcfb07d791fcafc032b35837b50eb84b74df518cf4cc287e8084f47630fa70fa09181900360200190a1604080516001600160a01b038916815290517fe67f36a6e961157d6eff83b91f3af5a62131ceb6f04954ef74f51c1c05e7f88d9181900360200190a1604080516001600160a01b038816815290517f8c537274438aa850a330284665d81a85dd38267d09e4050d416bfc94142db2649181900360200190a1604080516001600160a01b038716815290517f65f4cf077bc01e4742eb5ad98326f6e95b63548ea24b17f8d5e823111fe788009181900360200190a1604080516001600160a01b038616815290517f227eec0ec317af6ab1a9587ffa1c84332522eb4c583a908f89babc05f8f339bd9181900360200190a1604080516001600160a01b038516815290517f756ebc192164c295bba134b5aacd72cc7aff8098a670d1f0a5f6b3a0b4ce67079181900360200190a161109e6124a6565b505050505050505050505050565b6002546001600160a01b031681565b6009546001600160a01b031681565b670f43fc2c04ee000081565b6000805460408051632f5a97e560e11b8152905183926001600160a01b031691635eb52fca916004808301926020929190829003018186803b15801561111b57600080fd5b505afa15801561112f573d6000803e3d6000fd5b505050506040513d602081101561114557600080fd5b505160015460408051632f5a97e560e11b815290519293506000926001600160a01b0390921691635eb52fca91600480820192602092909190829003018186803b15801561119257600080fd5b505afa1580156111a6573d6000803e3d6000fd5b505050506040513d60208110156111bc57600080fd5b505190506111d0828263ffffffff6124f016565b9250505090565b6000546001600160a01b031681565b600b546001600160a01b031681565b6111fd6135a0565b50604080516060810182526004546001600160a01b03908116825260005481166020830152600a5416918101919091526112356135c0565b600260009054906101000a90046001600160a01b03166001600160a01b0316630fdb11cf6040518163ffffffff1660e01b8152600401602060405180830381600087803b15801561128557600080fd5b505af1158015611299573d6000803e3d6000fd5b505050506040513d60208110156112af57600080fd5b50518082526000906112c09061254a565b90506112cc8782612567565b82516112d89033612613565b6040820186905280611319576112f883600001518460400151888a6126ef565b6020830181905260408301516113139163ffffffff6124f016565b60408301525b611326826040015161289f565b6113338260400151612431565b6060830181905261134057fe5b61135334836060015184600001516128e7565b60808301526060820151611368903490612925565b60a0830152801561138557611380826080015161295a565b6113b8565b61139282608001516129a1565b60006113ab346001856060015160018760000151612283565b90506113b68161230e565b505b825160408051635d6b480f60e01b81523360048201526001602482015290516001600160a01b0390921691635d6b480f9160448082019260009290919082900301818387803b15801561140a57600080fd5b505af115801561141e573d6000803e3d6000fd5b50508451604080516372423c1760e01b815233600482015234602482015290516001600160a01b0390921693506372423c1792506044808201926020929091908290030181600087803b15801561147457600080fd5b505af1158015611488573d6000803e3d6000fd5b505050506040513d602081101561149e57600080fd5b50508251606083015160408051639976cf4560e01b81523360048201526024810192909252516001600160a01b0390921691639976cf45916044808201926020929091908290030181600087803b1580156114f857600080fd5b505af115801561150c573d6000803e3d6000fd5b505050506040513d602081101561152257600080fd5b50508251604080516382fe3eb960e01b815233600482015290516001600160a01b03909216916382fe3eb99160248082019260009290919082900301818387803b15801561156f57600080fd5b505af1158015611583573d6000803e3d6000fd5b5050845160408051630c7940bd60e11b815233600482015290516001600160a01b0390921693506318f2817a92506024808201926020929091908290030181600087803b1580156115d357600080fd5b505af11580156115e7573d6000803e3d6000fd5b505050506040513d60208110156115fd57600080fd5b505160c0830152600d5460a0830151604080516346f7cf8760e01b815233600482015260248101929092526001600160a01b038881166044840152878116606484015290519216916346f7cf879160848082019260009290919082900301818387803b15801561166c57600080fd5b505af1158015611680573d6000803e3d6000fd5b50508451604080516315d549f160e01b815233600482015290516001600160a01b0390921693506315d549f192506024808201926020929091908290030181600087803b1580156116d057600080fd5b505af11580156116e4573d6000803e3d6000fd5b505050506040513d60208110156116fa57600080fd5b505160e08301819052604080519182525133917f59cfd0cd754bc5748b6770e94a4ffa5f678d885cb899dcfadc5734edb97c67ab919081900360200190a26117468360200151346129e8565b61175f8360200151846040015133898660400151612a78565b6020830151604084015160065461178a9291906001600160a01b0316678ac7230489e8000080612a78565b600b54604080516340c10f1960e01b815230600482015234602482015290516001600160a01b03909216916340c10f199160448082019260009290919082900301818387803b1580156117dc57600080fd5b505af11580156117f0573d6000803e3d6000fd5b5050600c5460408051637acb775760e01b815234600482015233602482015290516001600160a01b039092169350637acb7757925060448082019260009290919082900301818387803b15801561184657600080fd5b505af115801561185a573d6000803e3d6000fd5b50505050336001600160a01b031660008051602061384e8339815191528360600151348560c001516000604051808581526020018481526020018381526020018260028111156118a657fe5b60ff16815260200194505050505060405180910390a2602080830151604080519182525133927fa55c5f48fd29482ad55f4b59bf070cd1ac1a7132a31f7a136ebe8877ae37e1ff928290030190a250505050505050565b6000805460408051630a7b61df60e11b8152905183926001600160a01b0316916314f6c3be916004808301926020929190829003018186803b15801561194257600080fd5b505afa158015611956573d6000803e3d6000fd5b505050506040513d602081101561196c57600080fd5b505160015460408051630a7b61df60e11b815290519293506000926001600160a01b03909216916314f6c3be91600480820192602092909190829003018186803b15801561119257600080fd5b6003546001600160a01b031690565b6003546001600160a01b0316331490565b6008546001600160a01b031681565b60405180604001604052806012815260200171426f72726f7765724f7065726174696f6e7360701b81525081565b600d546001600160a01b031681565b600a546001600160a01b031681565b611a433386868686868c611a70565b505050505050565b611a53612b55565b6106ec83600080600086866000611a70565b6611c37937e0800081565b611a786135a0565b50604080516060810182526004546001600160a01b03908116825260005481166020830152600a541691810191909152611ab0613605565b600260009054906101000a90046001600160a01b03166001600160a01b0316630fdb11cf6040518163ffffffff1660e01b8152600401602060405180830381600087803b158015611b0057600080fd5b505af1158015611b14573d6000803e3d6000fd5b505050506040513d6020811015611b2a57600080fd5b5051808252600090611b3b9061254a565b90508615611b5657611b4d8482612567565b611b5688612ba0565b611b5f89612bdf565b611b698989612c25565b8251611b75908b61206d565b336001600160a01b038b161480611bab57506005546001600160a01b031633148015611ba15750600034115b8015611bab575087155b611bb157fe5b82600001516001600160a01b0316630b0765578b6040518263ffffffff1660e01b815260040180826001600160a01b03166001600160a01b03168152602001915050600060405180830381600087803b158015611c0d57600080fd5b505af1158015611c21573d6000803e3d6000fd5b50505050611c2f348a612c77565b15156060840152602083015260408201889052868015611c4d575080155b15611c8857611c66836000015184604001518a876126ef565b61012083018190526040830151611c829163ffffffff6124f016565b60408301525b82600001516001600160a01b031663d66a25538b6040518263ffffffff1660e01b815260040180826001600160a01b03166001600160a01b0316815260200191505060206040518083038186803b158015611ce257600080fd5b505afa158015611cf6573d6000803e3d6000fd5b505050506040513d6020811015611d0c57600080fd5b505160808301528251604080516309019aaf60e31b81526001600160a01b038d811660048301529151919092169163480cd578916024808301926020929190829003018186803b158015611d5f57600080fd5b505afa158015611d73573d6000803e3d6000fd5b505050506040513d6020811015611d8957600080fd5b505160a0830181905260808301518351611da49291906128e7565b8260c0018181525050611dd48260a0015183608001518460200151856060015186604001518c8860000151612c96565b60e083015260a0820151891115611de757fe5b611df3818a8985612cc9565b86158015611e015750600088115b15611e5457611e2f611e2a8360400151611e1e8560800151612d3d565b9063ffffffff61217a16565b61289f565b611e4182608001518360400151612d57565b611e5483604001518b84604001516121c3565b611e7283600001518b8460200151856060015186604001518c612dad565b610140840152610160830152825160408051630c7940bd60e11b81526001600160a01b038d81166004830152915191909216916318f2817a9160248083019260209291908290030181600087803b158015611ecc57600080fd5b505af1158015611ee0573d6000803e3d6000fd5b505050506040513d6020811015611ef657600080fd5b505161018083015260a08201516080830151602084015160608501516040860151600094611f2a949093909290918d61300d565b600d546040805163015f109360e51b81526001600160a01b038f81166004830152602482018590528b811660448301528a811660648301529151939450911691632be212609160848082019260009290919082900301818387803b158015611f9157600080fd5b505af1158015611fa5573d6000803e3d6000fd5b505050508a6001600160a01b031660008051602061384e833981519152846101400151856101600151866101800151600260405180858152602001848152602001838152602001826002811115611ff857fe5b60ff16815260200194505050505060405180910390a2610120830151604080519182525133917fa55c5f48fd29482ad55f4b59bf070cd1ac1a7132a31f7a136ebe8877ae37e1ff919081900360200190a2610bac8460200151856040015133866020015187606001518e8e8a6040015161303e565b6000826001600160a01b03166321e37801836040518263ffffffff1660e01b815260040180826001600160a01b03166001600160a01b0316815260200191505060206040518083038186803b1580156120c557600080fd5b505afa1580156120d9573d6000803e3d6000fd5b505050506040513d60208110156120ef57600080fd5b50519050600181146106ec5760405162461bcd60e51b815260040180806020018281038252602e815260200180613820602e913960400191505060405180910390fd5b61213b8161254a565b156121775760405162461bcd60e51b81526004018080602001828103825260398152602001806136ce6039913960400191505060405180910390fd5b50565b60006121bc83836040518060400160405280601e81526020017f536166654d6174683a207375627472616374696f6e206f766572666c6f770000815250613291565b9392505050565b80836001600160a01b03166370a08231846040518263ffffffff1660e01b815260040180826001600160a01b03166001600160a01b0316815260200191505060206040518083038186803b15801561221a57600080fd5b505afa15801561222e573d6000803e3d6000fd5b505050506040513d602081101561224457600080fd5b505110156106ec5760405162461bcd60e51b815260040180806020018281038252603d8152602001806138ac603d913960400191505060405180910390fd5b60008061228e6118fd565b9050600061229a6110d6565b9050866122b6576122b1828963ffffffff61217a16565b6122c6565b6122c6828963ffffffff6124f016565b9150846122e2576122dd818763ffffffff61217a16565b6122f2565b6122f2818763ffffffff6124f016565b905060006123018383876128e7565b9998505050505050505050565b6714d1120d7b1600008110156121775760405162461bcd60e51b81526004018080602001828103825260498152602001806137d76049913960600191505060405180910390fd5b836001600160a01b03166338d995a8826040518263ffffffff1660e01b815260040180828152602001915050600060405180830381600087803b15801561239b57600080fd5b505af11580156123af573d6000803e3d6000fd5b50505050826001600160a01b0316639dc29fac83836040518363ffffffff1660e01b815260040180836001600160a01b03166001600160a01b0316815260200182815260200192505050600060405180830381600087803b15801561241357600080fd5b505af1158015612427573d6000803e3d6000fd5b5050505050505050565b6000610c2682678ac7230489e8000063ffffffff6124f016565b6001600160a01b038116612177576040805162461bcd60e51b815260206004820152601e60248201527f4163636f756e742063616e6e6f74206265207a65726f20616464726573730000604482015290519081900360640190fd5b6003546040516000916001600160a01b0316907f8be0079c531659141344cd1fd0a4f28419497f9722a3daafe3b4186f6b6457e0908390a3600380546001600160a01b0319169055565b6000828201838110156121bc576040805162461bcd60e51b815260206004820152601b60248201527f536166654d6174683a206164646974696f6e206f766572666c6f770000000000604482015290519081900360640190fd5b60008061255683613328565b6714d1120d7b160000119392505050565b80156125b957670de0b6b3a76400008211156125b45760405162461bcd60e51b815260040180806020018281038252603281526020018061373e6032913960400191505060405180910390fd5b610c5b565b6611c37937e0800082108015906125d85750670de0b6b3a76400008211155b610c5b5760405162461bcd60e51b81526004018080602001828103825260308152602001806139d86030913960400191505060405180910390fd5b6000826001600160a01b03166321e37801836040518263ffffffff1660e01b815260040180826001600160a01b03166001600160a01b0316815260200191505060206040518083038186803b15801561266b57600080fd5b505afa15801561267f573d6000803e3d6000fd5b505050506040513d602081101561269557600080fd5b5051905060018114156106ec576040805162461bcd60e51b815260206004820152601c60248201527f426f72726f7765724f70733a2054726f76652069732061637469766500000000604482015290519081900360640190fd5b6000846001600160a01b0316635dba4c4a6040518163ffffffff1660e01b8152600401600060405180830381600087803b15801561272c57600080fd5b505af1158015612740573d6000803e3d6000fd5b505050506000856001600160a01b031663631203b0856040518263ffffffff1660e01b81526004018082815260200191505060206040518083038186803b15801561278a57600080fd5b505afa15801561279e573d6000803e3d6000fd5b505050506040513d60208110156127b457600080fd5b505190506127c3818585613354565b60085460408051634677ffb360e01b81526004810184905290516001600160a01b0390921691634677ffb39160248082019260009290919082900301818387803b15801561281057600080fd5b505af1158015612824573d6000803e3d6000fd5b5050600954604080516340c10f1960e01b81526001600160a01b03928316600482015260248101869052905191891693506340c10f19925060448082019260009290919082900301818387803b15801561287d57600080fd5b505af1158015612891573d6000803e3d6000fd5b509298975050505050505050565b6804e1003b28d92800008110156121775760405162461bcd60e51b815260040180806020018281038252603a815260200180613932603a913960400191505060405180910390fd5b6000821561291a57600061291184612905878663ffffffff6133c916565b9063ffffffff61342216565b91506121bc9050565b506000199392505050565b600081156129515761294a826129058568056bc75e2d6310000063ffffffff6133c916565b9050610c26565b50600019610c26565b6714d1120d7b1600008110156121775760405162461bcd60e51b81526004018080602001828103825260378152602001806137076037913960400191505060405180910390fd5b670f43fc2c04ee00008110156121775760405162461bcd60e51b81526004018080602001828103825260498152602001806138e96049913960600191505060405180910390fd5b6040516000906001600160a01b0384169083908381818185875af1925050503d8060008114612a33576040519150601f19603f3d011682016040523d82523d6000602084013e612a38565b606091505b50509050806106ec5760405162461bcd60e51b815260040180806020018281038252602e815260200180613670602e913960400191505060405180910390fd5b846001600160a01b031663cfb9329a826040518263ffffffff1660e01b815260040180828152602001915050600060405180830381600087803b158015612abe57600080fd5b505af1158015612ad2573d6000803e3d6000fd5b50505050836001600160a01b03166340c10f1984846040518363ffffffff1660e01b815260040180836001600160a01b03166001600160a01b0316815260200182815260200192505050600060405180830381600087803b158015612b3657600080fd5b505af1158015612b4a573d6000803e3d6000fd5b505050505050505050565b6005546001600160a01b03163314612b9e5760405162461bcd60e51b81526004018080602001828103825260298152602001806139af6029913960400191505060405180910390fd5b565b600081116121775760405162461bcd60e51b8152600401808060200182810382526037815260200180613a086037913960400191505060405180910390fd5b341580612bea575080155b6121775760405162461bcd60e51b815260040180806020018281038252603081526020018061369e6030913960400191505060405180910390fd5b34151580612c3257508115155b80612c3c57508015155b610c5b5760405162461bcd60e51b81526004018080602001828103825260468152602001806137706046913960600191505060405180910390fd5b6000808315612c8b57508290506001612c8f565b8291505b9250929050565b6000806000612ca98a8a8a8a8a8a613464565b915091506000612cba8383876128e7565b9b9a5050505050505050505050565b8315612d0257612cd8836134bf565b8115612cfd57612ceb8160e0015161295a565b612cfd8160e001518260c001516134fc565b610bca565b612d0f8160e001516129a1565b612d2c816020015182606001518360400151858560000151612283565b6101008201819052610bca9061230e565b6000610c2682678ac7230489e8000063ffffffff61217a16565b612d6f82678ac7230489e8000063ffffffff61217a16565b811115610c5b5760405162461bcd60e51b815260040180806020018281038252604381526020018061396c6043913960600191505060405180910390fd5b600080600085612e4857886001600160a01b031663d3d6f84389896040518363ffffffff1660e01b815260040180836001600160a01b03166001600160a01b0316815260200182815260200192505050602060405180830381600087803b158015612e1757600080fd5b505af1158015612e2b573d6000803e3d6000fd5b505050506040513d6020811015612e4157600080fd5b5051612ed5565b886001600160a01b03166372423c1789896040518363ffffffff1660e01b815260040180836001600160a01b03166001600160a01b0316815260200182815260200192505050602060405180830381600087803b158015612ea857600080fd5b505af1158015612ebc573d6000803e3d6000fd5b505050506040513d6020811015612ed257600080fd5b50515b9050600084612f6f57896001600160a01b03166312610e928a886040518363ffffffff1660e01b815260040180836001600160a01b03166001600160a01b0316815260200182815260200192505050602060405180830381600087803b158015612f3e57600080fd5b505af1158015612f52573d6000803e3d6000fd5b505050506040513d6020811015612f6857600080fd5b5051612ffc565b896001600160a01b0316639976cf458a886040518363ffffffff1660e01b815260040180836001600160a01b03166001600160a01b0316815260200182815260200192505050602060405180830381600087803b158015612fcf57600080fd5b505af1158015612fe3573d6000803e3d6000fd5b505050506040513d6020811015612ff957600080fd5b50515b919a91995090975050505050505050565b6000806000613020898989898989613464565b9150915060006130308383612925565b9a9950505050505050505050565b8115613056576130518888888685612a78565b613062565b61306288888886612355565b831561314d5761307288866129e8565b600b54604080516340c10f1960e01b81523060048201526024810188905290516001600160a01b03909216916340c10f199160448082019260009290919082900301818387803b1580156130c557600080fd5b505af11580156130d9573d6000803e3d6000fd5b5050600c5460408051637acb775760e01b8152600481018a905233602482015290516001600160a01b039092169350637acb7757925060448082019260009290919082900301818387803b15801561313057600080fd5b505af1158015613144573d6000803e3d6000fd5b50505050612427565b600c54604080516341c0f0c160e11b81526004810188905233602482015290516001600160a01b0390921691638381e1829160448082019260009290919082900301818387803b1580156131a057600080fd5b505af11580156131b4573d6000803e3d6000fd5b5050600b5460408051630852cd8d60e31b8152600481018a905290516001600160a01b0390921693506342966c68925060248082019260009290919082900301818387803b15801561320557600080fd5b505af1158015613219573d6000803e3d6000fd5b50505050876001600160a01b031663e7a0872b87876040518363ffffffff1660e01b815260040180836001600160a01b03166001600160a01b0316815260200182815260200192505050600060405180830381600087803b15801561327d57600080fd5b505af115801561109e573d6000803e3d6000fd5b600081848411156133205760405162461bcd60e51b81526004018080602001828103825283818151815260200191508051906020019080838360005b838110156132e55781810151838201526020016132cd565b50505050905090810190601f1680156133125780820380516001836020036101000a031916815260200191505b509250505060405180910390fd5b505050900390565b6000806133336118fd565b9050600061333f6110d6565b905061334c8282866128e7565b949350505050565b60006133728361290586670de0b6b3a764000063ffffffff6133c916565b905081811115610bca576040805162461bcd60e51b815260206004820152601d60248201527f4665652065786365656465642070726f7669646564206d6178696d756d000000604482015290519081900360640190fd5b6000826133d857506000610c26565b828202828482816133e557fe5b04146121bc5760405162461bcd60e51b81526004018080602001828103825260218152602001806137b66021913960400191505060405180910390fd5b60006121bc83836040518060400160405280601a81526020017f536166654d6174683a206469766973696f6e206279207a65726f00000000000081525061353b565b6000808787866134835761347e8a8963ffffffff61217a16565b613493565b6134938a8963ffffffff6124f016565b9150846134af576134aa898763ffffffff61217a16565b612ffc565b612ffc898763ffffffff6124f016565b80156121775760405162461bcd60e51b815260040180806020018281038252603e81526020018061386e603e913960400191505060405180910390fd5b80821015610c5b5760405162461bcd60e51b815260040180806020018281038252603e815260200180613a3f603e913960400191505060405180910390fd5b6000818361358a5760405162461bcd60e51b81526020600482018181528351602484015283519092839260449091019190850190808383600083156132e55781810151838201526020016132cd565b50600083858161359657fe5b0495945050505050565b604080516060810182526000808252602082018190529181019190915290565b60405180610100016040528060008152602001600081526020016000815260200160008152602001600081526020016000815260200160008152602001600081525090565b604051806101a00160405280600081526020016000815260200160008152602001600015158152602001600081526020016000815260200160008152602001600081526020016000815260200160008152602001600081526020016000815260200160008152509056fe426f72726f7765724f70733a2053656e64696e6720544c4f5320746f20416374697665506f6f6c206661696c6564426f72726f7765724f7065726174696f6e733a2043616e6e6f7420776974686472617720616e642061646420636f6c6c426f72726f7765724f70733a204f7065726174696f6e206e6f74207065726d697474656420647572696e67205265636f76657279204d6f6465426f72726f7765724f70733a204f7065726174696f6e206d757374206c656176652074726f7665207769746820494352203e3d204343524d6178206665652070657263656e74616765206d757374206c657373207468616e206f7220657175616c20746f2031303025426f72726f7765724f70733a205468657265206d75737420626520656974686572206120636f6c6c61746572616c206368616e6765206f7220612064656274206368616e6765536166654d6174683a206d756c7469706c69636174696f6e206f766572666c6f77426f72726f7765724f70733a20416e206f7065726174696f6e207468617420776f756c6420726573756c7420696e20544352203c20434352206973206e6f74207065726d6974746564426f72726f7765724f70733a2054726f766520646f6573206e6f74206578697374206f7220697320636c6f736564c3770d654ed33aeea6bf11ac8ef05d02a6a04ed4686dd2f624d853bbec43cc8b426f72726f7765724f70733a20436f6c6c61746572616c207769746864726177616c206e6f74207065726d6974746564205265636f76657279204d6f6465426f72726f7765724f70733a2043616c6c657220646f65736e74206861766520656e6f756768204c55534420746f206d616b652072657061796d656e74426f72726f7765724f70733a20416e206f7065726174696f6e207468617420776f756c6420726573756c7420696e20494352203c204d4352206973206e6f74207065726d6974746564426f72726f7765724f70733a2054726f76652773206e65742064656274206d7573742062652067726561746572207468616e206d696e696d756d426f72726f7765724f70733a20416d6f756e7420726570616964206d757374206e6f74206265206c6172676572207468616e207468652054726f766527732064656274426f72726f7765724f70733a2043616c6c6572206973206e6f742053746162696c69747920506f6f6c4d6178206665652070657263656e74616765206d757374206265206265747765656e20302e352520616e642031303025426f72726f7765724f70733a204465627420696e637265617365207265717569726573206e6f6e2d7a65726f20646562744368616e6765426f72726f7765724f70733a2043616e6e6f7420646563726561736520796f75722054726f766527732049435220696e205265636f76657279204d6f6465a26469706673582212205c5e94536b6ce23c008975bbadb290f461d8219203bf2b46625925ce2c0ffc9064736f6c634300060b0033",
  "linkReferences": {},
  "deployedLinkReferences": {}
}