{
  "_format": "hh-sol-artifact-1",
  "contractName": "StabilityPool",
  "sourceName": "contracts/StabilityPool.sol",
  "abi": [
    {
      "inputs": [],
      "stateMutability": "nonpayable",
      "type": "constructor"
    },
    {
      "anonymous": false,
      "inputs": [
        {
          "indexed": false,
          "internalType": "address",
          "name": "_newActivePoolAddress",
          "type": "address"
        }
      ],
      "name": "ActivePoolAddressChanged",
      "type": "event"
    },
    {
      "anonymous": false,
      "inputs": [
        {
          "indexed": false,
          "internalType": "address",
          "name": "_newBorrowerOperationsAddress",
          "type": "address"
        }
      ],
      "name": "BorrowerOperationsAddressChanged",
      "type": "event"
    },
    {
      "anonymous": false,
      "inputs": [
        {
          "indexed": false,
          "internalType": "address",
          "name": "_newCommunityIssuanceAddress",
          "type": "address"
        }
      ],
      "name": "CommunityIssuanceAddressChanged",
      "type": "event"
    },
    {
      "anonymous": false,
      "inputs": [
        {
          "indexed": false,
          "internalType": "address",
          "name": "_newDefaultPoolAddress",
          "type": "address"
        }
      ],
      "name": "DefaultPoolAddressChanged",
      "type": "event"
    },
    {
      "anonymous": false,
      "inputs": [
        {
          "indexed": true,
          "internalType": "address",
          "name": "_depositor",
          "type": "address"
        },
        {
          "indexed": false,
          "internalType": "uint256",
          "name": "_P",
          "type": "uint256"
        },
        {
          "indexed": false,
          "internalType": "uint256",
          "name": "_S",
          "type": "uint256"
        },
        {
          "indexed": false,
          "internalType": "uint256",
          "name": "_G",
          "type": "uint256"
        }
      ],
      "name": "DepositSnapshotUpdated",
      "type": "event"
    },
    {
      "anonymous": false,
      "inputs": [
        {
          "indexed": true,
          "internalType": "address",
          "name": "_depositor",
          "type": "address"
        },
        {
          "indexed": false,
          "internalType": "uint256",
          "name": "_ETH",
          "type": "uint256"
        },
        {
          "indexed": false,
          "internalType": "uint256",
          "name": "_LUSDLoss",
          "type": "uint256"
        }
      ],
      "name": "ETHGainWithdrawn",
      "type": "event"
    },
    {
      "anonymous": false,
      "inputs": [
        {
          "indexed": false,
          "internalType": "uint128",
          "name": "_currentEpoch",
          "type": "uint128"
        }
      ],
      "name": "EpochUpdated",
      "type": "event"
    },
    {
      "anonymous": false,
      "inputs": [
        {
          "indexed": false,
          "internalType": "address",
          "name": "_to",
          "type": "address"
        },
        {
          "indexed": false,
          "internalType": "uint256",
          "name": "_amount",
          "type": "uint256"
        }
      ],
      "name": "EtherSent",
      "type": "event"
    },
    {
      "anonymous": false,
      "inputs": [
        {
          "indexed": true,
          "internalType": "address",
          "name": "_frontEnd",
          "type": "address"
        },
        {
          "indexed": false,
          "internalType": "uint256",
          "name": "_kickbackRate",
          "type": "uint256"
        }
      ],
      "name": "FrontEndRegistered",
      "type": "event"
    },
    {
      "anonymous": false,
      "inputs": [
        {
          "indexed": true,
          "internalType": "address",
          "name": "_frontEnd",
          "type": "address"
        },
        {
          "indexed": false,
          "internalType": "uint256",
          "name": "_P",
          "type": "uint256"
        },
        {
          "indexed": false,
          "internalType": "uint256",
          "name": "_G",
          "type": "uint256"
        }
      ],
      "name": "FrontEndSnapshotUpdated",
      "type": "event"
    },
    {
      "anonymous": false,
      "inputs": [
        {
          "indexed": true,
          "internalType": "address",
          "name": "_frontEnd",
          "type": "address"
        },
        {
          "indexed": false,
          "internalType": "uint256",
          "name": "_newFrontEndStake",
          "type": "uint256"
        },
        {
          "indexed": false,
          "internalType": "address",
          "name": "_depositor",
          "type": "address"
        }
      ],
      "name": "FrontEndStakeChanged",
      "type": "event"
    },
    {
      "anonymous": false,
      "inputs": [
        {
          "indexed": true,
          "internalType": "address",
          "name": "_depositor",
          "type": "address"
        },
        {
          "indexed": true,
          "internalType": "address",
          "name": "_frontEnd",
          "type": "address"
        }
      ],
      "name": "FrontEndTagSet",
      "type": "event"
    },
    {
      "anonymous": false,
      "inputs": [
        {
          "indexed": false,
          "internalType": "uint256",
          "name": "_G",
          "type": "uint256"
        },
        {
          "indexed": false,
          "internalType": "uint128",
          "name": "_epoch",
          "type": "uint128"
        },
        {
          "indexed": false,
          "internalType": "uint128",
          "name": "_scale",
          "type": "uint128"
        }
      ],
      "name": "G_Updated",
      "type": "event"
    },
    {
      "anonymous": false,
      "inputs": [
        {
          "indexed": true,
          "internalType": "address",
          "name": "_depositor",
          "type": "address"
        },
        {
          "indexed": false,
          "internalType": "uint256",
          "name": "_LQTY",
          "type": "uint256"
        }
      ],
      "name": "LQTYPaidToDepositor",
      "type": "event"
    },
    {
      "anonymous": false,
      "inputs": [
        {
          "indexed": true,
          "internalType": "address",
          "name": "_frontEnd",
          "type": "address"
        },
        {
          "indexed": false,
          "internalType": "uint256",
          "name": "_LQTY",
          "type": "uint256"
        }
      ],
      "name": "LQTYPaidToFrontEnd",
      "type": "event"
    },
    {
      "anonymous": false,
      "inputs": [
        {
          "indexed": false,
          "internalType": "address",
          "name": "_newLUSDTokenAddress",
          "type": "address"
        }
      ],
      "name": "LUSDTokenAddressChanged",
      "type": "event"
    },
    {
      "anonymous": false,
      "inputs": [
        {
          "indexed": true,
          "internalType": "address",
          "name": "previousOwner",
          "type": "address"
        },
        {
          "indexed": true,
          "internalType": "address",
          "name": "newOwner",
          "type": "address"
        }
      ],
      "name": "OwnershipTransferred",
      "type": "event"
    },
    {
      "anonymous": false,
      "inputs": [
        {
          "indexed": false,
          "internalType": "uint256",
          "name": "_P",
          "type": "uint256"
        }
      ],
      "name": "P_Updated",
      "type": "event"
    },
    {
      "anonymous": false,
      "inputs": [
        {
          "indexed": false,
          "internalType": "address",
          "name": "_newPriceFeedAddress",
          "type": "address"
        }
      ],
      "name": "PriceFeedAddressChanged",
      "type": "event"
    },
    {
      "anonymous": false,
      "inputs": [
        {
          "indexed": false,
          "internalType": "uint256",
          "name": "_S",
          "type": "uint256"
        },
        {
          "indexed": false,
          "internalType": "uint128",
          "name": "_epoch",
          "type": "uint128"
        },
        {
          "indexed": false,
          "internalType": "uint128",
          "name": "_scale",
          "type": "uint128"
        }
      ],
      "name": "S_Updated",
      "type": "event"
    },
    {
      "anonymous": false,
      "inputs": [
        {
          "indexed": false,
          "internalType": "uint128",
          "name": "_currentScale",
          "type": "uint128"
        }
      ],
      "name": "ScaleUpdated",
      "type": "event"
    },
    {
      "anonymous": false,
      "inputs": [
        {
          "indexed": false,
          "internalType": "address",
          "name": "_newSortedTrovesAddress",
          "type": "address"
        }
      ],
      "name": "SortedTrovesAddressChanged",
      "type": "event"
    },
    {
      "anonymous": false,
      "inputs": [
        {
          "indexed": false,
          "internalType": "uint256",
          "name": "_newBalance",
          "type": "uint256"
        }
      ],
      "name": "StabilityPoolETHBalanceUpdated",
      "type": "event"
    },
    {
      "anonymous": false,
      "inputs": [
        {
          "indexed": false,
          "internalType": "uint256",
          "name": "_newBalance",
          "type": "uint256"
        }
      ],
      "name": "StabilityPoolLUSDBalanceUpdated",
      "type": "event"
    },
    {
      "anonymous": false,
      "inputs": [
        {
          "indexed": false,
          "internalType": "address",
          "name": "_newTroveManagerAddress",
          "type": "address"
        }
      ],
      "name": "TroveManagerAddressChanged",
      "type": "event"
    },
    {
      "anonymous": false,
      "inputs": [
        {
          "indexed": true,
          "internalType": "address",
          "name": "_depositor",
          "type": "address"
        },
        {
          "indexed": false,
          "internalType": "uint256",
          "name": "_newDeposit",
          "type": "uint256"
        }
      ],
      "name": "UserDepositChanged",
      "type": "event"
    },
    {
      "inputs": [],
      "name": "BORROWING_FEE_FLOOR",
      "outputs": [
        {
          "internalType": "uint256",
          "name": "",
          "type": "uint256"
        }
      ],
      "stateMutability": "view",
      "type": "function"
    },
    {
      "inputs": [],
      "name": "CCR",
      "outputs": [
        {
          "internalType": "uint256",
          "name": "",
          "type": "uint256"
        }
      ],
      "stateMutability": "view",
      "type": "function"
    },
    {
      "inputs": [],
      "name": "DECIMAL_PRECISION",
      "outputs": [
        {
          "internalType": "uint256",
          "name": "",
          "type": "uint256"
        }
      ],
      "stateMutability": "view",
      "type": "function"
    },
    {
      "inputs": [],
      "name": "LUSD_GAS_COMPENSATION",
      "outputs": [
        {
          "internalType": "uint256",
          "name": "",
          "type": "uint256"
        }
      ],
      "stateMutability": "view",
      "type": "function"
    },
    {
      "inputs": [],
      "name": "MCR",
      "outputs": [
        {
          "internalType": "uint256",
          "name": "",
          "type": "uint256"
        }
      ],
      "stateMutability": "view",
      "type": "function"
    },
    {
      "inputs": [],
      "name": "MIN_NET_DEBT",
      "outputs": [
        {
          "internalType": "uint256",
          "name": "",
          "type": "uint256"
        }
      ],
      "stateMutability": "view",
      "type": "function"
    },
    {
      "inputs": [],
      "name": "NAME",
      "outputs": [
        {
          "internalType": "string",
          "name": "",
          "type": "string"
        }
      ],
      "stateMutability": "view",
      "type": "function"
    },
    {
      "inputs": [],
      "name": "P",
      "outputs": [
        {
          "internalType": "uint256",
          "name": "",
          "type": "uint256"
        }
      ],
      "stateMutability": "view",
      "type": "function"
    },
    {
      "inputs": [],
      "name": "PERCENT_DIVISOR",
      "outputs": [
        {
          "internalType": "uint256",
          "name": "",
          "type": "uint256"
        }
      ],
      "stateMutability": "view",
      "type": "function"
    },
    {
      "inputs": [],
      "name": "SCALE_FACTOR",
      "outputs": [
        {
          "internalType": "uint256",
          "name": "",
          "type": "uint256"
        }
      ],
      "stateMutability": "view",
      "type": "function"
    },
    {
      "inputs": [],
      "name": "_100pct",
      "outputs": [
        {
          "internalType": "uint256",
          "name": "",
          "type": "uint256"
        }
      ],
      "stateMutability": "view",
      "type": "function"
    },
    {
      "inputs": [],
      "name": "activePool",
      "outputs": [
        {
          "internalType": "contract IActivePool",
          "name": "",
          "type": "address"
        }
      ],
      "stateMutability": "view",
      "type": "function"
    },
    {
      "inputs": [],
      "name": "borrowerOperations",
      "outputs": [
        {
          "internalType": "contract IBorrowerOperations",
          "name": "",
          "type": "address"
        }
      ],
      "stateMutability": "view",
      "type": "function"
    },
    {
      "inputs": [],
      "name": "communityIssuance",
      "outputs": [
        {
          "internalType": "contract ICommunityIssuance",
          "name": "",
          "type": "address"
        }
      ],
      "stateMutability": "view",
      "type": "function"
    },
    {
      "inputs": [],
      "name": "currentEpoch",
      "outputs": [
        {
          "internalType": "uint128",
          "name": "",
          "type": "uint128"
        }
      ],
      "stateMutability": "view",
      "type": "function"
    },
    {
      "inputs": [],
      "name": "currentScale",
      "outputs": [
        {
          "internalType": "uint128",
          "name": "",
          "type": "uint128"
        }
      ],
      "stateMutability": "view",
      "type": "function"
    },
    {
      "inputs": [],
      "name": "defaultPool",
      "outputs": [
        {
          "internalType": "contract IDefaultPool",
          "name": "",
          "type": "address"
        }
      ],
      "stateMutability": "view",
      "type": "function"
    },
    {
      "inputs": [
        {
          "internalType": "address",
          "name": "",
          "type": "address"
        }
      ],
      "name": "depositSnapshots",
      "outputs": [
        {
          "internalType": "uint256",
          "name": "S",
          "type": "uint256"
        },
        {
          "internalType": "uint256",
          "name": "P",
          "type": "uint256"
        },
        {
          "internalType": "uint256",
          "name": "G",
          "type": "uint256"
        },
        {
          "internalType": "uint128",
          "name": "scale",
          "type": "uint128"
        },
        {
          "internalType": "uint128",
          "name": "epoch",
          "type": "uint128"
        }
      ],
      "stateMutability": "view",
      "type": "function"
    },
    {
      "inputs": [
        {
          "internalType": "address",
          "name": "",
          "type": "address"
        }
      ],
      "name": "deposits",
      "outputs": [
        {
          "internalType": "uint256",
          "name": "initialValue",
          "type": "uint256"
        },
        {
          "internalType": "address",
          "name": "frontEndTag",
          "type": "address"
        }
      ],
      "stateMutability": "view",
      "type": "function"
    },
    {
      "inputs": [
        {
          "internalType": "uint128",
          "name": "",
          "type": "uint128"
        },
        {
          "internalType": "uint128",
          "name": "",
          "type": "uint128"
        }
      ],
      "name": "epochToScaleToG",
      "outputs": [
        {
          "internalType": "uint256",
          "name": "",
          "type": "uint256"
        }
      ],
      "stateMutability": "view",
      "type": "function"
    },
    {
      "inputs": [
        {
          "internalType": "uint128",
          "name": "",
          "type": "uint128"
        },
        {
          "internalType": "uint128",
          "name": "",
          "type": "uint128"
        }
      ],
      "name": "epochToScaleToSum",
      "outputs": [
        {
          "internalType": "uint256",
          "name": "",
          "type": "uint256"
        }
      ],
      "stateMutability": "view",
      "type": "function"
    },
    {
      "inputs": [
        {
          "internalType": "address",
          "name": "",
          "type": "address"
        }
      ],
      "name": "frontEndSnapshots",
      "outputs": [
        {
          "internalType": "uint256",
          "name": "S",
          "type": "uint256"
        },
        {
          "internalType": "uint256",
          "name": "P",
          "type": "uint256"
        },
        {
          "internalType": "uint256",
          "name": "G",
          "type": "uint256"
        },
        {
          "internalType": "uint128",
          "name": "scale",
          "type": "uint128"
        },
        {
          "internalType": "uint128",
          "name": "epoch",
          "type": "uint128"
        }
      ],
      "stateMutability": "view",
      "type": "function"
    },
    {
      "inputs": [
        {
          "internalType": "address",
          "name": "",
          "type": "address"
        }
      ],
      "name": "frontEndStakes",
      "outputs": [
        {
          "internalType": "uint256",
          "name": "",
          "type": "uint256"
        }
      ],
      "stateMutability": "view",
      "type": "function"
    },
    {
      "inputs": [
        {
          "internalType": "address",
          "name": "",
          "type": "address"
        }
      ],
      "name": "frontEnds",
      "outputs": [
        {
          "internalType": "uint256",
          "name": "kickbackRate",
          "type": "uint256"
        },
        {
          "internalType": "bool",
          "name": "registered",
          "type": "bool"
        }
      ],
      "stateMutability": "view",
      "type": "function"
    },
    {
      "inputs": [
        {
          "internalType": "address",
          "name": "_frontEnd",
          "type": "address"
        }
      ],
      "name": "getCompoundedFrontEndStake",
      "outputs": [
        {
          "internalType": "uint256",
          "name": "",
          "type": "uint256"
        }
      ],
      "stateMutability": "view",
      "type": "function"
    },
    {
      "inputs": [
        {
          "internalType": "address",
          "name": "_depositor",
          "type": "address"
        }
      ],
      "name": "getCompoundedLUSDDeposit",
      "outputs": [
        {
          "internalType": "uint256",
          "name": "",
          "type": "uint256"
        }
      ],
      "stateMutability": "view",
      "type": "function"
    },
    {
      "inputs": [
        {
          "internalType": "address",
          "name": "_depositor",
          "type": "address"
        }
      ],
      "name": "getDepositorETHGain",
      "outputs": [
        {
          "internalType": "uint256",
          "name": "",
          "type": "uint256"
        }
      ],
      "stateMutability": "view",
      "type": "function"
    },
    {
      "inputs": [
        {
          "internalType": "address",
          "name": "_depositor",
          "type": "address"
        }
      ],
      "name": "getDepositorLQTYGain",
      "outputs": [
        {
          "internalType": "uint256",
          "name": "",
          "type": "uint256"
        }
      ],
      "stateMutability": "view",
      "type": "function"
    },
    {
      "inputs": [],
      "name": "getETH",
      "outputs": [
        {
          "internalType": "uint256",
          "name": "",
          "type": "uint256"
        }
      ],
      "stateMutability": "view",
      "type": "function"
    },
    {
      "inputs": [],
      "name": "getEntireSystemColl",
      "outputs": [
        {
          "internalType": "uint256",
          "name": "entireSystemColl",
          "type": "uint256"
        }
      ],
      "stateMutability": "view",
      "type": "function"
    },
    {
      "inputs": [],
      "name": "getEntireSystemDebt",
      "outputs": [
        {
          "internalType": "uint256",
          "name": "entireSystemDebt",
          "type": "uint256"
        }
      ],
      "stateMutability": "view",
      "type": "function"
    },
    {
      "inputs": [
        {
          "internalType": "address",
          "name": "_frontEnd",
          "type": "address"
        }
      ],
      "name": "getFrontEndLQTYGain",
      "outputs": [
        {
          "internalType": "uint256",
          "name": "",
          "type": "uint256"
        }
      ],
      "stateMutability": "view",
      "type": "function"
    },
    {
      "inputs": [],
      "name": "getTotalLUSDDeposits",
      "outputs": [
        {
          "internalType": "uint256",
          "name": "",
          "type": "uint256"
        }
      ],
      "stateMutability": "view",
      "type": "function"
    },
    {
      "inputs": [],
      "name": "isOwner",
      "outputs": [
        {
          "internalType": "bool",
          "name": "",
          "type": "bool"
        }
      ],
      "stateMutability": "view",
      "type": "function"
    },
    {
      "inputs": [],
      "name": "lastETHError_Offset",
      "outputs": [
        {
          "internalType": "uint256",
          "name": "",
          "type": "uint256"
        }
      ],
      "stateMutability": "view",
      "type": "function"
    },
    {
      "inputs": [],
      "name": "lastLQTYError",
      "outputs": [
        {
          "internalType": "uint256",
          "name": "",
          "type": "uint256"
        }
      ],
      "stateMutability": "view",
      "type": "function"
    },
    {
      "inputs": [],
      "name": "lastLUSDLossError_Offset",
      "outputs": [
        {
          "internalType": "uint256",
          "name": "",
          "type": "uint256"
        }
      ],
      "stateMutability": "view",
      "type": "function"
    },
    {
      "inputs": [],
      "name": "lusdToken",
      "outputs": [
        {
          "internalType": "contract ILUSDToken",
          "name": "",
          "type": "address"
        }
      ],
      "stateMutability": "view",
      "type": "function"
    },
    {
      "inputs": [
        {
          "internalType": "uint256",
          "name": "_debtToOffset",
          "type": "uint256"
        },
        {
          "internalType": "uint256",
          "name": "_collToAdd",
          "type": "uint256"
        }
      ],
      "name": "offset",
      "outputs": [],
      "stateMutability": "nonpayable",
      "type": "function"
    },
    {
      "inputs": [],
      "name": "owner",
      "outputs": [
        {
          "internalType": "address",
          "name": "",
          "type": "address"
        }
      ],
      "stateMutability": "view",
      "type": "function"
    },
    {
      "inputs": [],
      "name": "priceFeed",
      "outputs": [
        {
          "internalType": "contract IPriceFeed",
          "name": "",
          "type": "address"
        }
      ],
      "stateMutability": "view",
      "type": "function"
    },
    {
      "inputs": [
        {
          "internalType": "uint256",
          "name": "_amount",
          "type": "uint256"
        },
        {
          "internalType": "address",
          "name": "_frontEndTag",
          "type": "address"
        }
      ],
      "name": "provideToSP",
      "outputs": [],
      "stateMutability": "nonpayable",
      "type": "function"
    },
    {
      "inputs": [
        {
          "internalType": "uint256",
          "name": "_kickbackRate",
          "type": "uint256"
        }
      ],
      "name": "registerFrontEnd",
      "outputs": [],
      "stateMutability": "nonpayable",
      "type": "function"
    },
    {
      "inputs": [
        {
          "internalType": "address",
          "name": "_borrowerOperationsAddress",
          "type": "address"
        },
        {
          "internalType": "address",
          "name": "_troveManagerAddress",
          "type": "address"
        },
        {
          "internalType": "address",
          "name": "_activePoolAddress",
          "type": "address"
        },
        {
          "internalType": "address",
          "name": "_lusdTokenAddress",
          "type": "address"
        },
        {
          "internalType": "address",
          "name": "_sortedTrovesAddress",
          "type": "address"
        },
        {
          "internalType": "address",
          "name": "_priceFeedAddress",
          "type": "address"
        },
        {
          "internalType": "address",
          "name": "_communityIssuanceAddress",
          "type": "address"
        }
      ],
      "name": "setAddresses",
      "outputs": [],
      "stateMutability": "nonpayable",
      "type": "function"
    },
    {
      "inputs": [],
      "name": "sortedTroves",
      "outputs": [
        {
          "internalType": "contract ISortedTroves",
          "name": "",
          "type": "address"
        }
      ],
      "stateMutability": "view",
      "type": "function"
    },
    {
      "inputs": [],
      "name": "stakedTLOS",
      "outputs": [
        {
          "internalType": "contract IStakedTLOS",
          "name": "",
          "type": "address"
        }
      ],
      "stateMutability": "view",
      "type": "function"
    },
    {
      "inputs": [],
      "name": "troveManager",
      "outputs": [
        {
          "internalType": "contract ITroveManager",
          "name": "",
          "type": "address"
        }
      ],
      "stateMutability": "view",
      "type": "function"
    },
    {
      "inputs": [
        {
          "internalType": "uint256",
          "name": "_amount",
          "type": "uint256"
        }
      ],
      "name": "withdrawFromSP",
      "outputs": [],
      "stateMutability": "nonpayable",
      "type": "function"
    },
    {
      "stateMutability": "payable",
      "type": "receive"
    }
  ],
  "bytecode": "0x6080604052670de0b6b3a764000060115534801561001c57600080fd5b50600380546001600160a01b031916339081179091556040516000907f8be0079c531659141344cd1fd0a4f28419497f9722a3daafe3b4186f6b6457e0908290a3600780546001600160a01b03191673a9991e4daa44922d00a78b6d986cdf628d46c4dd179055613558806100926000396000f3fe6080604052600436106102975760003560e01c806382e0a5741161015a578063ae918754116100c1578063dbd6f4201161007a578063dbd6f420146108e9578063df9cd84f146108fe578063eaa8ba7f14610931578063f5f1595d14610996578063f92d3433146109c9578063fc7e286d146109de576102db565b8063ae9187541461084d578063b83f91a214610862578063ce4b5bbe14610877578063cef941e81461088c578063d4ca0575146108a1578063d7fb0443146108d4576102db565b806395fb16bb1161011357806395fb16bb146107385780639bf2f1ac1461074d578063a20baee6146105b3578063a3f4df7e14610762578063a4e59ac8146107ec578063a7bfff9714610801576102db565b806382e0a5741461066257806386da08241461069d578063887105d3146106d05780638b8fbd92146106e55780638da5cb5b146106fa5780638f32d59b1461070f576102db565b8063538153ca116101fe578063741bef1a116101b7578063741bef1a146105c857806376671808146105dd57806377553ad41461060e578063794e572414610623578063795d26c3146106385780637f7dde4a1461064d576102db565b8063538153ca146104f3578063556be101146105085780635733d58f146105325780635d2de642146105475780635f788d651461057a57806372fe25aa146105b3576102db565b80632e86bbd8116102505780632e86bbd814610420578063335525ad14610435578063389e92a5146104655780633cc74225146104985780633d83908a146104c95780634870dd9a146104de576102db565b806314f6c3be146102e057806316b9d3c5146103075780631bf43555146103715780631cdc47001461038657806328a0a04d146103b95780632e54bf95146103f4576102db565b366102db576102a4610a32565b600a5460408051918252517fceb6d671277d4354fd29977ada70695fbd93a16612abf765d6b0e25c28dc6db39181900360200190a1005b600080fd5b3480156102ec57600080fd5b506102f5610a7d565b60408051918252519081900360200190f35b34801561031357600080fd5b5061033a6004803603602081101561032a57600080fd5b50356001600160a01b0316610a83565b604080519586526020860194909452848401929092526001600160801b039081166060850152166080830152519081900360a00190f35b34801561037d57600080fd5b506102f5610abe565b34801561039257600080fd5b506102f5600480360360208110156103a957600080fd5b50356001600160a01b0316610acb565b3480156103c557600080fd5b506102f5600480360360408110156103dc57600080fd5b506001600160801b0381358116916020013516610b73565b34801561040057600080fd5b5061041e6004803603602081101561041757600080fd5b5035610b90565b005b34801561042c57600080fd5b506102f5610d4f565b34801561044157600080fd5b5061041e6004803603604081101561045857600080fd5b5080359060200135610d5b565b34801561047157600080fd5b506102f56004803603602081101561048857600080fd5b50356001600160a01b0316610e3b565b3480156104a457600080fd5b506104ad610ed8565b604080516001600160a01b039092168252519081900360200190f35b3480156104d557600080fd5b506104ad610ee7565b3480156104ea57600080fd5b506102f5610ef6565b3480156104ff57600080fd5b506102f5610efb565b34801561051457600080fd5b5061041e6004803603602081101561052b57600080fd5b5035610f01565b34801561053e57600080fd5b506102f5610f76565b34801561055357600080fd5b506102f56004803603602081101561056a57600080fd5b50356001600160a01b0316610f82565b34801561058657600080fd5b5061041e6004803603604081101561059d57600080fd5b50803590602001356001600160a01b0316610f94565b3480156105bf57600080fd5b506102f561114b565b3480156105d457600080fd5b506104ad611157565b3480156105e957600080fd5b506105f2611166565b604080516001600160801b039092168252519081900360200190f35b34801561061a57600080fd5b506104ad61117c565b34801561062f57600080fd5b506102f561118b565b34801561064457600080fd5b506102f5611197565b34801561065957600080fd5b506104ad611298565b34801561066e57600080fd5b506102f56004803603604081101561068557600080fd5b506001600160801b03813581169160200135166112a7565b3480156106a957600080fd5b5061033a600480360360208110156106c057600080fd5b50356001600160a01b03166112c4565b3480156106dc57600080fd5b506102f56112ff565b3480156106f157600080fd5b506102f56113bb565b34801561070657600080fd5b506104ad6113c1565b34801561071b57600080fd5b506107246113d0565b604080519115158252519081900360200190f35b34801561074457600080fd5b506104ad6113e1565b34801561075957600080fd5b506102f56113f0565b34801561076e57600080fd5b506107776113f6565b6040805160208082528351818301528351919283929083019185019080838360005b838110156107b1578181015183820152602001610799565b50505050905090810190601f1680156107de5780820380516001836020036101000a031916815260200191505b509250505060405180910390f35b3480156107f857600080fd5b506105f261141f565b34801561080d57600080fd5b506108346004803603602081101561082457600080fd5b50356001600160a01b031661142e565b6040805192835290151560208301528051918290030190f35b34801561085957600080fd5b506104ad61144a565b34801561086e57600080fd5b506104ad611459565b34801561088357600080fd5b506102f5611468565b34801561089857600080fd5b506102f5611470565b3480156108ad57600080fd5b506102f5600480360360208110156108c457600080fd5b50356001600160a01b0316611476565b3480156108e057600080fd5b506102f561157a565b3480156108f557600080fd5b506104ad611580565b34801561090a57600080fd5b506102f56004803603602081101561092157600080fd5b50356001600160a01b031661158f565b34801561093d57600080fd5b5061041e600480360360e081101561095457600080fd5b506001600160a01b038135811691602081013582169160408201358116916060810135821691608082013581169160a081013582169160c0909101351661162c565b3480156109a257600080fd5b506102f5600480360360208110156109b957600080fd5b50356001600160a01b03166118dd565b3480156109d557600080fd5b506102f56119da565b3480156109ea57600080fd5b50610a1160048036036020811015610a0157600080fd5b50356001600160a01b03166119e5565b604080519283526001600160a01b0390911660208301528051918290030190f35b6000546001600160a01b03163314610a7b5760405162461bcd60e51b81526004018080602001828103825260278152602001806133376027913960400191505060405180910390fd5b565b600a5490565b6010602052600090815260409020805460018201546002830154600390930154919290916001600160801b0380821691600160801b90041685565b6804e1003b28d928000081565b6001600160a01b0381166000908152600c602052604081205480610af3576000915050610b6e565b610afb6132af565b506001600160a01b0383166000908152600d60209081526040808320815160a08101835281548152600182015493810193909352600281015491830191909152600301546001600160801b038082166060840152600160801b90910416608082015290610b688383611a07565b93505050505b919050565b601360209081526000928352604080842090915290825290205481565b8015610b9e57610b9e611b05565b336000908152600c6020526040902054610bb781611cc2565b6009546001600160a01b0316610bcc81611d04565b6000610bd733610e3b565b90506000610be433610acb565b90506000610bf28683611d78565b90506000610c06868463ffffffff611d9016565b336000818152600c60205260409020600101549192506001600160a01b0390911690610c3490879083611dd2565b6000610c3f8261158f565b90506000610c53828663ffffffff611d9016565b9050610c5f8382611f71565b6040805182815233602082015281516001600160a01b038616927f99920012339b5a3368d3a04b8606ce412c46ed92b7dcd8602d41fc8862cb8f25928290030190a2610cab33866120bd565b6000610cbd878763ffffffff611d9016565b9050610cc93382612143565b60408051828152905133917fbce78369dccab09eec1986f4d409ab09ffbb47d65423e5148fcf98411c5111c9919081900360200190a26040805189815260208101879052815133927f51457222ebca92c335c9c86e2baa1cc0e40ffaa9084a51452980d5ba8dec2f63928290030190a2610d42886122c9565b5050505050505050505050565b678ac7230489e8000081565b600754604080516363737ac960e11b81526004810184905290516000926001600160a01b03169163c6e6f592916024808301926020929190829003018186803b158015610da757600080fd5b505afa158015610dbb573d6000803e3d6000fd5b505050506040513d6020811015610dd157600080fd5b50519050610ddd61238c565b600b54801580610deb575083155b15610df7575050610e37565b600954610e0c906001600160a01b0316611d04565b600080610e1a8487856123d5565b91509150610e2882826124ce565b610e3285876127c8565b505050505b5050565b6001600160a01b0381166000908152600c602052604081205480610e63576000915050610b6e565b610e6b6132af565b506001600160a01b0383166000908152600d60209081526040808320815160a08101835281548152600182015493810193909352600281015491830191909152600301546001600160801b038082166060840152600160801b90910416608082015290610b688383612902565b6001546001600160a01b031681565b6005546001600160a01b031681565b60c881565b60175481565b610f0a336129f3565b610f1333612a4e565b610f1c81612aa4565b336000818152600e60209081526040918290208481556001908101805460ff19169091179055815184815291517f19bc932fb9e16a8b5a1e41be9f4c2de59d5ddd7567b8b81405f532ca00a9880e9281900390910190a250565b6714d1120d7b16000081565b600f6020526000908152604090205481565b610f9d81612aeb565b610fa6336129f3565b610faf82612b57565b336000908152600c60205260409020546009546001600160a01b0316610fd481611d04565b81610fe357610fe33384612b96565b6000610fee33610e3b565b90506000610ffb33610acb565b9050600061100f858363ffffffff611d9016565b336000818152600c60205260409020600101549192506001600160a01b039091169061103d90869083611dd2565b60006110488261158f565b9050600061105c828b63ffffffff612bf016565b90506110688382611f71565b6040805182815233602082015281516001600160a01b038616927f99920012339b5a3368d3a04b8606ce412c46ed92b7dcd8602d41fc8862cb8f25928290030190a26110b4338b612c4a565b60006110c6868c63ffffffff612bf016565b90506110d23382612143565b60408051828152905133917fbce78369dccab09eec1986f4d409ab09ffbb47d65423e5148fcf98411c5111c9919081900360200190a26040805188815260208101879052815133927f51457222ebca92c335c9c86e2baa1cc0e40ffaa9084a51452980d5ba8dec2f63928290030190a2610d42876122c9565b670de0b6b3a764000081565b6002546001600160a01b031681565b601254600160801b90046001600160801b031681565b6004546001600160a01b031681565b670f43fc2c04ee000081565b6000805460408051632f5a97e560e11b8152905183926001600160a01b031691635eb52fca916004808301926020929190829003018186803b1580156111dc57600080fd5b505afa1580156111f0573d6000803e3d6000fd5b505050506040513d602081101561120657600080fd5b505160015460408051632f5a97e560e11b815290519293506000926001600160a01b0390921691635eb52fca91600480820192602092909190829003018186803b15801561125357600080fd5b505afa158015611267573d6000803e3d6000fd5b505050506040513d602081101561127d57600080fd5b50519050611291828263ffffffff612bf016565b9250505090565b6000546001600160a01b031681565b601460209081526000928352604080842090915290825290205481565b600d602052600090815260409020805460018201546002830154600390930154919290916001600160801b0380821691600160801b90041685565b6000805460408051630a7b61df60e11b8152905183926001600160a01b0316916314f6c3be916004808301926020929190829003018186803b15801561134457600080fd5b505afa158015611358573d6000803e3d6000fd5b505050506040513d602081101561136e57600080fd5b505160015460408051630a7b61df60e11b815290519293506000926001600160a01b03909216916314f6c3be91600480820192602092909190829003018186803b15801561125357600080fd5b60115481565b6003546001600160a01b031690565b6003546001600160a01b0316331490565b6009546001600160a01b031681565b600b5490565b6040518060400160405280600d81526020016c14dd18589a5b1a5d1e541bdbdb609a1b81525081565b6012546001600160801b031681565b600e602052600090815260409020805460019091015460ff1682565b6008546001600160a01b031681565b6006546001600160a01b031681565b633b9aca0081565b60155481565b6001600160a01b0381166000908152600f60205260408120548061149e576000915050610b6e565b6001600160a01b0383166000908152600e6020526040812054906114d0670de0b6b3a76400008363ffffffff611d9016565b90506114da6132af565b506001600160a01b0385166000908152601060209081526040808320815160a08101835281548152600182015493810193909352600281015491830191909152600301546001600160801b038082166060840152600160801b9091041660808201529061156f670de0b6b3a76400006115636115568886612d14565b869063ffffffff612da016565b9063ffffffff612df916565b979650505050505050565b60165481565b6007546001600160a01b031681565b6001600160a01b0381166000908152600f6020526040812054806115b7576000915050610b6e565b6115bf6132af565b506001600160a01b0383166000908152601060209081526040808320815160a08101835281548152600182015493810193909352600281015491830191909152600301546001600160801b038082166060840152600160801b90910416608082015290610b688383611a07565b6116346113d0565b611685576040805162461bcd60e51b815260206004820181905260248201527f4f776e61626c653a2063616c6c6572206973206e6f7420746865206f776e6572604482015290519081900360640190fd5b61168e87612e3b565b61169786612e3b565b6116a085612e3b565b6116a984612e3b565b6116b283612e3b565b6116bb82612e3b565b6116c481612e3b565b600480546001600160a01b03199081166001600160a01b038a81169182179093556005805483168a85161790556000805483168985161790556006805483168885161790556008805483168785161790556002805483168685161790556009805490921692841692909217905560408051918252517f3ca631ffcd2a9b5d9ae18543fc82f58eb4ca33af9e6ab01b7a8e95331e6ed985916020908290030190a1604080516001600160a01b038816815290517f143219c9e69b09e07e095fcc889b43d8f46ca892bba65f08dc3a0050869a56789181900360200190a1604080516001600160a01b038716815290517f78f058b189175430c48dc02699e3a0031ea4ff781536dc2fab847de4babdd8829181900360200190a1604080516001600160a01b038616815290517f227eec0ec317af6ab1a9587ffa1c84332522eb4c583a908f89babc05f8f339bd9181900360200190a1604080516001600160a01b038516815290517f65f4cf077bc01e4742eb5ad98326f6e95b63548ea24b17f8d5e823111fe788009181900360200190a1604080516001600160a01b038416815290517f8c537274438aa850a330284665d81a85dd38267d09e4050d416bfc94142db2649181900360200190a1604080516001600160a01b038316815290517f3055265812fb8447b9ada4a5d804ec43bd528ec40e89c952bbc7b85dc5ac68119181900360200190a16118d4612eea565b50505050505050565b6001600160a01b0381166000908152600c602052604081205480611905576000915050610b6e565b6001600160a01b038084166000908152600c602052604081206001015490911690811561194a576001600160a01b0382166000908152600e6020526040902054611954565b670de0b6b3a76400005b905061195e6132af565b506001600160a01b0385166000908152600d60209081526040808320815160a08101835281548152600182015493810193909352600281015491830191909152600301546001600160801b038082166060840152600160801b9091041660808201529061156f670de0b6b3a76400006115636115568886612d14565b6611c37937e0800081565b600c60205260009081526040902080546001909101546001600160a01b031682565b6020810151606082015160808301516012546000939291906001600160801b03600160801b90910481169082161015611a465760009350505050611aff565b6012546000908190611a67906001600160801b03168563ffffffff612f3416565b90506001600160801b038116611a9757611a90856115636011548b612da090919063ffffffff16565b9150611acf565b806001600160801b031660011415611aca57611a90633b9aca00611563876115636011548d612da090919063ffffffff16565b600091505b611ae388633b9aca0063ffffffff612df916565b821015611af857600095505050505050611aff565b5093505050505b92915050565b60025460408051630fdb11cf60e01b815290516000926001600160a01b031691630fdb11cf91600480830192602092919082900301818787803b158015611b4b57600080fd5b505af1158015611b5f573d6000803e3d6000fd5b505050506040513d6020811015611b7557600080fd5b505160085460408051634d62283160e01b815290519293506000926001600160a01b0390921691634d62283191600480820192602092909190829003018186803b158015611bc257600080fd5b505afa158015611bd6573d6000803e3d6000fd5b505050506040513d6020811015611bec57600080fd5b505160055460408051630d293c7160e41b81526001600160a01b038085166004830152602482018790529151939450600093919092169163d293c710916044808301926020929190829003018186803b158015611c4857600080fd5b505afa158015611c5c573d6000803e3d6000fd5b505050506040513d6020811015611c7257600080fd5b50519050670f43fc2c04ee0000811015611cbd5760405162461bcd60e51b81526004018080602001828103825260448152602001806134df6044913960600191505060405180910390fd5b505050565b60008111611d015760405162461bcd60e51b81526004018080602001828103825260308152602001806134626030913960400191505060405180910390fd5b50565b6000816001600160a01b03166346ad34d96040518163ffffffff1660e01b8152600401602060405180830381600087803b158015611d4157600080fd5b505af1158015611d55573d6000803e3d6000fd5b505050506040513d6020811015611d6b57600080fd5b50519050610e3781612f8d565b6000818310611d875781611d89565b825b9392505050565b6000611d8983836040518060400160405280601e81526020017f536166654d6174683a207375627472616374696f6e206f766572666c6f7700008152506130a8565b6001600160a01b03811615611ea7576000611dec82611476565b9050836001600160a01b031663614d2ab683836040518363ffffffff1660e01b815260040180836001600160a01b03166001600160a01b0316815260200182815260200192505050600060405180830381600087803b158015611e4e57600080fd5b505af1158015611e62573d6000803e3d6000fd5b50506040805184815290516001600160a01b03861693507fcd2cdc1a4af71051394e9c6facd9a266b2ac5bd65d219a701eeda009f47682bf92509081900360200190a2505b6000611eb2836118dd565b9050836001600160a01b031663614d2ab684836040518363ffffffff1660e01b815260040180836001600160a01b03166001600160a01b0316815260200182815260200192505050600060405180830381600087803b158015611f1457600080fd5b505af1158015611f28573d6000803e3d6000fd5b50506040805184815290516001600160a01b03871693507f2608b986a6ac0f6c629ca37018e80af5561e366252ae93602a96d3ab2e73e42d92509081900360200190a250505050565b6001600160a01b0382166000908152600f6020526040902081905580612001576001600160a01b0382166000818152601060209081526040808320838155600181018490556002810184905560030183905580518381529182019290925281517fbb1322f85cc7cc8bac4e172a5bc5dcc0c1959007f9a030032abf9258205f0e45929181900390910190a2610e37565b6012546011546001600160801b03600160801b80840482166000818152601460209081526040808320978616808452978252808320546001600160a01b038b168085526010845293829020600181018990556002810182905560030180546001600160801b0319168a17909716958502959095179095558451868152908101849052845192959491927fbb1322f85cc7cc8bac4e172a5bc5dcc0c1959007f9a030032abf9258205f0e45929181900390910190a2505050505050565b806120c757610e37565b60065460408051631062c15f60e11b81523060048201526001600160a01b03858116602483015260448201859052915191909216916320c582be91606480830192600092919082900301818387803b15801561212257600080fd5b505af1158015612136573d6000803e3d6000fd5b50505050610e378161313f565b6001600160a01b0382166000908152600c60205260409020819055806121f1576001600160a01b0382166000818152600c60209081526040808320600190810180546001600160a01b0319169055600d83528184208481559081018490556002810184905560030183905580518381529182018390528181019290925290517f2d6cc0bcdf72c9486f6451bde6b80f44066f4558f77f44dbfedbe7d8b295225a9181900360600190a2610e37565b6012546011546001600160801b03600160801b8084048216600081815260136020908152604080832097861680845297825280832054848452601483528184208985528352818420546001600160a01b038c16808652600d855294839020600181018a90558281556002810182905560030180546001600160801b0319168b179098169686029690961790965580518781529182018690528181018590525192959493927f2d6cc0bcdf72c9486f6451bde6b80f44066f4558f77f44dbfedbe7d8b295225a916060908290030190a250505050505050565b806122d357611d01565b604080513381526020810183905281517f6109e2559dfa766aaec7118351d48a523f0a4157f49c8d68749c8ac41318ad12929181900390910190a16007546040805163a9059cbb60e01b81523360048201526024810184905290516001600160a01b039092169163a9059cbb916044808201926020929091908290030181600087803b15801561236257600080fd5b505af1158015612376573d6000803e3d6000fd5b505050506040513d6020811015611cbd57600080fd5b6005546001600160a01b03163314610a7b5760405162461bcd60e51b815260040180806020018281038252602981526020018061335e6029913960400191505060405180910390fd5b60008060006124076016546123fb670de0b6b3a764000089612da090919063ffffffff16565b9063ffffffff612bf016565b90508385111561241357fe5b83851415612430576000601755670de0b6b3a76400009150612490565b60175460009061245e9061245288670de0b6b3a764000063ffffffff612da016565b9063ffffffff611d9016565b905061247560016123fb838863ffffffff612df916565b925061248b81612452858863ffffffff612da016565b601755505b6124a0818563ffffffff612df916565b92506124c26124b5848663ffffffff612da016565b829063ffffffff611d9016565b60165550935093915050565b6011546000670de0b6b3a76400008311156124e557fe5b60006124ff670de0b6b3a76400008563ffffffff611d9016565b6012546001600160801b03600160801b8204811660008181526013602090815260408083209490951680835293905292832054939450909290916125438988612da0565b90506000612557838363ffffffff612bf016565b6001600160801b038086166000818152601360209081526040808320948b16808452948252918290208590558151858152908101929092528181019290925290519192507fe12e2cd2c9afa8069203ca07e7eff1edce4a075686d0736a8e7e0d593597b207919081900360600190a18561268e576125e56001600160801b038516600163ffffffff61319516565b601280546001600160801b03908116600160801b938216840217918290556040805193909204168252517fb50f0f59e7cb5b421dc77581c3a9919e3806e076e5fa78a874c3f120cb7d874d916020908290030190a1601280546001600160801b0319169055604080516000815290517f1f9dfc70cd666adb18a39d60a797518f7b4febf4b6e24ef37d44f6e1e7219fbe9181900360200190a1670de0b6b3a7640000965061277a565b633b9aca006126af670de0b6b3a76400006115638b8a63ffffffff612da016565b101561275b576126e5670de0b6b3a7640000611563633b9aca006126d98c8b63ffffffff612da016565b9063ffffffff612da016565b96506127016001600160801b038616600163ffffffff61319516565b601280546001600160801b0319166001600160801b0392831617908190556040805191909216815290517f1f9dfc70cd666adb18a39d60a797518f7b4febf4b6e24ef37d44f6e1e7219fbe916020908290030190a161277a565b612777670de0b6b3a76400006115638a8963ffffffff612da016565b96505b6000871161278457fe5b60118790556040805188815290517fc1a9618cb59ebca77cbdbc2949f126823c407ff13edb285fd0262519a9c18e8c9181900360200190a150505050505050505050565b600080546040805163071b32b560e31b81526004810185905290516001600160a01b039092169283926338d995a892602480820193929182900301818387803b15801561281457600080fd5b505af1158015612828573d6000803e3d6000fd5b505050506128358261313f565b60065460408051632770a7eb60e21b81523060048201526024810185905290516001600160a01b0390921691639dc29fac9160448082019260009290919082900301818387803b15801561288857600080fd5b505af115801561289c573d6000803e3d6000fd5b5050604080516364a197f360e01b81523060048201526024810187905290516001600160a01b03851693506364a197f39250604480830192600092919082900301818387803b1580156128ee57600080fd5b505af11580156118d4573d6000803e3d6000fd5b6080810151606082015182516020808501516001600160801b03808616600090815260138452604080822092871682529190935282205491949392918590612950908463ffffffff611d9016565b6001600160801b038087166000908152601360205260408120929350916129b391633b9aca009190849061298d908a16600163ffffffff61319516565b6001600160801b031681526020810191909152604001600020549063ffffffff612df916565b905060006129e5670de0b6b3a764000061156386816129d8888863ffffffff612bf016565b8f9063ffffffff612da016565b9a9950505050505050505050565b6001600160a01b0381166000908152600e602052604090206001015460ff1615611d015760405162461bcd60e51b81526004018080602001828103825260398152602001806134016039913960400191505060405180910390fd5b6001600160a01b0381166000908152600c60205260409020548015610e375760405162461bcd60e51b815260040180806020018281038252602881526020018061343a6028913960400191505060405180910390fd5b670de0b6b3a7640000811115611d015760405162461bcd60e51b81526004018080602001828103825260338152602001806133a86033913960400191505060405180910390fd5b6001600160a01b0381166000908152600e602052604090206001015460ff1680612b1c57506001600160a01b038116155b611d015760405162461bcd60e51b81526004018080602001828103825260468152602001806132f16046913960600191505060405180910390fd5b60008111611d015760405162461bcd60e51b81526004018080602001828103825260268152602001806133db6026913960400191505060405180910390fd5b6001600160a01b038281166000818152600c602052604080822060010180546001600160a01b0319169486169485179055517f094c08e96a8890877a8390b4f967180a7507ad8622244d05fcd0f9f8e086564e9190a35050565b600082820183811015611d89576040805162461bcd60e51b815260206004820152601b60248201527f536166654d6174683a206164646974696f6e206f766572666c6f770000000000604482015290519081900360640190fd5b60065460408051632ee65eeb60e21b81526001600160a01b038581166004830152306024830152604482018590529151919092169163bb997bac91606480830192600092919082900301818387803b158015612ca557600080fd5b505af1158015612cb9573d6000803e3d6000fd5b5050600b5460009250612cd391508363ffffffff612bf016565b600b8190556040805182815290519192507fa8e886449d8f7e765877b4a4f54632da3943ae454d5a272bdccb1781f086ff29919081900360200190a1505050565b608081015160608201516040808401516020808601516001600160801b03808716600090815260148452858120918716815292529281205490949392908590612d63908463ffffffff611d9016565b6001600160801b038087166000908152601460205260408120929350916129b391633b9aca009190849061298d908a16600163ffffffff61319516565b600082612daf57506000611aff565b82820282848281612dbc57fe5b0414611d895760405162461bcd60e51b81526004018080602001828103825260218152602001806133876021913960400191505060405180910390fd5b6000611d8983836040518060400160405280601a81526020017f536166654d6174683a206469766973696f6e206279207a65726f0000000000008152506131e5565b6001600160a01b038116612e96576040805162461bcd60e51b815260206004820152601e60248201527f4163636f756e742063616e6e6f74206265207a65726f20616464726573730000604482015290519081900360640190fd5b803b80610e37576040805162461bcd60e51b815260206004820181905260248201527f4163636f756e7420636f64652073697a652063616e6e6f74206265207a65726f604482015290519081900360640190fd5b6003546040516000916001600160a01b0316907f8be0079c531659141344cd1fd0a4f28419497f9722a3daafe3b4186f6b6457e0908390a3600380546001600160a01b0319169055565b6000826001600160801b0316826001600160801b03161115612f875760405162461bcd60e51b81526004018080602001828103825260288152602001806134926028913960400191505060405180910390fd5b50900390565b600b54801580612f9b575081155b15612fa65750611d01565b6000612fb2838361324a565b90506000612fcb60115483612da090919063ffffffff16565b6012546001600160801b03600160801b82048116600090815260146020908152604080832093909416825291909152205490915061300f908263ffffffff612bf016565b601280546001600160801b03600160801b808304821660009081526014602081815260408084209686168452958152858320979097559454918204831680825294865283812091909216808352908552908290205482519081529384019290925282810191909152517f2d6127771b164a9cc8827d24b5955db2a77e7a81dac389107ebb8bce9fb649689181900360600190a150505050565b600081848411156131375760405162461bcd60e51b81526004018080602001828103825283818151815260200191508051906020019080838360005b838110156130fc5781810151838201526020016130e4565b50505050905090810190601f1680156131295780820380516001836020036101000a031916815260200191505b509250505060405180910390fd5b505050900390565b600b54600090613155908363ffffffff611d9016565b600b8190556040805182815290519192507fa8e886449d8f7e765877b4a4f54632da3943ae454d5a272bdccb1781f086ff29919081900360200190a15050565b60008282016001600160801b038085169082161015611d895760405162461bcd60e51b81526004018080602001828103825260258152602001806134ba6025913960400191505060405180910390fd5b600081836132345760405162461bcd60e51b81526020600482018181528351602484015283519092839260449091019190850190808383600083156130fc5781810151838201526020016130e4565b50600083858161324057fe5b0495945050505050565b60008061326e6015546123fb670de0b6b3a764000087612da090919063ffffffff16565b90506000613282828563ffffffff612df916565b90506132a4613297828663ffffffff612da016565b839063ffffffff611d9016565b601555949350505050565b6040518060a0016040528060008152602001600081526020016000815260200160006001600160801b0316815260200160006001600160801b03168152509056fe53746162696c697479506f6f6c3a20546167206d757374206265206120726567697374657265642066726f6e7420656e642c206f7220746865207a65726f206164647265737353746162696c697479506f6f6c3a2043616c6c6572206973206e6f7420416374697665506f6f6c53746162696c697479506f6f6c3a2043616c6c6572206973206e6f742054726f76654d616e61676572536166654d6174683a206d756c7469706c69636174696f6e206f766572666c6f7753746162696c697479506f6f6c3a204b69636b6261636b2072617465206d75737420626520696e2072616e6765205b302c315d53746162696c697479506f6f6c3a20416d6f756e74206d757374206265206e6f6e2d7a65726f53746162696c697479506f6f6c3a206d757374206e6f7420616c7265616479206265206120726567697374657265642066726f6e7420656e6453746162696c697479506f6f6c3a2055736572206d7573742068617665206e6f206465706f73697453746162696c697479506f6f6c3a2055736572206d75737420686176652061206e6f6e2d7a65726f206465706f7369744c697175697479536166654d6174683132383a207375627472616374696f6e206f766572666c6f774c697175697479536166654d6174683132383a206164646974696f6e206f766572666c6f7753746162696c697479506f6f6c3a2043616e6e6f74207769746864726177207768696c65207468657265206172652074726f766573207769746820494352203c204d4352a2646970667358221220b78f96fde7641e6e6d7a3ddf52f06887f39af71f37a710d8a31a674988c0544164736f6c634300060b0033",
  "linkReferences": {},
  "deployedLinkReferences": {}
}