{
  "_format": "hh-sol-artifact-1",
  "contractName": "StabilityPool",
  "sourceName": "contracts/StabilityPool.sol",
  "abi": [
    {
      "inputs": [],
      "stateMutability": "nonpayable",
      "type": "constructor"
    },
    {
      "anonymous": false,
      "inputs": [
        {
          "indexed": false,
          "internalType": "address",
          "name": "_newActivePoolAddress",
          "type": "address"
        }
      ],
      "name": "ActivePoolAddressChanged",
      "type": "event"
    },
    {
      "anonymous": false,
      "inputs": [
        {
          "indexed": false,
          "internalType": "address",
          "name": "_newBorrowerOperationsAddress",
          "type": "address"
        }
      ],
      "name": "BorrowerOperationsAddressChanged",
      "type": "event"
    },
    {
      "anonymous": false,
      "inputs": [
        {
          "indexed": false,
          "internalType": "address",
          "name": "_newCommunityIssuanceAddress",
          "type": "address"
        }
      ],
      "name": "CommunityIssuanceAddressChanged",
      "type": "event"
    },
    {
      "anonymous": false,
      "inputs": [
        {
          "indexed": false,
          "internalType": "address",
          "name": "_newDefaultPoolAddress",
          "type": "address"
        }
      ],
      "name": "DefaultPoolAddressChanged",
      "type": "event"
    },
    {
      "anonymous": false,
      "inputs": [
        {
          "indexed": true,
          "internalType": "address",
          "name": "_depositor",
          "type": "address"
        },
        {
          "indexed": false,
          "internalType": "uint256",
          "name": "_P",
          "type": "uint256"
        },
        {
          "indexed": false,
          "internalType": "uint256",
          "name": "_S",
          "type": "uint256"
        },
        {
          "indexed": false,
          "internalType": "uint256",
          "name": "_G",
          "type": "uint256"
        }
      ],
      "name": "DepositSnapshotUpdated",
      "type": "event"
    },
    {
      "anonymous": false,
      "inputs": [
        {
          "indexed": true,
          "internalType": "address",
          "name": "_depositor",
          "type": "address"
        },
        {
          "indexed": false,
          "internalType": "uint256",
          "name": "_ETH",
          "type": "uint256"
        },
        {
          "indexed": false,
          "internalType": "uint256",
          "name": "_LUSDLoss",
          "type": "uint256"
        }
      ],
      "name": "ETHGainWithdrawn",
      "type": "event"
    },
    {
      "anonymous": false,
      "inputs": [
        {
          "indexed": false,
          "internalType": "uint128",
          "name": "_currentEpoch",
          "type": "uint128"
        }
      ],
      "name": "EpochUpdated",
      "type": "event"
    },
    {
      "anonymous": false,
      "inputs": [
        {
          "indexed": false,
          "internalType": "address",
          "name": "_to",
          "type": "address"
        },
        {
          "indexed": false,
          "internalType": "uint256",
          "name": "_amount",
          "type": "uint256"
        }
      ],
      "name": "EtherSent",
      "type": "event"
    },
    {
      "anonymous": false,
      "inputs": [
        {
          "indexed": true,
          "internalType": "address",
          "name": "_frontEnd",
          "type": "address"
        },
        {
          "indexed": false,
          "internalType": "uint256",
          "name": "_kickbackRate",
          "type": "uint256"
        }
      ],
      "name": "FrontEndRegistered",
      "type": "event"
    },
    {
      "anonymous": false,
      "inputs": [
        {
          "indexed": true,
          "internalType": "address",
          "name": "_frontEnd",
          "type": "address"
        },
        {
          "indexed": false,
          "internalType": "uint256",
          "name": "_P",
          "type": "uint256"
        },
        {
          "indexed": false,
          "internalType": "uint256",
          "name": "_G",
          "type": "uint256"
        }
      ],
      "name": "FrontEndSnapshotUpdated",
      "type": "event"
    },
    {
      "anonymous": false,
      "inputs": [
        {
          "indexed": true,
          "internalType": "address",
          "name": "_frontEnd",
          "type": "address"
        },
        {
          "indexed": false,
          "internalType": "uint256",
          "name": "_newFrontEndStake",
          "type": "uint256"
        },
        {
          "indexed": false,
          "internalType": "address",
          "name": "_depositor",
          "type": "address"
        }
      ],
      "name": "FrontEndStakeChanged",
      "type": "event"
    },
    {
      "anonymous": false,
      "inputs": [
        {
          "indexed": true,
          "internalType": "address",
          "name": "_depositor",
          "type": "address"
        },
        {
          "indexed": true,
          "internalType": "address",
          "name": "_frontEnd",
          "type": "address"
        }
      ],
      "name": "FrontEndTagSet",
      "type": "event"
    },
    {
      "anonymous": false,
      "inputs": [
        {
          "indexed": false,
          "internalType": "uint256",
          "name": "_G",
          "type": "uint256"
        },
        {
          "indexed": false,
          "internalType": "uint128",
          "name": "_epoch",
          "type": "uint128"
        },
        {
          "indexed": false,
          "internalType": "uint128",
          "name": "_scale",
          "type": "uint128"
        }
      ],
      "name": "G_Updated",
      "type": "event"
    },
    {
      "anonymous": false,
      "inputs": [
        {
          "indexed": true,
          "internalType": "address",
          "name": "_depositor",
          "type": "address"
        },
        {
          "indexed": false,
          "internalType": "uint256",
          "name": "_LQTY",
          "type": "uint256"
        }
      ],
      "name": "LQTYPaidToDepositor",
      "type": "event"
    },
    {
      "anonymous": false,
      "inputs": [
        {
          "indexed": true,
          "internalType": "address",
          "name": "_frontEnd",
          "type": "address"
        },
        {
          "indexed": false,
          "internalType": "uint256",
          "name": "_LQTY",
          "type": "uint256"
        }
      ],
      "name": "LQTYPaidToFrontEnd",
      "type": "event"
    },
    {
      "anonymous": false,
      "inputs": [
        {
          "indexed": false,
          "internalType": "address",
          "name": "_newLUSDTokenAddress",
          "type": "address"
        }
      ],
      "name": "LUSDTokenAddressChanged",
      "type": "event"
    },
    {
      "anonymous": false,
      "inputs": [
        {
          "indexed": true,
          "internalType": "address",
          "name": "previousOwner",
          "type": "address"
        },
        {
          "indexed": true,
          "internalType": "address",
          "name": "newOwner",
          "type": "address"
        }
      ],
      "name": "OwnershipTransferred",
      "type": "event"
    },
    {
      "anonymous": false,
      "inputs": [
        {
          "indexed": false,
          "internalType": "uint256",
          "name": "_P",
          "type": "uint256"
        }
      ],
      "name": "P_Updated",
      "type": "event"
    },
    {
      "anonymous": false,
      "inputs": [
        {
          "indexed": false,
          "internalType": "address",
          "name": "_newPriceFeedAddress",
          "type": "address"
        }
      ],
      "name": "PriceFeedAddressChanged",
      "type": "event"
    },
    {
      "anonymous": false,
      "inputs": [
        {
          "indexed": false,
          "internalType": "uint256",
          "name": "_S",
          "type": "uint256"
        },
        {
          "indexed": false,
          "internalType": "uint128",
          "name": "_epoch",
          "type": "uint128"
        },
        {
          "indexed": false,
          "internalType": "uint128",
          "name": "_scale",
          "type": "uint128"
        }
      ],
      "name": "S_Updated",
      "type": "event"
    },
    {
      "anonymous": false,
      "inputs": [
        {
          "indexed": false,
          "internalType": "uint128",
          "name": "_currentScale",
          "type": "uint128"
        }
      ],
      "name": "ScaleUpdated",
      "type": "event"
    },
    {
      "anonymous": false,
      "inputs": [
        {
          "indexed": false,
          "internalType": "address",
          "name": "_newSortedTrovesAddress",
          "type": "address"
        }
      ],
      "name": "SortedTrovesAddressChanged",
      "type": "event"
    },
    {
      "anonymous": false,
      "inputs": [
        {
          "indexed": false,
          "internalType": "uint256",
          "name": "_newBalance",
          "type": "uint256"
        }
      ],
      "name": "StabilityPoolETHBalanceUpdated",
      "type": "event"
    },
    {
      "anonymous": false,
      "inputs": [
        {
          "indexed": false,
          "internalType": "uint256",
          "name": "_newBalance",
          "type": "uint256"
        }
      ],
      "name": "StabilityPoolLUSDBalanceUpdated",
      "type": "event"
    },
    {
      "anonymous": false,
      "inputs": [
        {
          "indexed": false,
          "internalType": "address",
          "name": "_newTroveManagerAddress",
          "type": "address"
        }
      ],
      "name": "TroveManagerAddressChanged",
      "type": "event"
    },
    {
      "anonymous": false,
      "inputs": [
        {
          "indexed": true,
          "internalType": "address",
          "name": "_depositor",
          "type": "address"
        },
        {
          "indexed": false,
          "internalType": "uint256",
          "name": "_newDeposit",
          "type": "uint256"
        }
      ],
      "name": "UserDepositChanged",
      "type": "event"
    },
    {
      "inputs": [],
      "name": "BORROWING_FEE_FLOOR",
      "outputs": [
        {
          "internalType": "uint256",
          "name": "",
          "type": "uint256"
        }
      ],
      "stateMutability": "view",
      "type": "function"
    },
    {
      "inputs": [],
      "name": "CCR",
      "outputs": [
        {
          "internalType": "uint256",
          "name": "",
          "type": "uint256"
        }
      ],
      "stateMutability": "view",
      "type": "function"
    },
    {
      "inputs": [],
      "name": "DECIMAL_PRECISION",
      "outputs": [
        {
          "internalType": "uint256",
          "name": "",
          "type": "uint256"
        }
      ],
      "stateMutability": "view",
      "type": "function"
    },
    {
      "inputs": [],
      "name": "LUSD_GAS_COMPENSATION",
      "outputs": [
        {
          "internalType": "uint256",
          "name": "",
          "type": "uint256"
        }
      ],
      "stateMutability": "view",
      "type": "function"
    },
    {
      "inputs": [],
      "name": "MCR",
      "outputs": [
        {
          "internalType": "uint256",
          "name": "",
          "type": "uint256"
        }
      ],
      "stateMutability": "view",
      "type": "function"
    },
    {
      "inputs": [],
      "name": "MIN_NET_DEBT",
      "outputs": [
        {
          "internalType": "uint256",
          "name": "",
          "type": "uint256"
        }
      ],
      "stateMutability": "view",
      "type": "function"
    },
    {
      "inputs": [],
      "name": "NAME",
      "outputs": [
        {
          "internalType": "string",
          "name": "",
          "type": "string"
        }
      ],
      "stateMutability": "view",
      "type": "function"
    },
    {
      "inputs": [],
      "name": "P",
      "outputs": [
        {
          "internalType": "uint256",
          "name": "",
          "type": "uint256"
        }
      ],
      "stateMutability": "view",
      "type": "function"
    },
    {
      "inputs": [],
      "name": "PERCENT_DIVISOR",
      "outputs": [
        {
          "internalType": "uint256",
          "name": "",
          "type": "uint256"
        }
      ],
      "stateMutability": "view",
      "type": "function"
    },
    {
      "inputs": [],
      "name": "SCALE_FACTOR",
      "outputs": [
        {
          "internalType": "uint256",
          "name": "",
          "type": "uint256"
        }
      ],
      "stateMutability": "view",
      "type": "function"
    },
    {
      "inputs": [],
      "name": "_100pct",
      "outputs": [
        {
          "internalType": "uint256",
          "name": "",
          "type": "uint256"
        }
      ],
      "stateMutability": "view",
      "type": "function"
    },
    {
      "inputs": [],
      "name": "activePool",
      "outputs": [
        {
          "internalType": "contract IActivePool",
          "name": "",
          "type": "address"
        }
      ],
      "stateMutability": "view",
      "type": "function"
    },
    {
      "inputs": [],
      "name": "borrowerOperations",
      "outputs": [
        {
          "internalType": "contract IBorrowerOperations",
          "name": "",
          "type": "address"
        }
      ],
      "stateMutability": "view",
      "type": "function"
    },
    {
      "inputs": [],
      "name": "communityIssuance",
      "outputs": [
        {
          "internalType": "contract ICommunityIssuance",
          "name": "",
          "type": "address"
        }
      ],
      "stateMutability": "view",
      "type": "function"
    },
    {
      "inputs": [],
      "name": "currentEpoch",
      "outputs": [
        {
          "internalType": "uint128",
          "name": "",
          "type": "uint128"
        }
      ],
      "stateMutability": "view",
      "type": "function"
    },
    {
      "inputs": [],
      "name": "currentScale",
      "outputs": [
        {
          "internalType": "uint128",
          "name": "",
          "type": "uint128"
        }
      ],
      "stateMutability": "view",
      "type": "function"
    },
    {
      "inputs": [],
      "name": "defaultPool",
      "outputs": [
        {
          "internalType": "contract IDefaultPool",
          "name": "",
          "type": "address"
        }
      ],
      "stateMutability": "view",
      "type": "function"
    },
    {
      "inputs": [
        {
          "internalType": "address",
          "name": "",
          "type": "address"
        }
      ],
      "name": "depositSnapshots",
      "outputs": [
        {
          "internalType": "uint256",
          "name": "S",
          "type": "uint256"
        },
        {
          "internalType": "uint256",
          "name": "P",
          "type": "uint256"
        },
        {
          "internalType": "uint256",
          "name": "G",
          "type": "uint256"
        },
        {
          "internalType": "uint128",
          "name": "scale",
          "type": "uint128"
        },
        {
          "internalType": "uint128",
          "name": "epoch",
          "type": "uint128"
        }
      ],
      "stateMutability": "view",
      "type": "function"
    },
    {
      "inputs": [
        {
          "internalType": "address",
          "name": "",
          "type": "address"
        }
      ],
      "name": "deposits",
      "outputs": [
        {
          "internalType": "uint256",
          "name": "initialValue",
          "type": "uint256"
        },
        {
          "internalType": "address",
          "name": "frontEndTag",
          "type": "address"
        }
      ],
      "stateMutability": "view",
      "type": "function"
    },
    {
      "inputs": [
        {
          "internalType": "uint128",
          "name": "",
          "type": "uint128"
        },
        {
          "internalType": "uint128",
          "name": "",
          "type": "uint128"
        }
      ],
      "name": "epochToScaleToG",
      "outputs": [
        {
          "internalType": "uint256",
          "name": "",
          "type": "uint256"
        }
      ],
      "stateMutability": "view",
      "type": "function"
    },
    {
      "inputs": [
        {
          "internalType": "uint128",
          "name": "",
          "type": "uint128"
        },
        {
          "internalType": "uint128",
          "name": "",
          "type": "uint128"
        }
      ],
      "name": "epochToScaleToSum",
      "outputs": [
        {
          "internalType": "uint256",
          "name": "",
          "type": "uint256"
        }
      ],
      "stateMutability": "view",
      "type": "function"
    },
    {
      "inputs": [
        {
          "internalType": "address",
          "name": "",
          "type": "address"
        }
      ],
      "name": "frontEndSnapshots",
      "outputs": [
        {
          "internalType": "uint256",
          "name": "S",
          "type": "uint256"
        },
        {
          "internalType": "uint256",
          "name": "P",
          "type": "uint256"
        },
        {
          "internalType": "uint256",
          "name": "G",
          "type": "uint256"
        },
        {
          "internalType": "uint128",
          "name": "scale",
          "type": "uint128"
        },
        {
          "internalType": "uint128",
          "name": "epoch",
          "type": "uint128"
        }
      ],
      "stateMutability": "view",
      "type": "function"
    },
    {
      "inputs": [
        {
          "internalType": "address",
          "name": "",
          "type": "address"
        }
      ],
      "name": "frontEndStakes",
      "outputs": [
        {
          "internalType": "uint256",
          "name": "",
          "type": "uint256"
        }
      ],
      "stateMutability": "view",
      "type": "function"
    },
    {
      "inputs": [
        {
          "internalType": "address",
          "name": "",
          "type": "address"
        }
      ],
      "name": "frontEnds",
      "outputs": [
        {
          "internalType": "uint256",
          "name": "kickbackRate",
          "type": "uint256"
        },
        {
          "internalType": "bool",
          "name": "registered",
          "type": "bool"
        }
      ],
      "stateMutability": "view",
      "type": "function"
    },
    {
      "inputs": [
        {
          "internalType": "address",
          "name": "_frontEnd",
          "type": "address"
        }
      ],
      "name": "getCompoundedFrontEndStake",
      "outputs": [
        {
          "internalType": "uint256",
          "name": "",
          "type": "uint256"
        }
      ],
      "stateMutability": "view",
      "type": "function"
    },
    {
      "inputs": [
        {
          "internalType": "address",
          "name": "_depositor",
          "type": "address"
        }
      ],
      "name": "getCompoundedLUSDDeposit",
      "outputs": [
        {
          "internalType": "uint256",
          "name": "",
          "type": "uint256"
        }
      ],
      "stateMutability": "view",
      "type": "function"
    },
    {
      "inputs": [
        {
          "internalType": "address",
          "name": "_depositor",
          "type": "address"
        }
      ],
      "name": "getDepositorETHGain",
      "outputs": [
        {
          "internalType": "uint256",
          "name": "",
          "type": "uint256"
        }
      ],
      "stateMutability": "view",
      "type": "function"
    },
    {
      "inputs": [
        {
          "internalType": "address",
          "name": "_depositor",
          "type": "address"
        }
      ],
      "name": "getDepositorLQTYGain",
      "outputs": [
        {
          "internalType": "uint256",
          "name": "",
          "type": "uint256"
        }
      ],
      "stateMutability": "view",
      "type": "function"
    },
    {
      "inputs": [],
      "name": "getETH",
      "outputs": [
        {
          "internalType": "uint256",
          "name": "",
          "type": "uint256"
        }
      ],
      "stateMutability": "view",
      "type": "function"
    },
    {
      "inputs": [],
      "name": "getEntireSystemColl",
      "outputs": [
        {
          "internalType": "uint256",
          "name": "entireSystemColl",
          "type": "uint256"
        }
      ],
      "stateMutability": "view",
      "type": "function"
    },
    {
      "inputs": [],
      "name": "getEntireSystemDebt",
      "outputs": [
        {
          "internalType": "uint256",
          "name": "entireSystemDebt",
          "type": "uint256"
        }
      ],
      "stateMutability": "view",
      "type": "function"
    },
    {
      "inputs": [
        {
          "internalType": "address",
          "name": "_frontEnd",
          "type": "address"
        }
      ],
      "name": "getFrontEndLQTYGain",
      "outputs": [
        {
          "internalType": "uint256",
          "name": "",
          "type": "uint256"
        }
      ],
      "stateMutability": "view",
      "type": "function"
    },
    {
      "inputs": [],
      "name": "getTotalLUSDDeposits",
      "outputs": [
        {
          "internalType": "uint256",
          "name": "",
          "type": "uint256"
        }
      ],
      "stateMutability": "view",
      "type": "function"
    },
    {
      "inputs": [],
      "name": "isOwner",
      "outputs": [
        {
          "internalType": "bool",
          "name": "",
          "type": "bool"
        }
      ],
      "stateMutability": "view",
      "type": "function"
    },
    {
      "inputs": [],
      "name": "lastETHError_Offset",
      "outputs": [
        {
          "internalType": "uint256",
          "name": "",
          "type": "uint256"
        }
      ],
      "stateMutability": "view",
      "type": "function"
    },
    {
      "inputs": [],
      "name": "lastLQTYError",
      "outputs": [
        {
          "internalType": "uint256",
          "name": "",
          "type": "uint256"
        }
      ],
      "stateMutability": "view",
      "type": "function"
    },
    {
      "inputs": [],
      "name": "lastLUSDLossError_Offset",
      "outputs": [
        {
          "internalType": "uint256",
          "name": "",
          "type": "uint256"
        }
      ],
      "stateMutability": "view",
      "type": "function"
    },
    {
      "inputs": [],
      "name": "lusdToken",
      "outputs": [
        {
          "internalType": "contract ILUSDToken",
          "name": "",
          "type": "address"
        }
      ],
      "stateMutability": "view",
      "type": "function"
    },
    {
      "inputs": [
        {
          "internalType": "uint256",
          "name": "_debtToOffset",
          "type": "uint256"
        },
        {
          "internalType": "uint256",
          "name": "_collToAdd",
          "type": "uint256"
        }
      ],
      "name": "offset",
      "outputs": [],
      "stateMutability": "nonpayable",
      "type": "function"
    },
    {
      "inputs": [],
      "name": "owner",
      "outputs": [
        {
          "internalType": "address",
          "name": "",
          "type": "address"
        }
      ],
      "stateMutability": "view",
      "type": "function"
    },
    {
      "inputs": [],
      "name": "priceFeed",
      "outputs": [
        {
          "internalType": "contract IPriceFeed",
          "name": "",
          "type": "address"
        }
      ],
      "stateMutability": "view",
      "type": "function"
    },
    {
      "inputs": [
        {
          "internalType": "uint256",
          "name": "_amount",
          "type": "uint256"
        },
        {
          "internalType": "address",
          "name": "_frontEndTag",
          "type": "address"
        }
      ],
      "name": "provideToSP",
      "outputs": [],
      "stateMutability": "nonpayable",
      "type": "function"
    },
    {
      "inputs": [
        {
          "internalType": "uint256",
          "name": "_kickbackRate",
          "type": "uint256"
        }
      ],
      "name": "registerFrontEnd",
      "outputs": [],
      "stateMutability": "nonpayable",
      "type": "function"
    },
    {
      "inputs": [
        {
          "internalType": "address",
          "name": "_borrowerOperationsAddress",
          "type": "address"
        },
        {
          "internalType": "address",
          "name": "_troveManagerAddress",
          "type": "address"
        },
        {
          "internalType": "address",
          "name": "_activePoolAddress",
          "type": "address"
        },
        {
          "internalType": "address",
          "name": "_lusdTokenAddress",
          "type": "address"
        },
        {
          "internalType": "address",
          "name": "_sortedTrovesAddress",
          "type": "address"
        },
        {
          "internalType": "address",
          "name": "_priceFeedAddress",
          "type": "address"
        },
        {
          "internalType": "address",
          "name": "_communityIssuanceAddress",
          "type": "address"
        }
      ],
      "name": "setAddresses",
      "outputs": [],
      "stateMutability": "nonpayable",
      "type": "function"
    },
    {
      "inputs": [],
      "name": "sortedTroves",
      "outputs": [
        {
          "internalType": "contract ISortedTroves",
          "name": "",
          "type": "address"
        }
      ],
      "stateMutability": "view",
      "type": "function"
    },
    {
      "inputs": [],
      "name": "stakedTLOS",
      "outputs": [
        {
          "internalType": "contract IStakedTLOS",
          "name": "",
          "type": "address"
        }
      ],
      "stateMutability": "view",
      "type": "function"
    },
    {
      "inputs": [],
      "name": "troveManager",
      "outputs": [
        {
          "internalType": "contract ITroveManager",
          "name": "",
          "type": "address"
        }
      ],
      "stateMutability": "view",
      "type": "function"
    },
    {
      "inputs": [
        {
          "internalType": "uint256",
          "name": "_amount",
          "type": "uint256"
        }
      ],
      "name": "withdrawFromSP",
      "outputs": [],
      "stateMutability": "nonpayable",
      "type": "function"
    },
    {
      "stateMutability": "payable",
      "type": "receive"
    }
  ],
  "bytecode": "0x6080604052670de0b6b3a764000060115534801561001c57600080fd5b50600380546001600160a01b031916339081179091556040516000907f8be0079c531659141344cd1fd0a4f28419497f9722a3daafe3b4186f6b6457e0908290a3600780546001600160a01b03191673a9991e4daa44922d00a78b6d986cdf628d46c4dd1790556135ca806100926000396000f3fe6080604052600436106102975760003560e01c806382e0a5741161015a578063ae918754116100c1578063dbd6f4201161007a578063dbd6f420146108fe578063df9cd84f14610913578063eaa8ba7f14610946578063f5f1595d146109ab578063f92d3433146109de578063fc7e286d146109f3576102f0565b8063ae91875414610862578063b83f91a214610877578063ce4b5bbe1461088c578063cef941e8146108a1578063d4ca0575146108b6578063d7fb0443146108e9576102f0565b806395fb16bb1161011357806395fb16bb1461074d5780639bf2f1ac14610762578063a20baee6146105c8578063a3f4df7e14610777578063a4e59ac814610801578063a7bfff9714610816576102f0565b806382e0a5741461067757806386da0824146106b2578063887105d3146106e55780638b8fbd92146106fa5780638da5cb5b1461070f5780638f32d59b14610724576102f0565b8063538153ca116101fe578063741bef1a116101b7578063741bef1a146105dd57806376671808146105f257806377553ad414610623578063794e572414610638578063795d26c31461064d5780637f7dde4a14610662576102f0565b8063538153ca14610508578063556be1011461051d5780635733d58f146105475780635d2de6421461055c5780635f788d651461058f57806372fe25aa146105c8576102f0565b80632e86bbd8116102505780632e86bbd814610435578063335525ad1461044a578063389e92a51461047a5780633cc74225146104ad5780633d83908a146104de5780634870dd9a146104f3576102f0565b806314f6c3be146102f557806316b9d3c51461031c5780631bf43555146103865780631cdc47001461039b57806328a0a04d146103ce5780632e54bf9514610409576102f0565b366102f0576102a4610a47565b600a546102b7903463ffffffff610a9216565b600a81905560408051918252517fceb6d671277d4354fd29977ada70695fbd93a16612abf765d6b0e25c28dc6db39181900360200190a1005b600080fd5b34801561030157600080fd5b5061030a610af5565b60408051918252519081900360200190f35b34801561032857600080fd5b5061034f6004803603602081101561033f57600080fd5b50356001600160a01b0316610afb565b604080519586526020860194909452848401929092526001600160801b039081166060850152166080830152519081900360a00190f35b34801561039257600080fd5b5061030a610b36565b3480156103a757600080fd5b5061030a600480360360208110156103be57600080fd5b50356001600160a01b0316610b43565b3480156103da57600080fd5b5061030a600480360360408110156103f157600080fd5b506001600160801b0381358116916020013516610beb565b34801561041557600080fd5b506104336004803603602081101561042c57600080fd5b5035610c08565b005b34801561044157600080fd5b5061030a610dc7565b34801561045657600080fd5b506104336004803603604081101561046d57600080fd5b5080359060200135610dd3565b34801561048657600080fd5b5061030a6004803603602081101561049d57600080fd5b50356001600160a01b0316610eb3565b3480156104b957600080fd5b506104c2610f50565b604080516001600160a01b039092168252519081900360200190f35b3480156104ea57600080fd5b506104c2610f5f565b3480156104ff57600080fd5b5061030a610f6e565b34801561051457600080fd5b5061030a610f73565b34801561052957600080fd5b506104336004803603602081101561054057600080fd5b5035610f79565b34801561055357600080fd5b5061030a610fee565b34801561056857600080fd5b5061030a6004803603602081101561057f57600080fd5b50356001600160a01b0316610ffa565b34801561059b57600080fd5b50610433600480360360408110156105b257600080fd5b50803590602001356001600160a01b031661100c565b3480156105d457600080fd5b5061030a6111c3565b3480156105e957600080fd5b506104c26111cf565b3480156105fe57600080fd5b506106076111de565b604080516001600160801b039092168252519081900360200190f35b34801561062f57600080fd5b506104c26111f4565b34801561064457600080fd5b5061030a611203565b34801561065957600080fd5b5061030a61120f565b34801561066e57600080fd5b506104c2611310565b34801561068357600080fd5b5061030a6004803603604081101561069a57600080fd5b506001600160801b038135811691602001351661131f565b3480156106be57600080fd5b5061034f600480360360208110156106d557600080fd5b50356001600160a01b031661133c565b3480156106f157600080fd5b5061030a611377565b34801561070657600080fd5b5061030a611433565b34801561071b57600080fd5b506104c2611439565b34801561073057600080fd5b50610739611448565b604080519115158252519081900360200190f35b34801561075957600080fd5b506104c2611459565b34801561076e57600080fd5b5061030a611468565b34801561078357600080fd5b5061078c61146e565b6040805160208082528351818301528351919283929083019185019080838360005b838110156107c65781810151838201526020016107ae565b50505050905090810190601f1680156107f35780820380516001836020036101000a031916815260200191505b509250505060405180910390f35b34801561080d57600080fd5b50610607611497565b34801561082257600080fd5b506108496004803603602081101561083957600080fd5b50356001600160a01b03166114a6565b6040805192835290151560208301528051918290030190f35b34801561086e57600080fd5b506104c26114c2565b34801561088357600080fd5b506104c26114d1565b34801561089857600080fd5b5061030a6114e0565b3480156108ad57600080fd5b5061030a6114e8565b3480156108c257600080fd5b5061030a600480360360208110156108d957600080fd5b50356001600160a01b03166114ee565b3480156108f557600080fd5b5061030a6115f2565b34801561090a57600080fd5b506104c26115f8565b34801561091f57600080fd5b5061030a6004803603602081101561093657600080fd5b50356001600160a01b0316611607565b34801561095257600080fd5b50610433600480360360e081101561096957600080fd5b506001600160a01b038135811691602081013582169160408201358116916060810135821691608082013581169160a081013582169160c090910135166116a4565b3480156109b757600080fd5b5061030a600480360360208110156109ce57600080fd5b50356001600160a01b0316611955565b3480156109ea57600080fd5b5061030a611a52565b3480156109ff57600080fd5b50610a2660048036036020811015610a1657600080fd5b50356001600160a01b0316611a5d565b604080519283526001600160a01b0390911660208301528051918290030190f35b6000546001600160a01b03163314610a905760405162461bcd60e51b81526004018080602001828103825260278152602001806133a96027913960400191505060405180910390fd5b565b600082820183811015610aec576040805162461bcd60e51b815260206004820152601b60248201527f536166654d6174683a206164646974696f6e206f766572666c6f770000000000604482015290519081900360640190fd5b90505b92915050565b600a5490565b6010602052600090815260409020805460018201546002830154600390930154919290916001600160801b0380821691600160801b90041685565b6804e1003b28d928000081565b6001600160a01b0381166000908152600c602052604081205480610b6b576000915050610be6565b610b73613321565b506001600160a01b0383166000908152600d60209081526040808320815160a08101835281548152600182015493810193909352600281015491830191909152600301546001600160801b038082166060840152600160801b90910416608082015290610be08383611a7f565b93505050505b919050565b601360209081526000928352604080842090915290825290205481565b8015610c1657610c16611b7b565b336000908152600c6020526040902054610c2f81611d38565b6009546001600160a01b0316610c4481611d7a565b6000610c4f33610eb3565b90506000610c5c33610b43565b90506000610c6a8683611dee565b90506000610c7e868463ffffffff611e0416565b336000818152600c60205260409020600101549192506001600160a01b0390911690610cac90879083611e46565b6000610cb782611607565b90506000610ccb828663ffffffff611e0416565b9050610cd78382611fe5565b6040805182815233602082015281516001600160a01b038616927f99920012339b5a3368d3a04b8606ce412c46ed92b7dcd8602d41fc8862cb8f25928290030190a2610d233386612131565b6000610d35878763ffffffff611e0416565b9050610d4133826121b7565b60408051828152905133917fbce78369dccab09eec1986f4d409ab09ffbb47d65423e5148fcf98411c5111c9919081900360200190a26040805189815260208101879052815133927f51457222ebca92c335c9c86e2baa1cc0e40ffaa9084a51452980d5ba8dec2f63928290030190a2610dba8861233d565b5050505050505050505050565b678ac7230489e8000081565b600754604080516363737ac960e11b81526004810184905290516000926001600160a01b03169163c6e6f592916024808301926020929190829003018186803b158015610e1f57600080fd5b505afa158015610e33573d6000803e3d6000fd5b505050506040513d6020811015610e4957600080fd5b50519050610e55612458565b600b54801580610e63575083155b15610e6f575050610eaf565b600954610e84906001600160a01b0316611d7a565b600080610e928487856124a1565b91509150610ea0828261259a565b610eaa8587612894565b505050505b5050565b6001600160a01b0381166000908152600c602052604081205480610edb576000915050610be6565b610ee3613321565b506001600160a01b0383166000908152600d60209081526040808320815160a08101835281548152600182015493810193909352600281015491830191909152600301546001600160801b038082166060840152600160801b90910416608082015290610be083836129ce565b6001546001600160a01b031681565b6005546001600160a01b031681565b60c881565b60175481565b610f8233612abf565b610f8b33612b1a565b610f9481612b70565b336000818152600e60209081526040918290208481556001908101805460ff19169091179055815184815291517f19bc932fb9e16a8b5a1e41be9f4c2de59d5ddd7567b8b81405f532ca00a9880e9281900390910190a250565b6714d1120d7b16000081565b600f6020526000908152604090205481565b61101581612bb7565b61101e33612abf565b61102782612c23565b336000908152600c60205260409020546009546001600160a01b031661104c81611d7a565b8161105b5761105b3384612c62565b600061106633610eb3565b9050600061107333610b43565b90506000611087858363ffffffff611e0416565b336000818152600c60205260409020600101549192506001600160a01b03909116906110b590869083611e46565b60006110c082611607565b905060006110d4828b63ffffffff610a9216565b90506110e08382611fe5565b6040805182815233602082015281516001600160a01b038616927f99920012339b5a3368d3a04b8606ce412c46ed92b7dcd8602d41fc8862cb8f25928290030190a261112c338b612cbc565b600061113e868c63ffffffff610a9216565b905061114a33826121b7565b60408051828152905133917fbce78369dccab09eec1986f4d409ab09ffbb47d65423e5148fcf98411c5111c9919081900360200190a26040805188815260208101879052815133927f51457222ebca92c335c9c86e2baa1cc0e40ffaa9084a51452980d5ba8dec2f63928290030190a2610dba8761233d565b670de0b6b3a764000081565b6002546001600160a01b031681565b601254600160801b90046001600160801b031681565b6004546001600160a01b031681565b670f43fc2c04ee000081565b6000805460408051632f5a97e560e11b8152905183926001600160a01b031691635eb52fca916004808301926020929190829003018186803b15801561125457600080fd5b505afa158015611268573d6000803e3d6000fd5b505050506040513d602081101561127e57600080fd5b505160015460408051632f5a97e560e11b815290519293506000926001600160a01b0390921691635eb52fca91600480820192602092909190829003018186803b1580156112cb57600080fd5b505afa1580156112df573d6000803e3d6000fd5b505050506040513d60208110156112f557600080fd5b50519050611309828263ffffffff610a9216565b9250505090565b6000546001600160a01b031681565b601460209081526000928352604080842090915290825290205481565b600d602052600090815260409020805460018201546002830154600390930154919290916001600160801b0380821691600160801b90041685565b6000805460408051630a7b61df60e11b8152905183926001600160a01b0316916314f6c3be916004808301926020929190829003018186803b1580156113bc57600080fd5b505afa1580156113d0573d6000803e3d6000fd5b505050506040513d60208110156113e657600080fd5b505160015460408051630a7b61df60e11b815290519293506000926001600160a01b03909216916314f6c3be91600480820192602092909190829003018186803b1580156112cb57600080fd5b60115481565b6003546001600160a01b031690565b6003546001600160a01b0316331490565b6009546001600160a01b031681565b600b5490565b6040518060400160405280600d81526020016c14dd18589a5b1a5d1e541bdbdb609a1b81525081565b6012546001600160801b031681565b600e602052600090815260409020805460019091015460ff1682565b6008546001600160a01b031681565b6006546001600160a01b031681565b633b9aca0081565b60155481565b6001600160a01b0381166000908152600f602052604081205480611516576000915050610be6565b6001600160a01b0383166000908152600e602052604081205490611548670de0b6b3a76400008363ffffffff611e0416565b9050611552613321565b506001600160a01b0385166000908152601060209081526040808320815160a08101835281548152600182015493810193909352600281015491830191909152600301546001600160801b038082166060840152600160801b909104166080820152906115e7670de0b6b3a76400006115db6115ce8886612d86565b869063ffffffff612e1216565b9063ffffffff612e6b16565b979650505050505050565b60165481565b6007546001600160a01b031681565b6001600160a01b0381166000908152600f60205260408120548061162f576000915050610be6565b611637613321565b506001600160a01b0383166000908152601060209081526040808320815160a08101835281548152600182015493810193909352600281015491830191909152600301546001600160801b038082166060840152600160801b90910416608082015290610be08383611a7f565b6116ac611448565b6116fd576040805162461bcd60e51b815260206004820181905260248201527f4f776e61626c653a2063616c6c6572206973206e6f7420746865206f776e6572604482015290519081900360640190fd5b61170687612ead565b61170f86612ead565b61171885612ead565b61172184612ead565b61172a83612ead565b61173382612ead565b61173c81612ead565b600480546001600160a01b03199081166001600160a01b038a81169182179093556005805483168a85161790556000805483168985161790556006805483168885161790556008805483168785161790556002805483168685161790556009805490921692841692909217905560408051918252517f3ca631ffcd2a9b5d9ae18543fc82f58eb4ca33af9e6ab01b7a8e95331e6ed985916020908290030190a1604080516001600160a01b038816815290517f143219c9e69b09e07e095fcc889b43d8f46ca892bba65f08dc3a0050869a56789181900360200190a1604080516001600160a01b038716815290517f78f058b189175430c48dc02699e3a0031ea4ff781536dc2fab847de4babdd8829181900360200190a1604080516001600160a01b038616815290517f227eec0ec317af6ab1a9587ffa1c84332522eb4c583a908f89babc05f8f339bd9181900360200190a1604080516001600160a01b038516815290517f65f4cf077bc01e4742eb5ad98326f6e95b63548ea24b17f8d5e823111fe788009181900360200190a1604080516001600160a01b038416815290517f8c537274438aa850a330284665d81a85dd38267d09e4050d416bfc94142db2649181900360200190a1604080516001600160a01b038316815290517f3055265812fb8447b9ada4a5d804ec43bd528ec40e89c952bbc7b85dc5ac68119181900360200190a161194c612f5c565b50505050505050565b6001600160a01b0381166000908152600c60205260408120548061197d576000915050610be6565b6001600160a01b038084166000908152600c60205260408120600101549091169081156119c2576001600160a01b0382166000908152600e60205260409020546119cc565b670de0b6b3a76400005b90506119d6613321565b506001600160a01b0385166000908152600d60209081526040808320815160a08101835281548152600182015493810193909352600281015491830191909152600301546001600160801b038082166060840152600160801b909104166080820152906115e7670de0b6b3a76400006115db6115ce8886612d86565b6611c37937e0800081565b600c60205260009081526040902080546001909101546001600160a01b031682565b6020810151606082015160808301516012546000939291906001600160801b03600160801b90910481169082161015611abe5760009350505050610aef565b6012546000908190611adf906001600160801b03168563ffffffff612fa616565b90506001600160801b038116611b0f57611b08856115db6011548b612e1290919063ffffffff16565b9150611b47565b806001600160801b031660011415611b4257611b08633b9aca006115db876115db6011548d612e1290919063ffffffff16565b600091505b611b5b88633b9aca0063ffffffff612e6b16565b821015611b7057600095505050505050610aef565b509695505050505050565b60025460408051630fdb11cf60e01b815290516000926001600160a01b031691630fdb11cf91600480830192602092919082900301818787803b158015611bc157600080fd5b505af1158015611bd5573d6000803e3d6000fd5b505050506040513d6020811015611beb57600080fd5b505160085460408051634d62283160e01b815290519293506000926001600160a01b0390921691634d62283191600480820192602092909190829003018186803b158015611c3857600080fd5b505afa158015611c4c573d6000803e3d6000fd5b505050506040513d6020811015611c6257600080fd5b505160055460408051630d293c7160e41b81526001600160a01b038085166004830152602482018790529151939450600093919092169163d293c710916044808301926020929190829003018186803b158015611cbe57600080fd5b505afa158015611cd2573d6000803e3d6000fd5b505050506040513d6020811015611ce857600080fd5b50519050670f43fc2c04ee0000811015611d335760405162461bcd60e51b81526004018080602001828103825260448152602001806135516044913960600191505060405180910390fd5b505050565b60008111611d775760405162461bcd60e51b81526004018080602001828103825260308152602001806134d46030913960400191505060405180910390fd5b50565b6000816001600160a01b03166346ad34d96040518163ffffffff1660e01b8152600401602060405180830381600087803b158015611db757600080fd5b505af1158015611dcb573d6000803e3d6000fd5b505050506040513d6020811015611de157600080fd5b50519050610eaf81612fff565b6000818310611dfd5781610aec565b5090919050565b6000610aec83836040518060400160405280601e81526020017f536166654d6174683a207375627472616374696f6e206f766572666c6f77000081525061311a565b6001600160a01b03811615611f1b576000611e60826114ee565b9050836001600160a01b031663614d2ab683836040518363ffffffff1660e01b815260040180836001600160a01b03166001600160a01b0316815260200182815260200192505050600060405180830381600087803b158015611ec257600080fd5b505af1158015611ed6573d6000803e3d6000fd5b50506040805184815290516001600160a01b03861693507fcd2cdc1a4af71051394e9c6facd9a266b2ac5bd65d219a701eeda009f47682bf92509081900360200190a2505b6000611f2683611955565b9050836001600160a01b031663614d2ab684836040518363ffffffff1660e01b815260040180836001600160a01b03166001600160a01b0316815260200182815260200192505050600060405180830381600087803b158015611f8857600080fd5b505af1158015611f9c573d6000803e3d6000fd5b50506040805184815290516001600160a01b03871693507f2608b986a6ac0f6c629ca37018e80af5561e366252ae93602a96d3ab2e73e42d92509081900360200190a250505050565b6001600160a01b0382166000908152600f6020526040902081905580612075576001600160a01b0382166000818152601060209081526040808320838155600181018490556002810184905560030183905580518381529182019290925281517fbb1322f85cc7cc8bac4e172a5bc5dcc0c1959007f9a030032abf9258205f0e45929181900390910190a2610eaf565b6012546011546001600160801b03600160801b80840482166000818152601460209081526040808320978616808452978252808320546001600160a01b038b168085526010845293829020600181018990556002810182905560030180546001600160801b0319168a17909716958502959095179095558451868152908101849052845192959491927fbb1322f85cc7cc8bac4e172a5bc5dcc0c1959007f9a030032abf9258205f0e45929181900390910190a2505050505050565b8061213b57610eaf565b60065460408051631062c15f60e11b81523060048201526001600160a01b03858116602483015260448201859052915191909216916320c582be91606480830192600092919082900301818387803b15801561219657600080fd5b505af11580156121aa573d6000803e3d6000fd5b50505050610eaf816131b1565b6001600160a01b0382166000908152600c6020526040902081905580612265576001600160a01b0382166000818152600c60209081526040808320600190810180546001600160a01b0319169055600d83528184208481559081018490556002810184905560030183905580518381529182018390528181019290925290517f2d6cc0bcdf72c9486f6451bde6b80f44066f4558f77f44dbfedbe7d8b295225a9181900360600190a2610eaf565b6012546011546001600160801b03600160801b8084048216600081815260136020908152604080832097861680845297825280832054848452601483528184208985528352818420546001600160a01b038c16808652600d855294839020600181018a90558281556002810182905560030180546001600160801b0319168b179098169686029690961790965580518781529182018690528181018590525192959493927f2d6cc0bcdf72c9486f6451bde6b80f44066f4558f77f44dbfedbe7d8b295225a916060908290030190a250505050505050565b8061234757611d77565b600a5460009061235d908363ffffffff611e0416565b600a8190556040805182815290519192507fceb6d671277d4354fd29977ada70695fbd93a16612abf765d6b0e25c28dc6db3919081900360200190a1604080513381526020810184905281517f6109e2559dfa766aaec7118351d48a523f0a4157f49c8d68749c8ac41318ad12929181900390910190a16007546040805163a9059cbb60e01b81523360048201526024810185905290516001600160a01b039092169163a9059cbb916044808201926020929091908290030181600087803b15801561242857600080fd5b505af115801561243c573d6000803e3d6000fd5b505050506040513d602081101561245257600080fd5b50505050565b6005546001600160a01b03163314610a905760405162461bcd60e51b81526004018080602001828103825260298152602001806133d06029913960400191505060405180910390fd5b60008060006124d36016546124c7670de0b6b3a764000089612e1290919063ffffffff16565b9063ffffffff610a9216565b9050838511156124df57fe5b838514156124fc576000601755670de0b6b3a7640000915061255c565b60175460009061252a9061251e88670de0b6b3a764000063ffffffff612e1216565b9063ffffffff611e0416565b905061254160016124c7838863ffffffff612e6b16565b92506125578161251e858863ffffffff612e1216565b601755505b61256c818563ffffffff612e6b16565b925061258e612581848663ffffffff612e1216565b829063ffffffff611e0416565b60165550935093915050565b6011546000670de0b6b3a76400008311156125b157fe5b60006125cb670de0b6b3a76400008563ffffffff611e0416565b6012546001600160801b03600160801b82048116600081815260136020908152604080832094909516808352939052928320549394509092909161260f8988612e12565b90506000612623838363ffffffff610a9216565b6001600160801b038086166000818152601360209081526040808320948b16808452948252918290208590558151858152908101929092528181019290925290519192507fe12e2cd2c9afa8069203ca07e7eff1edce4a075686d0736a8e7e0d593597b207919081900360600190a18561275a576126b16001600160801b038516600163ffffffff61320716565b601280546001600160801b03908116600160801b938216840217918290556040805193909204168252517fb50f0f59e7cb5b421dc77581c3a9919e3806e076e5fa78a874c3f120cb7d874d916020908290030190a1601280546001600160801b0319169055604080516000815290517f1f9dfc70cd666adb18a39d60a797518f7b4febf4b6e24ef37d44f6e1e7219fbe9181900360200190a1670de0b6b3a76400009650612846565b633b9aca0061277b670de0b6b3a76400006115db8b8a63ffffffff612e1216565b1015612827576127b1670de0b6b3a76400006115db633b9aca006127a58c8b63ffffffff612e1216565b9063ffffffff612e1216565b96506127cd6001600160801b038616600163ffffffff61320716565b601280546001600160801b0319166001600160801b0392831617908190556040805191909216815290517f1f9dfc70cd666adb18a39d60a797518f7b4febf4b6e24ef37d44f6e1e7219fbe916020908290030190a1612846565b612843670de0b6b3a76400006115db8a8963ffffffff612e1216565b96505b6000871161285057fe5b60118790556040805188815290517fc1a9618cb59ebca77cbdbc2949f126823c407ff13edb285fd0262519a9c18e8c9181900360200190a150505050505050505050565b600080546040805163071b32b560e31b81526004810185905290516001600160a01b039092169283926338d995a892602480820193929182900301818387803b1580156128e057600080fd5b505af11580156128f4573d6000803e3d6000fd5b50505050612901826131b1565b60065460408051632770a7eb60e21b81523060048201526024810185905290516001600160a01b0390921691639dc29fac9160448082019260009290919082900301818387803b15801561295457600080fd5b505af1158015612968573d6000803e3d6000fd5b5050604080516364a197f360e01b81523060048201526024810187905290516001600160a01b03851693506364a197f39250604480830192600092919082900301818387803b1580156129ba57600080fd5b505af115801561194c573d6000803e3d6000fd5b6080810151606082015182516020808501516001600160801b03808616600090815260138452604080822092871682529190935282205491949392918590612a1c908463ffffffff611e0416565b6001600160801b03808716600090815260136020526040812092935091612a7f91633b9aca0091908490612a59908a16600163ffffffff61320716565b6001600160801b031681526020810191909152604001600020549063ffffffff612e6b16565b90506000612ab1670de0b6b3a76400006115db8681612aa4888863ffffffff610a9216565b8f9063ffffffff612e1216565b9a9950505050505050505050565b6001600160a01b0381166000908152600e602052604090206001015460ff1615611d775760405162461bcd60e51b81526004018080602001828103825260398152602001806134736039913960400191505060405180910390fd5b6001600160a01b0381166000908152600c60205260409020548015610eaf5760405162461bcd60e51b81526004018080602001828103825260288152602001806134ac6028913960400191505060405180910390fd5b670de0b6b3a7640000811115611d775760405162461bcd60e51b815260040180806020018281038252603381526020018061341a6033913960400191505060405180910390fd5b6001600160a01b0381166000908152600e602052604090206001015460ff1680612be857506001600160a01b038116155b611d775760405162461bcd60e51b81526004018080602001828103825260468152602001806133636046913960600191505060405180910390fd5b60008111611d775760405162461bcd60e51b815260040180806020018281038252602681526020018061344d6026913960400191505060405180910390fd5b6001600160a01b038281166000818152600c602052604080822060010180546001600160a01b0319169486169485179055517f094c08e96a8890877a8390b4f967180a7507ad8622244d05fcd0f9f8e086564e9190a35050565b60065460408051632ee65eeb60e21b81526001600160a01b038581166004830152306024830152604482018590529151919092169163bb997bac91606480830192600092919082900301818387803b158015612d1757600080fd5b505af1158015612d2b573d6000803e3d6000fd5b5050600b5460009250612d4591508363ffffffff610a9216565b600b8190556040805182815290519192507fa8e886449d8f7e765877b4a4f54632da3943ae454d5a272bdccb1781f086ff29919081900360200190a1505050565b608081015160608201516040808401516020808601516001600160801b03808716600090815260148452858120918716815292529281205490949392908590612dd5908463ffffffff611e0416565b6001600160801b03808716600090815260146020526040812092935091612a7f91633b9aca0091908490612a59908a16600163ffffffff61320716565b600082612e2157506000610aef565b82820282848281612e2e57fe5b0414610aec5760405162461bcd60e51b81526004018080602001828103825260218152602001806133f96021913960400191505060405180910390fd5b6000610aec83836040518060400160405280601a81526020017f536166654d6174683a206469766973696f6e206279207a65726f000000000000815250613257565b6001600160a01b038116612f08576040805162461bcd60e51b815260206004820152601e60248201527f4163636f756e742063616e6e6f74206265207a65726f20616464726573730000604482015290519081900360640190fd5b803b80610eaf576040805162461bcd60e51b815260206004820181905260248201527f4163636f756e7420636f64652073697a652063616e6e6f74206265207a65726f604482015290519081900360640190fd5b6003546040516000916001600160a01b0316907f8be0079c531659141344cd1fd0a4f28419497f9722a3daafe3b4186f6b6457e0908390a3600380546001600160a01b0319169055565b6000826001600160801b0316826001600160801b03161115612ff95760405162461bcd60e51b81526004018080602001828103825260288152602001806135046028913960400191505060405180910390fd5b50900390565b600b5480158061300d575081155b156130185750611d77565b600061302483836132bc565b9050600061303d60115483612e1290919063ffffffff16565b6012546001600160801b03600160801b820481166000908152601460209081526040808320939094168252919091522054909150613081908263ffffffff610a9216565b601280546001600160801b03600160801b808304821660009081526014602081815260408084209686168452958152858320979097559454918204831680825294865283812091909216808352908552908290205482519081529384019290925282810191909152517f2d6127771b164a9cc8827d24b5955db2a77e7a81dac389107ebb8bce9fb649689181900360600190a150505050565b600081848411156131a95760405162461bcd60e51b81526004018080602001828103825283818151815260200191508051906020019080838360005b8381101561316e578181015183820152602001613156565b50505050905090810190601f16801561319b5780820380516001836020036101000a031916815260200191505b509250505060405180910390fd5b505050900390565b600b546000906131c7908363ffffffff611e0416565b600b8190556040805182815290519192507fa8e886449d8f7e765877b4a4f54632da3943ae454d5a272bdccb1781f086ff29919081900360200190a15050565b60008282016001600160801b038085169082161015610aec5760405162461bcd60e51b815260040180806020018281038252602581526020018061352c6025913960400191505060405180910390fd5b600081836132a65760405162461bcd60e51b815260206004820181815283516024840152835190928392604490910191908501908083836000831561316e578181015183820152602001613156565b5060008385816132b257fe5b0495945050505050565b6000806132e06015546124c7670de0b6b3a764000087612e1290919063ffffffff16565b905060006132f4828563ffffffff612e6b16565b9050613316613309828663ffffffff612e1216565b839063ffffffff611e0416565b601555949350505050565b6040518060a0016040528060008152602001600081526020016000815260200160006001600160801b0316815260200160006001600160801b03168152509056fe53746162696c697479506f6f6c3a20546167206d757374206265206120726567697374657265642066726f6e7420656e642c206f7220746865207a65726f206164647265737353746162696c697479506f6f6c3a2043616c6c6572206973206e6f7420416374697665506f6f6c53746162696c697479506f6f6c3a2043616c6c6572206973206e6f742054726f76654d616e61676572536166654d6174683a206d756c7469706c69636174696f6e206f766572666c6f7753746162696c697479506f6f6c3a204b69636b6261636b2072617465206d75737420626520696e2072616e6765205b302c315d53746162696c697479506f6f6c3a20416d6f756e74206d757374206265206e6f6e2d7a65726f53746162696c697479506f6f6c3a206d757374206e6f7420616c7265616479206265206120726567697374657265642066726f6e7420656e6453746162696c697479506f6f6c3a2055736572206d7573742068617665206e6f206465706f73697453746162696c697479506f6f6c3a2055736572206d75737420686176652061206e6f6e2d7a65726f206465706f7369744c697175697479536166654d6174683132383a207375627472616374696f6e206f766572666c6f774c697175697479536166654d6174683132383a206164646974696f6e206f766572666c6f7753746162696c697479506f6f6c3a2043616e6e6f74207769746864726177207768696c65207468657265206172652074726f766573207769746820494352203c204d4352a2646970667358221220152743b549b60c50218ab53b751605efa0a054b4aa712875f8baed218d7f7a3064736f6c634300060b0033",
  "linkReferences": {},
  "deployedLinkReferences": {}
}