{
  "_format": "hh-sol-artifact-1",
  "contractName": "StabilityPoolTester",
  "sourceName": "contracts/TestContracts/StabilityPoolTester.sol",
  "abi": [
    {
      "anonymous": false,
      "inputs": [
        {
          "indexed": false,
          "internalType": "address",
          "name": "_newActivePoolAddress",
          "type": "address"
        }
      ],
      "name": "ActivePoolAddressChanged",
      "type": "event"
    },
    {
      "anonymous": false,
      "inputs": [
        {
          "indexed": false,
          "internalType": "address",
          "name": "_newBorrowerOperationsAddress",
          "type": "address"
        }
      ],
      "name": "BorrowerOperationsAddressChanged",
      "type": "event"
    },
    {
      "anonymous": false,
      "inputs": [
        {
          "indexed": false,
          "internalType": "address",
          "name": "_newCommunityIssuanceAddress",
          "type": "address"
        }
      ],
      "name": "CommunityIssuanceAddressChanged",
      "type": "event"
    },
    {
      "anonymous": false,
      "inputs": [
        {
          "indexed": false,
          "internalType": "address",
          "name": "_newDefaultPoolAddress",
          "type": "address"
        }
      ],
      "name": "DefaultPoolAddressChanged",
      "type": "event"
    },
    {
      "anonymous": false,
      "inputs": [
        {
          "indexed": true,
          "internalType": "address",
          "name": "_depositor",
          "type": "address"
        },
        {
          "indexed": false,
          "internalType": "uint256",
          "name": "_P",
          "type": "uint256"
        },
        {
          "indexed": false,
          "internalType": "uint256",
          "name": "_S",
          "type": "uint256"
        },
        {
          "indexed": false,
          "internalType": "uint256",
          "name": "_G",
          "type": "uint256"
        }
      ],
      "name": "DepositSnapshotUpdated",
      "type": "event"
    },
    {
      "anonymous": false,
      "inputs": [
        {
          "indexed": true,
          "internalType": "address",
          "name": "_depositor",
          "type": "address"
        },
        {
          "indexed": false,
          "internalType": "uint256",
          "name": "_ETH",
          "type": "uint256"
        },
        {
          "indexed": false,
          "internalType": "uint256",
          "name": "_LUSDLoss",
          "type": "uint256"
        }
      ],
      "name": "ETHGainWithdrawn",
      "type": "event"
    },
    {
      "anonymous": false,
      "inputs": [
        {
          "indexed": false,
          "internalType": "uint128",
          "name": "_currentEpoch",
          "type": "uint128"
        }
      ],
      "name": "EpochUpdated",
      "type": "event"
    },
    {
      "anonymous": false,
      "inputs": [
        {
          "indexed": false,
          "internalType": "address",
          "name": "_to",
          "type": "address"
        },
        {
          "indexed": false,
          "internalType": "uint256",
          "name": "_amount",
          "type": "uint256"
        }
      ],
      "name": "EtherSent",
      "type": "event"
    },
    {
      "anonymous": false,
      "inputs": [
        {
          "indexed": true,
          "internalType": "address",
          "name": "_frontEnd",
          "type": "address"
        },
        {
          "indexed": false,
          "internalType": "uint256",
          "name": "_kickbackRate",
          "type": "uint256"
        }
      ],
      "name": "FrontEndRegistered",
      "type": "event"
    },
    {
      "anonymous": false,
      "inputs": [
        {
          "indexed": true,
          "internalType": "address",
          "name": "_frontEnd",
          "type": "address"
        },
        {
          "indexed": false,
          "internalType": "uint256",
          "name": "_P",
          "type": "uint256"
        },
        {
          "indexed": false,
          "internalType": "uint256",
          "name": "_G",
          "type": "uint256"
        }
      ],
      "name": "FrontEndSnapshotUpdated",
      "type": "event"
    },
    {
      "anonymous": false,
      "inputs": [
        {
          "indexed": true,
          "internalType": "address",
          "name": "_frontEnd",
          "type": "address"
        },
        {
          "indexed": false,
          "internalType": "uint256",
          "name": "_newFrontEndStake",
          "type": "uint256"
        },
        {
          "indexed": false,
          "internalType": "address",
          "name": "_depositor",
          "type": "address"
        }
      ],
      "name": "FrontEndStakeChanged",
      "type": "event"
    },
    {
      "anonymous": false,
      "inputs": [
        {
          "indexed": true,
          "internalType": "address",
          "name": "_depositor",
          "type": "address"
        },
        {
          "indexed": true,
          "internalType": "address",
          "name": "_frontEnd",
          "type": "address"
        }
      ],
      "name": "FrontEndTagSet",
      "type": "event"
    },
    {
      "anonymous": false,
      "inputs": [
        {
          "indexed": false,
          "internalType": "uint256",
          "name": "_G",
          "type": "uint256"
        },
        {
          "indexed": false,
          "internalType": "uint128",
          "name": "_epoch",
          "type": "uint128"
        },
        {
          "indexed": false,
          "internalType": "uint128",
          "name": "_scale",
          "type": "uint128"
        }
      ],
      "name": "G_Updated",
      "type": "event"
    },
    {
      "anonymous": false,
      "inputs": [
        {
          "indexed": true,
          "internalType": "address",
          "name": "_depositor",
          "type": "address"
        },
        {
          "indexed": false,
          "internalType": "uint256",
          "name": "_LQTY",
          "type": "uint256"
        }
      ],
      "name": "LQTYPaidToDepositor",
      "type": "event"
    },
    {
      "anonymous": false,
      "inputs": [
        {
          "indexed": true,
          "internalType": "address",
          "name": "_frontEnd",
          "type": "address"
        },
        {
          "indexed": false,
          "internalType": "uint256",
          "name": "_LQTY",
          "type": "uint256"
        }
      ],
      "name": "LQTYPaidToFrontEnd",
      "type": "event"
    },
    {
      "anonymous": false,
      "inputs": [
        {
          "indexed": false,
          "internalType": "address",
          "name": "_newLUSDTokenAddress",
          "type": "address"
        }
      ],
      "name": "LUSDTokenAddressChanged",
      "type": "event"
    },
    {
      "anonymous": false,
      "inputs": [
        {
          "indexed": true,
          "internalType": "address",
          "name": "previousOwner",
          "type": "address"
        },
        {
          "indexed": true,
          "internalType": "address",
          "name": "newOwner",
          "type": "address"
        }
      ],
      "name": "OwnershipTransferred",
      "type": "event"
    },
    {
      "anonymous": false,
      "inputs": [
        {
          "indexed": false,
          "internalType": "uint256",
          "name": "_P",
          "type": "uint256"
        }
      ],
      "name": "P_Updated",
      "type": "event"
    },
    {
      "anonymous": false,
      "inputs": [
        {
          "indexed": false,
          "internalType": "address",
          "name": "_newPriceFeedAddress",
          "type": "address"
        }
      ],
      "name": "PriceFeedAddressChanged",
      "type": "event"
    },
    {
      "anonymous": false,
      "inputs": [
        {
          "indexed": false,
          "internalType": "uint256",
          "name": "_S",
          "type": "uint256"
        },
        {
          "indexed": false,
          "internalType": "uint128",
          "name": "_epoch",
          "type": "uint128"
        },
        {
          "indexed": false,
          "internalType": "uint128",
          "name": "_scale",
          "type": "uint128"
        }
      ],
      "name": "S_Updated",
      "type": "event"
    },
    {
      "anonymous": false,
      "inputs": [
        {
          "indexed": false,
          "internalType": "uint128",
          "name": "_currentScale",
          "type": "uint128"
        }
      ],
      "name": "ScaleUpdated",
      "type": "event"
    },
    {
      "anonymous": false,
      "inputs": [
        {
          "indexed": false,
          "internalType": "address",
          "name": "_newSortedTrovesAddress",
          "type": "address"
        }
      ],
      "name": "SortedTrovesAddressChanged",
      "type": "event"
    },
    {
      "anonymous": false,
      "inputs": [
        {
          "indexed": false,
          "internalType": "uint256",
          "name": "_newBalance",
          "type": "uint256"
        }
      ],
      "name": "StabilityPoolETHBalanceUpdated",
      "type": "event"
    },
    {
      "anonymous": false,
      "inputs": [
        {
          "indexed": false,
          "internalType": "uint256",
          "name": "_newBalance",
          "type": "uint256"
        }
      ],
      "name": "StabilityPoolLUSDBalanceUpdated",
      "type": "event"
    },
    {
      "anonymous": false,
      "inputs": [
        {
          "indexed": false,
          "internalType": "address",
          "name": "_newTroveManagerAddress",
          "type": "address"
        }
      ],
      "name": "TroveManagerAddressChanged",
      "type": "event"
    },
    {
      "anonymous": false,
      "inputs": [
        {
          "indexed": true,
          "internalType": "address",
          "name": "_depositor",
          "type": "address"
        },
        {
          "indexed": false,
          "internalType": "uint256",
          "name": "_newDeposit",
          "type": "uint256"
        }
      ],
      "name": "UserDepositChanged",
      "type": "event"
    },
    {
      "inputs": [],
      "name": "BORROWING_FEE_FLOOR",
      "outputs": [
        {
          "internalType": "uint256",
          "name": "",
          "type": "uint256"
        }
      ],
      "stateMutability": "view",
      "type": "function"
    },
    {
      "inputs": [],
      "name": "CCR",
      "outputs": [
        {
          "internalType": "uint256",
          "name": "",
          "type": "uint256"
        }
      ],
      "stateMutability": "view",
      "type": "function"
    },
    {
      "inputs": [],
      "name": "DECIMAL_PRECISION",
      "outputs": [
        {
          "internalType": "uint256",
          "name": "",
          "type": "uint256"
        }
      ],
      "stateMutability": "view",
      "type": "function"
    },
    {
      "inputs": [],
      "name": "LUSD_GAS_COMPENSATION",
      "outputs": [
        {
          "internalType": "uint256",
          "name": "",
          "type": "uint256"
        }
      ],
      "stateMutability": "view",
      "type": "function"
    },
    {
      "inputs": [],
      "name": "MCR",
      "outputs": [
        {
          "internalType": "uint256",
          "name": "",
          "type": "uint256"
        }
      ],
      "stateMutability": "view",
      "type": "function"
    },
    {
      "inputs": [],
      "name": "MIN_NET_DEBT",
      "outputs": [
        {
          "internalType": "uint256",
          "name": "",
          "type": "uint256"
        }
      ],
      "stateMutability": "view",
      "type": "function"
    },
    {
      "inputs": [],
      "name": "NAME",
      "outputs": [
        {
          "internalType": "string",
          "name": "",
          "type": "string"
        }
      ],
      "stateMutability": "view",
      "type": "function"
    },
    {
      "inputs": [],
      "name": "P",
      "outputs": [
        {
          "internalType": "uint256",
          "name": "",
          "type": "uint256"
        }
      ],
      "stateMutability": "view",
      "type": "function"
    },
    {
      "inputs": [],
      "name": "PERCENT_DIVISOR",
      "outputs": [
        {
          "internalType": "uint256",
          "name": "",
          "type": "uint256"
        }
      ],
      "stateMutability": "view",
      "type": "function"
    },
    {
      "inputs": [],
      "name": "SCALE_FACTOR",
      "outputs": [
        {
          "internalType": "uint256",
          "name": "",
          "type": "uint256"
        }
      ],
      "stateMutability": "view",
      "type": "function"
    },
    {
      "inputs": [],
      "name": "_100pct",
      "outputs": [
        {
          "internalType": "uint256",
          "name": "",
          "type": "uint256"
        }
      ],
      "stateMutability": "view",
      "type": "function"
    },
    {
      "inputs": [],
      "name": "activePool",
      "outputs": [
        {
          "internalType": "contract IActivePool",
          "name": "",
          "type": "address"
        }
      ],
      "stateMutability": "view",
      "type": "function"
    },
    {
      "inputs": [],
      "name": "borrowerOperations",
      "outputs": [
        {
          "internalType": "contract IBorrowerOperations",
          "name": "",
          "type": "address"
        }
      ],
      "stateMutability": "view",
      "type": "function"
    },
    {
      "inputs": [],
      "name": "communityIssuance",
      "outputs": [
        {
          "internalType": "contract ICommunityIssuance",
          "name": "",
          "type": "address"
        }
      ],
      "stateMutability": "view",
      "type": "function"
    },
    {
      "inputs": [],
      "name": "currentEpoch",
      "outputs": [
        {
          "internalType": "uint128",
          "name": "",
          "type": "uint128"
        }
      ],
      "stateMutability": "view",
      "type": "function"
    },
    {
      "inputs": [],
      "name": "currentScale",
      "outputs": [
        {
          "internalType": "uint128",
          "name": "",
          "type": "uint128"
        }
      ],
      "stateMutability": "view",
      "type": "function"
    },
    {
      "inputs": [],
      "name": "defaultPool",
      "outputs": [
        {
          "internalType": "contract IDefaultPool",
          "name": "",
          "type": "address"
        }
      ],
      "stateMutability": "view",
      "type": "function"
    },
    {
      "inputs": [
        {
          "internalType": "address",
          "name": "",
          "type": "address"
        }
      ],
      "name": "depositSnapshots",
      "outputs": [
        {
          "internalType": "uint256",
          "name": "S",
          "type": "uint256"
        },
        {
          "internalType": "uint256",
          "name": "P",
          "type": "uint256"
        },
        {
          "internalType": "uint256",
          "name": "G",
          "type": "uint256"
        },
        {
          "internalType": "uint128",
          "name": "scale",
          "type": "uint128"
        },
        {
          "internalType": "uint128",
          "name": "epoch",
          "type": "uint128"
        }
      ],
      "stateMutability": "view",
      "type": "function"
    },
    {
      "inputs": [
        {
          "internalType": "address",
          "name": "",
          "type": "address"
        }
      ],
      "name": "deposits",
      "outputs": [
        {
          "internalType": "uint256",
          "name": "initialValue",
          "type": "uint256"
        },
        {
          "internalType": "address",
          "name": "frontEndTag",
          "type": "address"
        }
      ],
      "stateMutability": "view",
      "type": "function"
    },
    {
      "inputs": [
        {
          "internalType": "uint128",
          "name": "",
          "type": "uint128"
        },
        {
          "internalType": "uint128",
          "name": "",
          "type": "uint128"
        }
      ],
      "name": "epochToScaleToG",
      "outputs": [
        {
          "internalType": "uint256",
          "name": "",
          "type": "uint256"
        }
      ],
      "stateMutability": "view",
      "type": "function"
    },
    {
      "inputs": [
        {
          "internalType": "uint128",
          "name": "",
          "type": "uint128"
        },
        {
          "internalType": "uint128",
          "name": "",
          "type": "uint128"
        }
      ],
      "name": "epochToScaleToSum",
      "outputs": [
        {
          "internalType": "uint256",
          "name": "",
          "type": "uint256"
        }
      ],
      "stateMutability": "view",
      "type": "function"
    },
    {
      "inputs": [
        {
          "internalType": "address",
          "name": "",
          "type": "address"
        }
      ],
      "name": "frontEndSnapshots",
      "outputs": [
        {
          "internalType": "uint256",
          "name": "S",
          "type": "uint256"
        },
        {
          "internalType": "uint256",
          "name": "P",
          "type": "uint256"
        },
        {
          "internalType": "uint256",
          "name": "G",
          "type": "uint256"
        },
        {
          "internalType": "uint128",
          "name": "scale",
          "type": "uint128"
        },
        {
          "internalType": "uint128",
          "name": "epoch",
          "type": "uint128"
        }
      ],
      "stateMutability": "view",
      "type": "function"
    },
    {
      "inputs": [
        {
          "internalType": "address",
          "name": "",
          "type": "address"
        }
      ],
      "name": "frontEndStakes",
      "outputs": [
        {
          "internalType": "uint256",
          "name": "",
          "type": "uint256"
        }
      ],
      "stateMutability": "view",
      "type": "function"
    },
    {
      "inputs": [
        {
          "internalType": "address",
          "name": "",
          "type": "address"
        }
      ],
      "name": "frontEnds",
      "outputs": [
        {
          "internalType": "uint256",
          "name": "kickbackRate",
          "type": "uint256"
        },
        {
          "internalType": "bool",
          "name": "registered",
          "type": "bool"
        }
      ],
      "stateMutability": "view",
      "type": "function"
    },
    {
      "inputs": [
        {
          "internalType": "address",
          "name": "_frontEnd",
          "type": "address"
        }
      ],
      "name": "getCompoundedFrontEndStake",
      "outputs": [
        {
          "internalType": "uint256",
          "name": "",
          "type": "uint256"
        }
      ],
      "stateMutability": "view",
      "type": "function"
    },
    {
      "inputs": [
        {
          "internalType": "address",
          "name": "_depositor",
          "type": "address"
        }
      ],
      "name": "getCompoundedLUSDDeposit",
      "outputs": [
        {
          "internalType": "uint256",
          "name": "",
          "type": "uint256"
        }
      ],
      "stateMutability": "view",
      "type": "function"
    },
    {
      "inputs": [
        {
          "internalType": "address",
          "name": "_depositor",
          "type": "address"
        }
      ],
      "name": "getDepositorETHGain",
      "outputs": [
        {
          "internalType": "uint256",
          "name": "",
          "type": "uint256"
        }
      ],
      "stateMutability": "view",
      "type": "function"
    },
    {
      "inputs": [
        {
          "internalType": "address",
          "name": "_depositor",
          "type": "address"
        }
      ],
      "name": "getDepositorLQTYGain",
      "outputs": [
        {
          "internalType": "uint256",
          "name": "",
          "type": "uint256"
        }
      ],
      "stateMutability": "view",
      "type": "function"
    },
    {
      "inputs": [],
      "name": "getETH",
      "outputs": [
        {
          "internalType": "uint256",
          "name": "",
          "type": "uint256"
        }
      ],
      "stateMutability": "view",
      "type": "function"
    },
    {
      "inputs": [],
      "name": "getEntireSystemColl",
      "outputs": [
        {
          "internalType": "uint256",
          "name": "entireSystemColl",
          "type": "uint256"
        }
      ],
      "stateMutability": "view",
      "type": "function"
    },
    {
      "inputs": [],
      "name": "getEntireSystemDebt",
      "outputs": [
        {
          "internalType": "uint256",
          "name": "entireSystemDebt",
          "type": "uint256"
        }
      ],
      "stateMutability": "view",
      "type": "function"
    },
    {
      "inputs": [
        {
          "internalType": "address",
          "name": "_frontEnd",
          "type": "address"
        }
      ],
      "name": "getFrontEndLQTYGain",
      "outputs": [
        {
          "internalType": "uint256",
          "name": "",
          "type": "uint256"
        }
      ],
      "stateMutability": "view",
      "type": "function"
    },
    {
      "inputs": [],
      "name": "getTotalLUSDDeposits",
      "outputs": [
        {
          "internalType": "uint256",
          "name": "",
          "type": "uint256"
        }
      ],
      "stateMutability": "view",
      "type": "function"
    },
    {
      "inputs": [],
      "name": "isOwner",
      "outputs": [
        {
          "internalType": "bool",
          "name": "",
          "type": "bool"
        }
      ],
      "stateMutability": "view",
      "type": "function"
    },
    {
      "inputs": [],
      "name": "lastETHError_Offset",
      "outputs": [
        {
          "internalType": "uint256",
          "name": "",
          "type": "uint256"
        }
      ],
      "stateMutability": "view",
      "type": "function"
    },
    {
      "inputs": [],
      "name": "lastLQTYError",
      "outputs": [
        {
          "internalType": "uint256",
          "name": "",
          "type": "uint256"
        }
      ],
      "stateMutability": "view",
      "type": "function"
    },
    {
      "inputs": [],
      "name": "lastLUSDLossError_Offset",
      "outputs": [
        {
          "internalType": "uint256",
          "name": "",
          "type": "uint256"
        }
      ],
      "stateMutability": "view",
      "type": "function"
    },
    {
      "inputs": [],
      "name": "lusdToken",
      "outputs": [
        {
          "internalType": "contract ILUSDToken",
          "name": "",
          "type": "address"
        }
      ],
      "stateMutability": "view",
      "type": "function"
    },
    {
      "inputs": [
        {
          "internalType": "uint256",
          "name": "_debtToOffset",
          "type": "uint256"
        },
        {
          "internalType": "uint256",
          "name": "_collToAdd",
          "type": "uint256"
        }
      ],
      "name": "offset",
      "outputs": [],
      "stateMutability": "nonpayable",
      "type": "function"
    },
    {
      "inputs": [],
      "name": "owner",
      "outputs": [
        {
          "internalType": "address",
          "name": "",
          "type": "address"
        }
      ],
      "stateMutability": "view",
      "type": "function"
    },
    {
      "inputs": [],
      "name": "priceFeed",
      "outputs": [
        {
          "internalType": "contract IPriceFeed",
          "name": "",
          "type": "address"
        }
      ],
      "stateMutability": "view",
      "type": "function"
    },
    {
      "inputs": [
        {
          "internalType": "uint256",
          "name": "_amount",
          "type": "uint256"
        },
        {
          "internalType": "address",
          "name": "_frontEndTag",
          "type": "address"
        }
      ],
      "name": "provideToSP",
      "outputs": [],
      "stateMutability": "nonpayable",
      "type": "function"
    },
    {
      "inputs": [
        {
          "internalType": "uint256",
          "name": "_kickbackRate",
          "type": "uint256"
        }
      ],
      "name": "registerFrontEnd",
      "outputs": [],
      "stateMutability": "nonpayable",
      "type": "function"
    },
    {
      "inputs": [
        {
          "internalType": "address",
          "name": "_borrowerOperationsAddress",
          "type": "address"
        },
        {
          "internalType": "address",
          "name": "_troveManagerAddress",
          "type": "address"
        },
        {
          "internalType": "address",
          "name": "_activePoolAddress",
          "type": "address"
        },
        {
          "internalType": "address",
          "name": "_lusdTokenAddress",
          "type": "address"
        },
        {
          "internalType": "address",
          "name": "_sortedTrovesAddress",
          "type": "address"
        },
        {
          "internalType": "address",
          "name": "_priceFeedAddress",
          "type": "address"
        },
        {
          "internalType": "address",
          "name": "_communityIssuanceAddress",
          "type": "address"
        }
      ],
      "name": "setAddresses",
      "outputs": [],
      "stateMutability": "nonpayable",
      "type": "function"
    },
    {
      "inputs": [
        {
          "internalType": "uint128",
          "name": "_currentScale",
          "type": "uint128"
        }
      ],
      "name": "setCurrentScale",
      "outputs": [],
      "stateMutability": "nonpayable",
      "type": "function"
    },
    {
      "inputs": [
        {
          "internalType": "uint256",
          "name": "_totalLUSDDeposits",
          "type": "uint256"
        }
      ],
      "name": "setTotalDeposits",
      "outputs": [],
      "stateMutability": "nonpayable",
      "type": "function"
    },
    {
      "inputs": [],
      "name": "sortedTroves",
      "outputs": [
        {
          "internalType": "contract ISortedTroves",
          "name": "",
          "type": "address"
        }
      ],
      "stateMutability": "view",
      "type": "function"
    },
    {
      "inputs": [],
      "name": "stakedTLOS",
      "outputs": [
        {
          "internalType": "contract IStakedTLOS",
          "name": "",
          "type": "address"
        }
      ],
      "stateMutability": "view",
      "type": "function"
    },
    {
      "inputs": [],
      "name": "troveManager",
      "outputs": [
        {
          "internalType": "contract ITroveManager",
          "name": "",
          "type": "address"
        }
      ],
      "stateMutability": "view",
      "type": "function"
    },
    {
      "inputs": [],
      "name": "unprotectedPayable",
      "outputs": [],
      "stateMutability": "payable",
      "type": "function"
    },
    {
      "inputs": [
        {
          "internalType": "uint256",
          "name": "_amount",
          "type": "uint256"
        }
      ],
      "name": "withdrawFromSP",
      "outputs": [],
      "stateMutability": "nonpayable",
      "type": "function"
    },
    {
      "stateMutability": "payable",
      "type": "receive"
    }
  ],
  "bytecode": "0x6080604052670de0b6b3a764000060115534801561001c57600080fd5b50600380546001600160a01b031916339081179091556040516000907f8be0079c531659141344cd1fd0a4f28419497f9722a3daafe3b4186f6b6457e0908290a3600780546001600160a01b03191673a9991e4daa44922d00a78b6d986cdf628d46c4dd17905561368f806100926000396000f3fe6080604052600436106102b85760003560e01c806382e0a57411610170578063b83f91a2116100cc578063dbd6f42011610085578063dbd6f4201461097c578063df9cd84f14610991578063eaa8ba7f146109c4578063f3af7c3b14610a29578063f5f1595d14610a31578063f92d343314610a64578063fc7e286d14610a7957610311565b8063b83f91a2146108cb578063ba9c7485146108e0578063ce4b5bbe1461090a578063cef941e81461091f578063d4ca057514610934578063d7fb04431461096757610311565b806395fb16bb1161012957806395fb16bb146107a15780639bf2f1ac146107b6578063a20baee61461061c578063a3f4df7e146107cb578063a4e59ac814610855578063a7bfff971461086a578063ae918754146108b657610311565b806382e0a574146106cb57806386da082414610706578063887105d3146107395780638b8fbd921461074e5780638da5cb5b146107635780638f32d59b1461077857610311565b806350f592db1161021f57806372fe25aa116101d857806372fe25aa1461061c578063741bef1a14610631578063766718081461064657806377553ad414610677578063794e57241461068c578063795d26c3146106a15780637f7dde4a146106b657610311565b806350f592db14610529578063538153ca1461055c578063556be101146105715780635733d58f1461059b5780635d2de642146105b05780635f788d65146105e357610311565b80632e86bbd8116102715780632e86bbd814610456578063335525ad1461046b578063389e92a51461049b5780633cc74225146104ce5780633d83908a146104ff5780634870dd9a1461051457610311565b806314f6c3be1461031657806316b9d3c51461033d5780631bf43555146103a75780631cdc4700146103bc57806328a0a04d146103ef5780632e54bf951461042a57610311565b36610311576102c5610acd565b600a546102d8903463ffffffff610b1816565b600a81905560408051918252517fceb6d671277d4354fd29977ada70695fbd93a16612abf765d6b0e25c28dc6db39181900360200190a1005b600080fd5b34801561032257600080fd5b5061032b610b7b565b60408051918252519081900360200190f35b34801561034957600080fd5b506103706004803603602081101561036057600080fd5b50356001600160a01b0316610b81565b604080519586526020860194909452848401929092526001600160801b039081166060850152166080830152519081900360a00190f35b3480156103b357600080fd5b5061032b610bbc565b3480156103c857600080fd5b5061032b600480360360208110156103df57600080fd5b50356001600160a01b0316610bc9565b3480156103fb57600080fd5b5061032b6004803603604081101561041257600080fd5b506001600160801b0381358116916020013516610c71565b34801561043657600080fd5b506104546004803603602081101561044d57600080fd5b5035610c8e565b005b34801561046257600080fd5b5061032b610e4d565b34801561047757600080fd5b506104546004803603604081101561048e57600080fd5b5080359060200135610e59565b3480156104a757600080fd5b5061032b600480360360208110156104be57600080fd5b50356001600160a01b0316610f39565b3480156104da57600080fd5b506104e3610fd6565b604080516001600160a01b039092168252519081900360200190f35b34801561050b57600080fd5b506104e3610fe5565b34801561052057600080fd5b5061032b610ff4565b34801561053557600080fd5b506104546004803603602081101561054c57600080fd5b50356001600160801b0316610ff9565b34801561056857600080fd5b5061032b61101b565b34801561057d57600080fd5b506104546004803603602081101561059457600080fd5b5035611021565b3480156105a757600080fd5b5061032b611096565b3480156105bc57600080fd5b5061032b600480360360208110156105d357600080fd5b50356001600160a01b03166110a2565b3480156105ef57600080fd5b506104546004803603604081101561060657600080fd5b50803590602001356001600160a01b03166110b4565b34801561062857600080fd5b5061032b61126b565b34801561063d57600080fd5b506104e3611277565b34801561065257600080fd5b5061065b611286565b604080516001600160801b039092168252519081900360200190f35b34801561068357600080fd5b506104e361129c565b34801561069857600080fd5b5061032b6112ab565b3480156106ad57600080fd5b5061032b6112b7565b3480156106c257600080fd5b506104e36113b8565b3480156106d757600080fd5b5061032b600480360360408110156106ee57600080fd5b506001600160801b03813581169160200135166113c7565b34801561071257600080fd5b506103706004803603602081101561072957600080fd5b50356001600160a01b03166113e4565b34801561074557600080fd5b5061032b61141f565b34801561075a57600080fd5b5061032b6114db565b34801561076f57600080fd5b506104e36114e1565b34801561078457600080fd5b5061078d6114f0565b604080519115158252519081900360200190f35b3480156107ad57600080fd5b506104e3611501565b3480156107c257600080fd5b5061032b611510565b3480156107d757600080fd5b506107e0611516565b6040805160208082528351818301528351919283929083019185019080838360005b8381101561081a578181015183820152602001610802565b50505050905090810190601f1680156108475780820380516001836020036101000a031916815260200191505b509250505060405180910390f35b34801561086157600080fd5b5061065b61153f565b34801561087657600080fd5b5061089d6004803603602081101561088d57600080fd5b50356001600160a01b031661154e565b6040805192835290151560208301528051918290030190f35b3480156108c257600080fd5b506104e361156a565b3480156108d757600080fd5b506104e3611579565b3480156108ec57600080fd5b506104546004803603602081101561090357600080fd5b5035611588565b34801561091657600080fd5b5061032b61158d565b34801561092b57600080fd5b5061032b611595565b34801561094057600080fd5b5061032b6004803603602081101561095757600080fd5b50356001600160a01b031661159b565b34801561097357600080fd5b5061032b61169f565b34801561098857600080fd5b506104e36116a5565b34801561099d57600080fd5b5061032b600480360360208110156109b457600080fd5b50356001600160a01b03166116b4565b3480156109d057600080fd5b50610454600480360360e08110156109e757600080fd5b506001600160a01b038135811691602081013582169160408201358116916060810135821691608082013581169160a081013582169160c09091013516611751565b610454611a02565b348015610a3d57600080fd5b5061032b60048036036020811015610a5457600080fd5b50356001600160a01b0316611a1a565b348015610a7057600080fd5b5061032b611b17565b348015610a8557600080fd5b50610aac60048036036020811015610a9c57600080fd5b50356001600160a01b0316611b22565b604080519283526001600160a01b0390911660208301528051918290030190f35b6000546001600160a01b03163314610b165760405162461bcd60e51b815260040180806020018281038252602781526020018061346e6027913960400191505060405180910390fd5b565b600082820183811015610b72576040805162461bcd60e51b815260206004820152601b60248201527f536166654d6174683a206164646974696f6e206f766572666c6f770000000000604482015290519081900360640190fd5b90505b92915050565b600a5490565b6010602052600090815260409020805460018201546002830154600390930154919290916001600160801b0380821691600160801b90041685565b6804e1003b28d928000081565b6001600160a01b0381166000908152600c602052604081205480610bf1576000915050610c6c565b610bf96133e6565b506001600160a01b0383166000908152600d60209081526040808320815160a08101835281548152600182015493810193909352600281015491830191909152600301546001600160801b038082166060840152600160801b90910416608082015290610c668383611b44565b93505050505b919050565b601360209081526000928352604080842090915290825290205481565b8015610c9c57610c9c611c40565b336000908152600c6020526040902054610cb581611dfd565b6009546001600160a01b0316610cca81611e3f565b6000610cd533610f39565b90506000610ce233610bc9565b90506000610cf08683611eb3565b90506000610d04868463ffffffff611ec916565b336000818152600c60205260409020600101549192506001600160a01b0390911690610d3290879083611f0b565b6000610d3d826116b4565b90506000610d51828663ffffffff611ec916565b9050610d5d83826120aa565b6040805182815233602082015281516001600160a01b038616927f99920012339b5a3368d3a04b8606ce412c46ed92b7dcd8602d41fc8862cb8f25928290030190a2610da933866121f6565b6000610dbb878763ffffffff611ec916565b9050610dc7338261227c565b60408051828152905133917fbce78369dccab09eec1986f4d409ab09ffbb47d65423e5148fcf98411c5111c9919081900360200190a26040805189815260208101879052815133927f51457222ebca92c335c9c86e2baa1cc0e40ffaa9084a51452980d5ba8dec2f63928290030190a2610e4088612402565b5050505050505050505050565b678ac7230489e8000081565b600754604080516363737ac960e11b81526004810184905290516000926001600160a01b03169163c6e6f592916024808301926020929190829003018186803b158015610ea557600080fd5b505afa158015610eb9573d6000803e3d6000fd5b505050506040513d6020811015610ecf57600080fd5b50519050610edb61251d565b600b54801580610ee9575083155b15610ef5575050610f35565b600954610f0a906001600160a01b0316611e3f565b600080610f18848785612566565b91509150610f26828261265f565b610f308587612959565b505050505b5050565b6001600160a01b0381166000908152600c602052604081205480610f61576000915050610c6c565b610f696133e6565b506001600160a01b0383166000908152600d60209081526040808320815160a08101835281548152600182015493810193909352600281015491830191909152600301546001600160801b038082166060840152600160801b90910416608082015290610c668383612a93565b6001546001600160a01b031681565b6005546001600160a01b031681565b60c881565b601280546001600160801b0319166001600160801b0392909216919091179055565b60175481565b61102a33612b84565b61103333612bdf565b61103c81612c35565b336000818152600e60209081526040918290208481556001908101805460ff19169091179055815184815291517f19bc932fb9e16a8b5a1e41be9f4c2de59d5ddd7567b8b81405f532ca00a9880e9281900390910190a250565b6714d1120d7b16000081565b600f6020526000908152604090205481565b6110bd81612c7c565b6110c633612b84565b6110cf82612ce8565b336000908152600c60205260409020546009546001600160a01b03166110f481611e3f565b81611103576111033384612d27565b600061110e33610f39565b9050600061111b33610bc9565b9050600061112f858363ffffffff611ec916565b336000818152600c60205260409020600101549192506001600160a01b039091169061115d90869083611f0b565b6000611168826116b4565b9050600061117c828b63ffffffff610b1816565b905061118883826120aa565b6040805182815233602082015281516001600160a01b038616927f99920012339b5a3368d3a04b8606ce412c46ed92b7dcd8602d41fc8862cb8f25928290030190a26111d4338b612d81565b60006111e6868c63ffffffff610b1816565b90506111f2338261227c565b60408051828152905133917fbce78369dccab09eec1986f4d409ab09ffbb47d65423e5148fcf98411c5111c9919081900360200190a26040805188815260208101879052815133927f51457222ebca92c335c9c86e2baa1cc0e40ffaa9084a51452980d5ba8dec2f63928290030190a2610e4087612402565b670de0b6b3a764000081565b6002546001600160a01b031681565b601254600160801b90046001600160801b031681565b6004546001600160a01b031681565b670f43fc2c04ee000081565b6000805460408051632f5a97e560e11b8152905183926001600160a01b031691635eb52fca916004808301926020929190829003018186803b1580156112fc57600080fd5b505afa158015611310573d6000803e3d6000fd5b505050506040513d602081101561132657600080fd5b505160015460408051632f5a97e560e11b815290519293506000926001600160a01b0390921691635eb52fca91600480820192602092909190829003018186803b15801561137357600080fd5b505afa158015611387573d6000803e3d6000fd5b505050506040513d602081101561139d57600080fd5b505190506113b1828263ffffffff610b1816565b9250505090565b6000546001600160a01b031681565b601460209081526000928352604080842090915290825290205481565b600d602052600090815260409020805460018201546002830154600390930154919290916001600160801b0380821691600160801b90041685565b6000805460408051630a7b61df60e11b8152905183926001600160a01b0316916314f6c3be916004808301926020929190829003018186803b15801561146457600080fd5b505afa158015611478573d6000803e3d6000fd5b505050506040513d602081101561148e57600080fd5b505160015460408051630a7b61df60e11b815290519293506000926001600160a01b03909216916314f6c3be91600480820192602092909190829003018186803b15801561137357600080fd5b60115481565b6003546001600160a01b031690565b6003546001600160a01b0316331490565b6009546001600160a01b031681565b600b5490565b6040518060400160405280600d81526020016c14dd18589a5b1a5d1e541bdbdb609a1b81525081565b6012546001600160801b031681565b600e602052600090815260409020805460019091015460ff1682565b6008546001600160a01b031681565b6006546001600160a01b031681565b600b55565b633b9aca0081565b60155481565b6001600160a01b0381166000908152600f6020526040812054806115c3576000915050610c6c565b6001600160a01b0383166000908152600e6020526040812054906115f5670de0b6b3a76400008363ffffffff611ec916565b90506115ff6133e6565b506001600160a01b0385166000908152601060209081526040808320815160a08101835281548152600182015493810193909352600281015491830191909152600301546001600160801b038082166060840152600160801b90910416608082015290611694670de0b6b3a764000061168861167b8886612e4b565b869063ffffffff612ed716565b9063ffffffff612f3016565b979650505050505050565b60165481565b6007546001600160a01b031681565b6001600160a01b0381166000908152600f6020526040812054806116dc576000915050610c6c565b6116e46133e6565b506001600160a01b0383166000908152601060209081526040808320815160a08101835281548152600182015493810193909352600281015491830191909152600301546001600160801b038082166060840152600160801b90910416608082015290610c668383611b44565b6117596114f0565b6117aa576040805162461bcd60e51b815260206004820181905260248201527f4f776e61626c653a2063616c6c6572206973206e6f7420746865206f776e6572604482015290519081900360640190fd5b6117b387612f72565b6117bc86612f72565b6117c585612f72565b6117ce84612f72565b6117d783612f72565b6117e082612f72565b6117e981612f72565b600480546001600160a01b03199081166001600160a01b038a81169182179093556005805483168a85161790556000805483168985161790556006805483168885161790556008805483168785161790556002805483168685161790556009805490921692841692909217905560408051918252517f3ca631ffcd2a9b5d9ae18543fc82f58eb4ca33af9e6ab01b7a8e95331e6ed985916020908290030190a1604080516001600160a01b038816815290517f143219c9e69b09e07e095fcc889b43d8f46ca892bba65f08dc3a0050869a56789181900360200190a1604080516001600160a01b038716815290517f78f058b189175430c48dc02699e3a0031ea4ff781536dc2fab847de4babdd8829181900360200190a1604080516001600160a01b038616815290517f227eec0ec317af6ab1a9587ffa1c84332522eb4c583a908f89babc05f8f339bd9181900360200190a1604080516001600160a01b038516815290517f65f4cf077bc01e4742eb5ad98326f6e95b63548ea24b17f8d5e823111fe788009181900360200190a1604080516001600160a01b038416815290517f8c537274438aa850a330284665d81a85dd38267d09e4050d416bfc94142db2649181900360200190a1604080516001600160a01b038316815290517f3055265812fb8447b9ada4a5d804ec43bd528ec40e89c952bbc7b85dc5ac68119181900360200190a16119f9613021565b50505050505050565b600a54611a15903463ffffffff610b1816565b600a55565b6001600160a01b0381166000908152600c602052604081205480611a42576000915050610c6c565b6001600160a01b038084166000908152600c6020526040812060010154909116908115611a87576001600160a01b0382166000908152600e6020526040902054611a91565b670de0b6b3a76400005b9050611a9b6133e6565b506001600160a01b0385166000908152600d60209081526040808320815160a08101835281548152600182015493810193909352600281015491830191909152600301546001600160801b038082166060840152600160801b90910416608082015290611694670de0b6b3a764000061168861167b8886612e4b565b6611c37937e0800081565b600c60205260009081526040902080546001909101546001600160a01b031682565b6020810151606082015160808301516012546000939291906001600160801b03600160801b90910481169082161015611b835760009350505050610b75565b6012546000908190611ba4906001600160801b03168563ffffffff61306b16565b90506001600160801b038116611bd457611bcd856116886011548b612ed790919063ffffffff16565b9150611c0c565b806001600160801b031660011415611c0757611bcd633b9aca00611688876116886011548d612ed790919063ffffffff16565b600091505b611c2088633b9aca0063ffffffff612f3016565b821015611c3557600095505050505050610b75565b509695505050505050565b60025460408051630fdb11cf60e01b815290516000926001600160a01b031691630fdb11cf91600480830192602092919082900301818787803b158015611c8657600080fd5b505af1158015611c9a573d6000803e3d6000fd5b505050506040513d6020811015611cb057600080fd5b505160085460408051634d62283160e01b815290519293506000926001600160a01b0390921691634d62283191600480820192602092909190829003018186803b158015611cfd57600080fd5b505afa158015611d11573d6000803e3d6000fd5b505050506040513d6020811015611d2757600080fd5b505160055460408051630d293c7160e41b81526001600160a01b038085166004830152602482018790529151939450600093919092169163d293c710916044808301926020929190829003018186803b158015611d8357600080fd5b505afa158015611d97573d6000803e3d6000fd5b505050506040513d6020811015611dad57600080fd5b50519050670f43fc2c04ee0000811015611df85760405162461bcd60e51b81526004018080602001828103825260448152602001806136166044913960600191505060405180910390fd5b505050565b60008111611e3c5760405162461bcd60e51b81526004018080602001828103825260308152602001806135996030913960400191505060405180910390fd5b50565b6000816001600160a01b03166346ad34d96040518163ffffffff1660e01b8152600401602060405180830381600087803b158015611e7c57600080fd5b505af1158015611e90573d6000803e3d6000fd5b505050506040513d6020811015611ea657600080fd5b50519050610f35816130c4565b6000818310611ec25781610b72565b5090919050565b6000610b7283836040518060400160405280601e81526020017f536166654d6174683a207375627472616374696f6e206f766572666c6f7700008152506131df565b6001600160a01b03811615611fe0576000611f258261159b565b9050836001600160a01b031663614d2ab683836040518363ffffffff1660e01b815260040180836001600160a01b03166001600160a01b0316815260200182815260200192505050600060405180830381600087803b158015611f8757600080fd5b505af1158015611f9b573d6000803e3d6000fd5b50506040805184815290516001600160a01b03861693507fcd2cdc1a4af71051394e9c6facd9a266b2ac5bd65d219a701eeda009f47682bf92509081900360200190a2505b6000611feb83611a1a565b9050836001600160a01b031663614d2ab684836040518363ffffffff1660e01b815260040180836001600160a01b03166001600160a01b0316815260200182815260200192505050600060405180830381600087803b15801561204d57600080fd5b505af1158015612061573d6000803e3d6000fd5b50506040805184815290516001600160a01b03871693507f2608b986a6ac0f6c629ca37018e80af5561e366252ae93602a96d3ab2e73e42d92509081900360200190a250505050565b6001600160a01b0382166000908152600f602052604090208190558061213a576001600160a01b0382166000818152601060209081526040808320838155600181018490556002810184905560030183905580518381529182019290925281517fbb1322f85cc7cc8bac4e172a5bc5dcc0c1959007f9a030032abf9258205f0e45929181900390910190a2610f35565b6012546011546001600160801b03600160801b80840482166000818152601460209081526040808320978616808452978252808320546001600160a01b038b168085526010845293829020600181018990556002810182905560030180546001600160801b0319168a17909716958502959095179095558451868152908101849052845192959491927fbb1322f85cc7cc8bac4e172a5bc5dcc0c1959007f9a030032abf9258205f0e45929181900390910190a2505050505050565b8061220057610f35565b60065460408051631062c15f60e11b81523060048201526001600160a01b03858116602483015260448201859052915191909216916320c582be91606480830192600092919082900301818387803b15801561225b57600080fd5b505af115801561226f573d6000803e3d6000fd5b50505050610f3581613276565b6001600160a01b0382166000908152600c602052604090208190558061232a576001600160a01b0382166000818152600c60209081526040808320600190810180546001600160a01b0319169055600d83528184208481559081018490556002810184905560030183905580518381529182018390528181019290925290517f2d6cc0bcdf72c9486f6451bde6b80f44066f4558f77f44dbfedbe7d8b295225a9181900360600190a2610f35565b6012546011546001600160801b03600160801b8084048216600081815260136020908152604080832097861680845297825280832054848452601483528184208985528352818420546001600160a01b038c16808652600d855294839020600181018a90558281556002810182905560030180546001600160801b0319168b179098169686029690961790965580518781529182018690528181018590525192959493927f2d6cc0bcdf72c9486f6451bde6b80f44066f4558f77f44dbfedbe7d8b295225a916060908290030190a250505050505050565b8061240c57611e3c565b600a54600090612422908363ffffffff611ec916565b600a8190556040805182815290519192507fceb6d671277d4354fd29977ada70695fbd93a16612abf765d6b0e25c28dc6db3919081900360200190a1604080513381526020810184905281517f6109e2559dfa766aaec7118351d48a523f0a4157f49c8d68749c8ac41318ad12929181900390910190a16007546040805163a9059cbb60e01b81523360048201526024810185905290516001600160a01b039092169163a9059cbb916044808201926020929091908290030181600087803b1580156124ed57600080fd5b505af1158015612501573d6000803e3d6000fd5b505050506040513d602081101561251757600080fd5b50505050565b6005546001600160a01b03163314610b165760405162461bcd60e51b81526004018080602001828103825260298152602001806134956029913960400191505060405180910390fd5b600080600061259860165461258c670de0b6b3a764000089612ed790919063ffffffff16565b9063ffffffff610b1816565b9050838511156125a457fe5b838514156125c1576000601755670de0b6b3a76400009150612621565b6017546000906125ef906125e388670de0b6b3a764000063ffffffff612ed716565b9063ffffffff611ec916565b9050612606600161258c838863ffffffff612f3016565b925061261c816125e3858863ffffffff612ed716565b601755505b612631818563ffffffff612f3016565b9250612653612646848663ffffffff612ed716565b829063ffffffff611ec916565b60165550935093915050565b6011546000670de0b6b3a764000083111561267657fe5b6000612690670de0b6b3a76400008563ffffffff611ec916565b6012546001600160801b03600160801b8204811660008181526013602090815260408083209490951680835293905292832054939450909290916126d48988612ed7565b905060006126e8838363ffffffff610b1816565b6001600160801b038086166000818152601360209081526040808320948b16808452948252918290208590558151858152908101929092528181019290925290519192507fe12e2cd2c9afa8069203ca07e7eff1edce4a075686d0736a8e7e0d593597b207919081900360600190a18561281f576127766001600160801b038516600163ffffffff6132cc16565b601280546001600160801b03908116600160801b938216840217918290556040805193909204168252517fb50f0f59e7cb5b421dc77581c3a9919e3806e076e5fa78a874c3f120cb7d874d916020908290030190a1601280546001600160801b0319169055604080516000815290517f1f9dfc70cd666adb18a39d60a797518f7b4febf4b6e24ef37d44f6e1e7219fbe9181900360200190a1670de0b6b3a7640000965061290b565b633b9aca00612840670de0b6b3a76400006116888b8a63ffffffff612ed716565b10156128ec57612876670de0b6b3a7640000611688633b9aca0061286a8c8b63ffffffff612ed716565b9063ffffffff612ed716565b96506128926001600160801b038616600163ffffffff6132cc16565b601280546001600160801b0319166001600160801b0392831617908190556040805191909216815290517f1f9dfc70cd666adb18a39d60a797518f7b4febf4b6e24ef37d44f6e1e7219fbe916020908290030190a161290b565b612908670de0b6b3a76400006116888a8963ffffffff612ed716565b96505b6000871161291557fe5b60118790556040805188815290517fc1a9618cb59ebca77cbdbc2949f126823c407ff13edb285fd0262519a9c18e8c9181900360200190a150505050505050505050565b600080546040805163071b32b560e31b81526004810185905290516001600160a01b039092169283926338d995a892602480820193929182900301818387803b1580156129a557600080fd5b505af11580156129b9573d6000803e3d6000fd5b505050506129c682613276565b60065460408051632770a7eb60e21b81523060048201526024810185905290516001600160a01b0390921691639dc29fac9160448082019260009290919082900301818387803b158015612a1957600080fd5b505af1158015612a2d573d6000803e3d6000fd5b5050604080516364a197f360e01b81523060048201526024810187905290516001600160a01b03851693506364a197f39250604480830192600092919082900301818387803b158015612a7f57600080fd5b505af11580156119f9573d6000803e3d6000fd5b6080810151606082015182516020808501516001600160801b03808616600090815260138452604080822092871682529190935282205491949392918590612ae1908463ffffffff611ec916565b6001600160801b03808716600090815260136020526040812092935091612b4491633b9aca0091908490612b1e908a16600163ffffffff6132cc16565b6001600160801b031681526020810191909152604001600020549063ffffffff612f3016565b90506000612b76670de0b6b3a76400006116888681612b69888863ffffffff610b1816565b8f9063ffffffff612ed716565b9a9950505050505050505050565b6001600160a01b0381166000908152600e602052604090206001015460ff1615611e3c5760405162461bcd60e51b81526004018080602001828103825260398152602001806135386039913960400191505060405180910390fd5b6001600160a01b0381166000908152600c60205260409020548015610f355760405162461bcd60e51b81526004018080602001828103825260288152602001806135716028913960400191505060405180910390fd5b670de0b6b3a7640000811115611e3c5760405162461bcd60e51b81526004018080602001828103825260338152602001806134df6033913960400191505060405180910390fd5b6001600160a01b0381166000908152600e602052604090206001015460ff1680612cad57506001600160a01b038116155b611e3c5760405162461bcd60e51b81526004018080602001828103825260468152602001806134286046913960600191505060405180910390fd5b60008111611e3c5760405162461bcd60e51b81526004018080602001828103825260268152602001806135126026913960400191505060405180910390fd5b6001600160a01b038281166000818152600c602052604080822060010180546001600160a01b0319169486169485179055517f094c08e96a8890877a8390b4f967180a7507ad8622244d05fcd0f9f8e086564e9190a35050565b60065460408051632ee65eeb60e21b81526001600160a01b038581166004830152306024830152604482018590529151919092169163bb997bac91606480830192600092919082900301818387803b158015612ddc57600080fd5b505af1158015612df0573d6000803e3d6000fd5b5050600b5460009250612e0a91508363ffffffff610b1816565b600b8190556040805182815290519192507fa8e886449d8f7e765877b4a4f54632da3943ae454d5a272bdccb1781f086ff29919081900360200190a1505050565b608081015160608201516040808401516020808601516001600160801b03808716600090815260148452858120918716815292529281205490949392908590612e9a908463ffffffff611ec916565b6001600160801b03808716600090815260146020526040812092935091612b4491633b9aca0091908490612b1e908a16600163ffffffff6132cc16565b600082612ee657506000610b75565b82820282848281612ef357fe5b0414610b725760405162461bcd60e51b81526004018080602001828103825260218152602001806134be6021913960400191505060405180910390fd5b6000610b7283836040518060400160405280601a81526020017f536166654d6174683a206469766973696f6e206279207a65726f00000000000081525061331c565b6001600160a01b038116612fcd576040805162461bcd60e51b815260206004820152601e60248201527f4163636f756e742063616e6e6f74206265207a65726f20616464726573730000604482015290519081900360640190fd5b803b80610f35576040805162461bcd60e51b815260206004820181905260248201527f4163636f756e7420636f64652073697a652063616e6e6f74206265207a65726f604482015290519081900360640190fd5b6003546040516000916001600160a01b0316907f8be0079c531659141344cd1fd0a4f28419497f9722a3daafe3b4186f6b6457e0908390a3600380546001600160a01b0319169055565b6000826001600160801b0316826001600160801b031611156130be5760405162461bcd60e51b81526004018080602001828103825260288152602001806135c96028913960400191505060405180910390fd5b50900390565b600b548015806130d2575081155b156130dd5750611e3c565b60006130e98383613381565b9050600061310260115483612ed790919063ffffffff16565b6012546001600160801b03600160801b820481166000908152601460209081526040808320939094168252919091522054909150613146908263ffffffff610b1816565b601280546001600160801b03600160801b808304821660009081526014602081815260408084209686168452958152858320979097559454918204831680825294865283812091909216808352908552908290205482519081529384019290925282810191909152517f2d6127771b164a9cc8827d24b5955db2a77e7a81dac389107ebb8bce9fb649689181900360600190a150505050565b6000818484111561326e5760405162461bcd60e51b81526004018080602001828103825283818151815260200191508051906020019080838360005b8381101561323357818101518382015260200161321b565b50505050905090810190601f1680156132605780820380516001836020036101000a031916815260200191505b509250505060405180910390fd5b505050900390565b600b5460009061328c908363ffffffff611ec916565b600b8190556040805182815290519192507fa8e886449d8f7e765877b4a4f54632da3943ae454d5a272bdccb1781f086ff29919081900360200190a15050565b60008282016001600160801b038085169082161015610b725760405162461bcd60e51b81526004018080602001828103825260258152602001806135f16025913960400191505060405180910390fd5b6000818361336b5760405162461bcd60e51b815260206004820181815283516024840152835190928392604490910191908501908083836000831561323357818101518382015260200161321b565b50600083858161337757fe5b0495945050505050565b6000806133a560155461258c670de0b6b3a764000087612ed790919063ffffffff16565b905060006133b9828563ffffffff612f3016565b90506133db6133ce828663ffffffff612ed716565b839063ffffffff611ec916565b601555949350505050565b6040518060a0016040528060008152602001600081526020016000815260200160006001600160801b0316815260200160006001600160801b03168152509056fe53746162696c697479506f6f6c3a20546167206d757374206265206120726567697374657265642066726f6e7420656e642c206f7220746865207a65726f206164647265737353746162696c697479506f6f6c3a2043616c6c6572206973206e6f7420416374697665506f6f6c53746162696c697479506f6f6c3a2043616c6c6572206973206e6f742054726f76654d616e61676572536166654d6174683a206d756c7469706c69636174696f6e206f766572666c6f7753746162696c697479506f6f6c3a204b69636b6261636b2072617465206d75737420626520696e2072616e6765205b302c315d53746162696c697479506f6f6c3a20416d6f756e74206d757374206265206e6f6e2d7a65726f53746162696c697479506f6f6c3a206d757374206e6f7420616c7265616479206265206120726567697374657265642066726f6e7420656e6453746162696c697479506f6f6c3a2055736572206d7573742068617665206e6f206465706f73697453746162696c697479506f6f6c3a2055736572206d75737420686176652061206e6f6e2d7a65726f206465706f7369744c697175697479536166654d6174683132383a207375627472616374696f6e206f766572666c6f774c697175697479536166654d6174683132383a206164646974696f6e206f766572666c6f7753746162696c697479506f6f6c3a2043616e6e6f74207769746864726177207768696c65207468657265206172652074726f766573207769746820494352203c204d4352a2646970667358221220bd2e59fc54c6d463b1d443fbc9db5d90c1f3f6e7cc01dff0786d3f629941621f64736f6c634300060b0033",
  "linkReferences": {},
  "deployedLinkReferences": {}
}